:020000041000EA
:1000000000B5324B212058609868022188439860DF
:10001000D860186158612E4B002199600221596106
:100020000121F02299502B49196001219960352056
:1000300000F044F80222904214D00621196600F024
:1000400034F8196E01211966002018661A6600F04E
:100050002CF8196E196E196E052000F02FF8012189
:100060000842F9D1002199601B49196000215960AB
:100070001A491B48016001219960EB211966A021F2
:10008000196600F012F800219960164914480160C1
:100090000121996001BC002800D000471248134993
:1000A000086003C880F30888084703B5996A0420EC
:1000B0000142FBD001200142F8D103BD02B5186610
:1000C0001866FFF7F2FF186E186E02BD00000240BE
:1000D000000000180000070000035F00212200005C
:1000E000F4000018222000A00001001008ED00E03C
:1000F00000000000000000000000000074B24E7A12
:1001000000200420F7010010C3010010C5010010F9
:10011000C1010010C1010010C1010010C101001097
:10012000C1010010C1010010C1010010C701001081
:10013000C1010010C1010010C9010010CB01001065
:10014000CD010010CD010010CD010010CD01001037
:10015000CD010010CD010010CD010010CD01001027
:10016000CD010010CD010010CD010010CD01001017
:10017000CD010010CD010010CD010010CD01001007
:10018000CD010010CD010010CD010010CD010010F7
:10019000CD010010CD010010CD010010CD010010E7
:1001A000CD010010CD010010CD010010CD010010D7
:1001B000CD010010CD010010CD010010CD010010C7
:1001C00000BE00BE00BE00BE00BE00BE00F051F882
:1001D000103800BEF2EB8871E0020010040300103A
:1001E0003402001090A31AE700202449086006C8D2
:1001F00081F30888104722480068002835D10DA4F3
:100200000ECC002902D000F012F8F9E71D491E4A71
:10021000002000E001C19142FCD11C4988471C49E3
:1002200088471C49884700BEFDE701C901C29A42C0
:10023000FBD3704704030010C0000020908F002003
:10024000D4910010908F0020A4980020E89A00100C
:100250000000042000000420E89A00100010042090
:10026000001004200000000070470B4800F018F850
:100270000047EFF30580C0B27047000008ED00E0D2
:10028000000000D0A8980020302B0320D52C00209F
:10029000D5010020C52D00205756000000000000A9
:1002A00001B40248844601BC604700BF1D320020F3
:1002B00006005250ABB360535095002006005250D8
:1002C000861C030260950020060052505422A29D15
:1002D0006C95002005005250DE65F468E89A001025
:1002E000D4020010C8020010BC0200107895002053
:1002F000B0020010849500209095002010970020F7
:040300001C97002026
:10030400F8B5C0460448054B10B5834203D0044BEE
:10031400002B00D0984710BDA4980020A49800207A
:100324000000000006480749091A8B10C90FC918B4
:1003340010B5491003D0044B002B00D0984710BDD2
:10034400A4980020A49800200000000010B5074CD9
:100354002378002B09D1FFF7D5FF054B002B02D0E2
:10036400044800E000BF0123237010BDE89B002077
:1003740000000000908F0020054B10B5002B03D027
:100384000449054800E000BFFFF7CCFF10BDC0469C
:1003940000000000EC9B0020908F00200022064B00
:1003A40010B519201A6002F015FDD02380221B0617
:1003B40092045A625A6110BDACE6002010B504F0F4
:1003C40001FB012008F0B8F9F9E7C04670B50F4DFC
:1003D4000F4C002005F07EFF002812D04022290097
:1003E400002005F085FF2100280000F051FD2100C8
:1003F4000200002005F0AAFF002005F06BFF002892
:10040400ECD1022008F098F9E3E7C046209C0020D4
:10041400609C002010B582B006F044FC00F0F6FAAF
:1004240000F004FA06F0BAF801F002FBFFF7B6FF99
:10043400124B80240193032364002200009310498B
:100444000023104807F096FC0F4B2200019302236F
:100454000E4900930E48002307F08CFC0D4B22003C
:10046400019301230C4900930C48002307F082FCFC
:1004740007F06CFE002002B010BDC046302A0120F7
:10048400F4910020FD060020D8290120FC910020D1
:100494007D01002054E20020609200208D010020A4
:1004A4000020704770B51800084C04AB1D8821006B
:1004B40000F0EEFC2B1C402D00D94023220000212B
:1004C400DBB2002005F050FD70BDC046609C0020EA
:1004D400F0B50500140083B0002920D11378002062
:1004E4005B069B0F022B01D003B0F0BD5378012BA8
:1004F400FAD1637912791B021343072BF4D16B46AB
:10050400084E9F1D31000222380003F0E9FA320040
:10051400210028003B88083A05F062F9E4E701204D
:10052400E2E7C046789300207047C04610B5024801
:10053400097802F069FDC0460092002010B5014818
:1005440002F062FD3092002000487047389300208A
:10055400004870474C93002000487047D492002014
:1005640070B5002826D0062831D81A4B8000C6580A
:10057400300008F0F3FDC0B2011C1F2815D8C9B221
:10058400002821D00023144DAA1CF05C0133DCB2F6
:1005940010800232A142F8D8C0230131C9B2490007
:1005A4009B0019432800298070BD1F21C9B200286F
:1005B400E8D109E0084D074B02221968A81C03F092
:1005C4008FFAC1218900EDE70449034DEAE70020D1
:1005D400EAE7C04670970020109E00200203000046
:1005E40000487047B092002010B50400052002F0C6
:1005F4008DFEFA21890002F063FF210002F060FF02
:10060400C823024A40080004D05010BD0000205006
:1006140010B580240A4A0138640253682342FCD18D
:1006240010618020064A400253680342FCD11161E4
:100634008021034A490053680B42FCD1136A10BD60
:100644000000205080210B4A10B5490204000138F3
:1006540053680B42FCD180211061064A490053685B
:100664000B42FCD1106A1F2C02D820231C1BE04033
:1006740010BDC04600002050064B074AD821D2586E
:100684001F2309321340054A5350D039136C1942C1
:10069400FCD1704708400000C8E60020000020504C
:1006A400064A074BD821D3581F221340054A5350FA
:1006B400D039136C1942FCD07047C046C8E60020FC
:1006C400084000000000205010B50621022002F06E
:1006D40023FB0621032002F01FFB0022012103203B
:1006E40002F03CFB10BDC046F0B5CE46474680B58F
:1006F40000220121062089B002F030FB062002F01E
:1007040069FB2C4D2C4C6359002B0FD01F22D82190
:100714002A4BE35813402A4A5350D039136C1942D8
:10072400FCD009B0C0BCB946B046F0BD244E254942
:10073400300006F0CFFA214BC201E05080235B0267
:10074400049303000F331B0313431F4A0700134092
:100754008022D20513430593C0231B0399460693B5
:100764001A4B02220793012300219846300000937C
:10077400013306F02DFB069B00210393039A144BCF
:10078400300013404A46134306933A0004AB06F084
:1007940061FB052002F0BAFD0E4902F091FEC82368
:1007A400424640080004F0503368934313433360D7
:1007B4006251ABE70C400000C8E60020084000008E
:1007C4000000205024940020FFFFFF9F6388114401
:1007D400FFFF00C040420F0070B50F4B0F4D104893
:1007E400EA581F23110009310B40D8214350D03956
:1007F4000C00036C1C401942FAD10A4EAB59002B71
:1008040000D170BD012103688B430360064904488D
:1008140006F0C4FAAC51F4E708400000C8E6002032
:10082400000020500C4000002494002010B5022148
:10083400042002F071FA0221052002F06DFA002270
:100844000121042002F08AFA00220121052002F08D
:1008540085FAE1210248490202F0DAFA10BDC046E5
:1008640000800340102170B50C00304A93691C408D
:10087400194241D12E4D681E013493691942FCD1AD
:10088400136803559369194201D1402CF4D1002017
:1008940005F0A0F8002834D00122264B00201A606D
:1008A40005F076F9A04237D322002900002005F094
:1008B40055F9002005F018F9002005F0A3F83F28A9
:1008C40006D8002005F09EF8021E1ED0102800D97C
:1008D4001022194C0020210005F0A0F8002814D0A3
:1008E4002021124A201893691942FCD1237801343B
:1008F4001360A042F7D108E0002005F06BF800284F
:1009040010D10C4C2368002B00D170BD002005F0E1
:100914004BF900232360F8E7002005F039F9041EA1
:10092400CADDC1E70122034B1A60C5E7008003401A
:1009340080290120682A0320DC29012070B507F0F2
:10094400FDFC074C074D2060FFF78CFF2000296851
:1009540007F0A0FE0028F7D107F0F0FC2060F3E7D1
:10096400A4E600208C97002070B50C006378097809
:10097400A2781B020B43E1781204134309061943BE
:1009840000D10131154802F09BFD154D0600286881
:1009940007F030FB0120312E03D93221300002F060
:1009A4008FFD104B1860104802F0A2FA002005F0E9
:1009B400FBF8002005F06AF863782178A2781B021E
:1009C4000B43E1781204134309061943064802F065
:1009D4001FFA286807F074FB70BDC04600688909D7
:1009E400302A01208C97002000800340064B10B56C
:1009F4001868002901D1002A02D007F061FB10BD5C
:100A040007F0F8FAFBE7C046302A012070B5774CAE
:100A1400200003F035FA2378180901001A01D2B234
:100A240030319F2B00D90731714B10091970002107
:100A34002170010030319F2A00D9D4E059706178C7
:100A44000D0928000A01D2B230309F2900D9BFE035
:100A54000021987010096170010030319F2A00D97B
:100A6400B4E0D970A1780D0928000A01D2B230305F
:100A74009F2900D99FE0002118711009A17001007D
:100A840030319F2A00D994E05971E1780D0928008A
:100A94000A01D2B230309F2900D97FE00021987139
:100AA4001009E170010030319F2A00D974E0D97136
:100AB40021790D0928000A01D2B230309F2961D86A
:100AC4000021187210092171010030319F2A57D872
:100AD400597261790D0928000A01D2B230309F2978
:100AE40044D80021987210096171010030319F2AA5
:100AF4003AD8D972A1790D0928000A01D2B230304E
:100B04009F2927D8002118731009A17101003031E1
:100B14009F2A1DD85973E1790D0928000A01D2B220
:100B240030309F290AD8002198731009E17101001F
:100B340037319F2A00D80739D97370BD0021073097
:100B440098731009E171010037319F2AF4D8F2E754
:100B54000731DFE70021073018731009A171010084
:100B640030319F2AD6D9F3E70731C2E70021073095
:100B7400987210096171010030319F2AB9D9F3E7E5
:100B84000731A5E70021073018721009217101000F
:100B940030319F2A9CD9F3E7073188E700210730D9
:100BA40098711009E170010030319F2A00D87EE766
:100BB400F2E7073168E70021073018711009A170C6
:100BC400010030319F2A00D85EE7F2E7073148E799
:100BD40000210730987010096170010030319F2A9C
:100BE40000D83EE7F2E7073128E7C0461C2A012077
:100BF400382A0320F8B5124F124D7A682B68040086
:100C04000E009A4218D0013253019B1A9900891898
:100C140009010D4802F054FCFFF7E6FC7B682B60E9
:100C2400002C0BD02500082C00D908253178280089
:100C3400FFF7EEFC641B0136002CF3D1F8BDC0466F
:100C4400049C002024E2002040597307F0B5C646F6
:100C54001E4B1F4C150098465A68236807000E0067
:100C640000B59A420DD0013253019B1A990089189C
:100C74000901184802F024FCFFF7B6FC43465B6800
:100C840023603F231C003C403B4200D140243B06F0
:100C94000FD52E002500082C00D908252800FFF7C1
:100CA400D1FC641B30700136002CF3D180BCB846F3
:100CB400F0BD2500082C00D9082531782800FFF75D
:100CC400A7FC641B0136002CF3D1EFE7049C002041
:100CD40024E2002040597307F8B5DE464E464546E7
:100CE4005746674CE0B5674E2368726805008B462B
:100CF4009A420CD0013253019B1A990089180901B8
:100D0400614802F0DDFBFFF76FFC73682360012785
:100D14000124BC46200067462840E9086A08AB085D
:100D2400224023400C404100394397003943DF00FF
:100D3400D31820221B1939431B18270139435B019F
:100D44001340C9B21943802308201943FFF760FCFC
:100D5400FFF792FC307E0330FFF774FCFF2304009E
:100D6400307E1C400441E4B29846012C26D0022770
:100D7400A31EBB43DBB2002B0BD02130FFF762FC78
:100D8400FFF78EFC2000F0BCBB46B246A946A04645
:100D9400F8BD737E002B42D02F4268D1FFF752FC7E
:100DA400FFF77EFC737E002BECD000212020FFF7A0
:100DB4002FFC00210120FFF72BFCE3E7AB0738D41D
:100DC400FFF740FCFFF76CFC5B461F6820203900EE
:100DD400FFF71EFC380002F03BFB0100012021401C
:100DE400FFF716FC2B0602D5284B9B6AB360367BB3
:100DF400002EC7D03000202E0DD935000021202030
:100E0400203DFFF705FC202DF8D83000213840099B
:100E14004001203E301A0021FFF7FAFBB2E7FFF74A
:100E240011FCFFF73DFC737E002BABD02F42A9D100
:100E3400BBE72020FFF706FC81460120FFF702FCF8
:100E44008246484602F004FB434652461340434060
:100E54001C4200D007345B46002B02D04B465A4656
:100E64001360307EFFF7EEFBFFF71AFCBAE7212090
:100E7400FFF7E8FB307EFFF7E5FBFFF711FC81E7A6
:100E840024E20020049C00204059730700400540E0
:100E9400F0B5DE4657464E464546E0B503780400B5
:100EA4001A00803AD2B28B468BB01F2A09D90A00A5
:100EB400013201920B701D2B0ED8CD499A008A582D
:100EC400974600F0C7FD040020000BB0F0BCBB4601
:100ED400B246A946A046F0BDFF235A46C54C13703E
:100EE400F2E702235B445A46994600235370427842
:100EF400831C571E002A38D0012292463E32012517
:100F0400934612E0FFF7CCFB4A4641462000FFF728
:100F14009DFE002F00D18FE1434601359B19AD1989
:100F24007A1E002F00D199E117005A1C1C789046B4
:100F34005B465A4608262340224201D00733DE0886
:100F440063B2002BDEDAFFF797FB4A4641462000E6
:100F5400FFF77CFE002F00D194E143460135B144F4
:100F6400B244DDE7FF235A465370A34CACE7FF239A
:100F74005A46447853709F4B01209C460134240404
:100F840004436444A0E7FF235A4653704378811C0A
:100F9400581E002BE9D001233F252A000C7822405B
:100FA400254200D142E10732D208013289189B1848
:100FB4000138F2D21C0401231C438E4B9C4664442A
:100FC40082E7032243788D491A405B070132DB0F25
:100FD4000A764B765A460023874C537074E7811C7B
:100FE4004078002800D150E10123C41DE4080134F5
:100FF40024041C437F4B9C466444FFF7FBFD002301
:101004005A46537060E77D4B1B78012B00D10EE3E9
:10101400FF235A467A4C537056E782784178C37856
:1010240012020A4301791B041A430906114300D131
:101034003AE1744B994200D83BE101226F4B5A705C
:101044005A6000235A46704C53703DE700246B4BA2
:101054001C70FFF7C1FB5B465C706C4C34E7437853
:101064000024012B07D80122644B1A70FFF73CFBC4
:10107400674B1C6001345B465C705F4C24E70023C3
:101084005A46644C937053701EE78278417812027A
:1010940011434A01521A93005B18013BFDD100230E
:1010A4005A465D4C53700FE70179C37842790902BF
:1010B40019438379120411431B060B4332D00224D3
:1010C400042620258278417850B281465348144042
:1010D400019416401540834200D903004C08A046F1
:1010E4008C08A4464E484C09A246CC09876A02944F
:1010F400D40700D5EDE0029C002C00D047E3414624
:10110400002900D15CE36146002901D000F03CFCD9
:101114005146019C002C00D033E3002D02D000295D
:1011240000D02EE300235A463E4C5370CCE6431CB9
:101134000693324B99461B78012B00D1D1E082787B
:10114400C31C002A00D190E00220102406E00C42C7
:1011540007D10133013A002A00D186E01978084208
:10116400F5D10533F6E7437824495A460B73E378FF
:1011740080781B0203430B82637920791B020343AB
:101184004B8200231E4C53709EE61C4B99461B78E1
:101194000593012B00D15EE200235A4603205370CD
:1011A4009370D37023799B0773D58024114BE40289
:1011B4009C460443644487E64378012B00D86EE7D9
:1011C400FF235A46144C53707EE64278F12A00D12C
:1011D400C2E234D8042A00D1B5E2F02A01D000F0EA
:1011E40021FC31235A46104C9370303B08E7C0462B
:1011F400549400200100010002000200049C00201D
:10120400020006009FACB9030200050002000100C1
:1012140024E200200300010002000300C0C62D00E8
:1012240000400540020007000300020009310933B1
:10123400013800D3B1E6BDE6FFF732FA6CE6FE2AC8
:1012440000D195E2FF2A01D000F0ECFB40235A467E
:1012540093700023C84CD3700233D1E653462C0458
:101264001C43C64B9C4664442EE6002259464A70F1
:101274008A70069A02209C1AC04B24049C4604439C
:10128400644421E6FFF70CFA67E68020BC4C40007A
:10129400B3E6BA4BA1789C46E47824020C430134AB
:1012A400A404044364440FE6FF235A46B54C537028
:1012B4000AE6B54B994600234A465370B34BC81807
:1012C40002F0FEF8431E5A1E9341C01A4B46586062
:1012D400B7E6002900D125E7826AD21B9342FBD8E6
:1012E40020E75B46033305930023A94DC61C2B70EE
:1012F40083780393002B00D190E3002300209846C9
:1013040007930293731C9A460493022337783B4253
:1013140000D1A1E04346002B2AD04B461C8A11235E
:101324003B40012B08D184E0002C00D121E12B7833
:10133400013C002B00D01CE10E2009A9FFF7CCFCD6
:101344000228F1D00023984601285CD1099B059915
:101354001A0A0B704A701A0C1B0ECB7043468A7023
:101364000A1D002B03D07BB24046002B68DB05929C
:10137400FB0600D4ABE053465A78197812021143A5
:1013840052469B78D2781B040B4312061A43731DF2
:1013940004934B4692465E8AFB0710D54B461C8A43
:1013A40005E0002C2FD02B78013C002B2BD1002101
:1013B4003800FFF791FC0228F3D0012823D14B46D3
:1013C4001C8A07E0002C00D120E12B78013C002B83
:1013D40000D01BE1380009A9FFF77EFC02000228B7
:1013E400F0D0012800D011E14A46099B526913400C
:1013F4009A4500D117E1002E00D112E12B78013E6D
:10140400002BDCD0103002221021049E039B05E047
:10141400214206D10136013B002B46D034782242CA
:10142400F6D10536F7E7002CEDD02B78013C002BE4
:10143400E9D1380009A9FFF74FFC0228F3D083E76C
:101444004B469B681A0A0B714A711A0C1B0E8A715F
:10145400CB71083105918BE74346002B00D099E00E
:101464005246534651781B780902194353469278E1
:10147400DB781204114320221B060B430993053623
:101484003A4200D1A6E04A4653610023012098461F
:10149400029B013302932B78002B00D0ABE1039B1A
:1014A400013B0393002B00D02CE7012800D102E27A
:1014B4005B46029A98705A70069B019AF41A059B2F
:1014C40024049B1A1C432D4B9C466444FCE44B4669
:1014D4001C8AFB070CD54346002B36D00023564606
:1014E4000793D5E7002C8ED02B78013C002B8AD1B2
:1014F400380009A9FFF7F0FB0228F3D0012882D1B4
:101504007FB2002F0BDA4B469B6805991A0A0B70C1
:101514004A701A0C1B0ECB700B1D8A700593099B25
:1015240005991A0A0B704A701A0C1B0ECB700B1D0E
:101534000593002356468A700793A9E7002C18D018
:101544002B78013C002B00D05DE700213800FFF729
:10155400C3FB0228F2D0012800D054E77FB2002F49
:1015640000DACDE1002307930133984656468FE70E
:1015740004960023984646E7040002000100010097
:101584000200220002000500049C00209FACB90365
:10159400282B03204B461C8A07E0002C00D132E79D
:1015A4002B78013C002B00D02DE70E2009A9FFF772
:1015B40093FB0228F1D0012800D024E7099B059968
:1015C4001A0A0B704A701A0C1B0ECB700B1D8A7012
:1015D400059345E74B461B8A1C0006E0002C00D10E
:1015E400CCE02B78013C002BC2D1380009A9FFF7CD
:1015F40073FB0228F2D00128BAD17FB2002F00DA9F
:1016040090E0012307930023984641E74946099B4C
:1016140049690B409A4500D1F5E610201043C0B249
:10162400F1E61120EFE60023049E079330E7C27829
:10163400837812021A43037909A91B041A434379D4
:1016440000201B0613430993FFF746FB00235A4669
:10165400BF4C537038E45B4604339846049300232C
:10166400BC4D82782B70C3781B021343039300D1C3
:101674001DE10779BB0700D5BFE0431D9A4600234F
:10168400029309AB2C0080461D0052465346527803
:101694001B7812021A4353469978DB7809040A43EB
:1016A4001B061343099304239C464B46E2441E8ABB
:1016B40005E0002E30D02378013E002B2CD12900E8
:1016C4003800FFF709FB0228F3D0012824D1029B3C
:1016D40001330293039B013B0393002BD5D14B466B
:1016E40025001E8A444605E0002E09D02B78013ED1
:1016F400002B05D100210E20FFF7EEFA0228F3D0CB
:10170400029BDAB21B0ADBB259464A708B70019A0B
:10171400049BC870981A45E5029B4446DAB21B0A3A
:10172400DBB2F1E74B469B6805991A0A0B704A70C5
:101734001A0C1B0ECB70012307930B1D059300237A
:101744008A709846A4E65B460622981C824902F0F9
:10175400C7F9824C062353E45A464023937002335C
:10176400D370333B137100237D4C5371043347E42E
:1017740002235A467B4C9370013B41E4A0460496F5
:1017840041E6826AD21B9A4200D2C3E4CAE45146BB
:10179400002900D0E8E04246002A00D10DE1494684
:1017A4006546019C002C06D1002E01D0002D02D1EB
:1017B400002900DBB6E4826AD21B9A42F2D3B1E478
:1017C40052466146002A0AD1002E00D1AAE400291B
:1017D40000D1A7E4826AD21B9A42F5D3A2E4002E78
:1017E40001D0002902D1002D00D19BE4826AD21BD2
:1017F4009A42F4D396E4049605E6059B3B4213D043
:101804004B461E8A07E0002E00D1E6E02B78013E0D
:10181400002B00D0E1E000213800FFF75DFA022838
:10182400F1D0012800D0D8E0039BC246013B0293CB
:101834000023039309ABA0462C001D0053460493D8
:10184400029B002B2ED04B461E8A05E0002E23D08F
:101854002378013E002B1FD129003800FFF73CFA02
:101864000228F3D0012817D152465146099B137020
:101874001A0A4A701A0C8A7004229446049A1B0E9F
:10188400D370039B029A01330393E244531E002A4C
:1018940000D1A5E00293D1E7039B4446DAB21B0AC8
:1018A400DBB231E701333B42CDD00E27CBE700203A
:1018B4000023002228E74346002B33D04B461C8AE2
:1018C40009AB1F0007E0002C00D1F1E52B78013CA7
:1018D400002B00D0ECE539000E20FFF7FDF90228BB
:1018E400F1D0012800D0E3E5099B05991A0A0B7091
:1018F4004A701A0C1B0ECB700B1D8A700593D7E52A
:101904004B469B6805991A0A0B704A701A0C1B0EF9
:10191400CB7000230793013398460B1D56468A70FB
:101924000593B5E5079B002B00D1C1E54B461C8A06
:1019340007E0002C00D1BBE52B78013C002B00D044
:10194400B6E500210E20FFF7C7F90228F1D0AFE574
:1019540002000600282B03204C94002008000200FB
:1019640006000200030002006146002941D14946F5
:101974004646019C002C1AD0002E18D0826AD21B35
:101984009342F7D8FFF7CEFB062154460A40002ABB
:1019940007D1002D01D1FFF7C5FB002C01D1FFF7C2
:1019A400C1FB816AC91B8B42F1D8FFF7BBFB002D39
:1019B400E4D10029E2DBFFF7B5FB49466446002E7B
:1019C40001D0002C03D1002901DBFFF7ABFB826AB5
:1019D400D21B9A42F3D3FFF7A5FB00231A0093E628
:1019E4005146039B4446DAB21B0A0598DBB20491C4
:1019F4008AE624214D464646019C0A40002C07D025
:101A0400002E05D0816AC91B8B42F7D8FFF78AFBE9
:101A1400002AF7D1002DF5DBFFF784FB0023180023
:101A2400029345E5014CFFF7EBFAC04602000200C1
:101A34003D21074B10B55960002100221973642120
:101A44001A805A61013219611A83FEF73DFE10BDF6
:101A5400049C0020037801480B70704701000100CA
:101A6400024B9C4661448900016070474000003489
:101A74000021044B044ABFF35F8F02C39342FAD19F
:101A84007047C046000100D0800100D0044A10789D
:101A9400431CDBB2172B00D9102313707047C046C8
:101AA4009097002000B5054B83B0010000931822E5
:101AB4001F23034800F03EF803B000BDCC9400207F
:101AC40028E20020EFF3108072B6034A1368002B5B
:101AD400FCD0BFF35F8F70472C0100D0BFF35F8F42
:101AE4000022024B1A6080F3108870472C0100D04A
:101AF40070B5EFF3108C72B60D4D2B68002BFCD033
:101B0400BFF35F8F0724CB08C618C05C01230C40C9
:101B1400A3401C000440034207D103433370BFF3C6
:101B24005F8F2C608CF3108870BD100001F06CFA8C
:101B34002C0100D0F8B54746CE46884680B5EFF371
:101B4400108C72B6214D2C68002CFCD0BFF35F8F33
:101B54009A422CD8D4080727055D0619012417409A
:101B6400BC402C421FD007210127894609E0D40834
:101B7400055D06194C4639001440A1400C00294269
:101B840011D001329342F2D201204042BFF35F8F61
:101B940000220E4B1A608CF3108800280FDBC0BCA7
:101BA400B946B046F8BD2C4310003470EEE7BFF3DD
:101BB4005F8F00232B608CF3108801204042434642
:101BC400002BECD0089801F01FFAC0462C0100D07D
:101BD400024B18688007C00F7047C04600C006401B
:101BE4008023DB051868000F7047C04683680B48E4
:101BF40010B5844661446244090112019A185918C7
:101C040054684B6801209C4201D802D00020C0B225
:101C140010BD12680B689A42F9D8F7E7FFFFFF0F6F
:101C2400074810B50268EFF3108172B61368002BF1
:101C3400FCD0BFF35F8F05F0EFFA0020002110BD48
:101C4400C4290120F8B557464E464546DE46E0B560
:101C540099460CAB1C780DAB1B78060090469A464F
:101C64000768002C11D1BC7B002C42D065003B6876
:101C74002D19033D59194B78BB73002B00D1FB730D
:101C840000238B704B700B7004E065003B682D19CA
:101C9400033D5919B2682A4B94464246E3181B0186
:101CA40063441A604A465A600A9A9A600B9ADA6048
:101CB40000238B704B700B707B7B9B46002B2BD0CF
:101CC40022005946B8687B6898473A68002816D0BD
:101CD4005B4658465B005B445519033BA870D1181A
:101CE400D35C002B00D06B705B460C707B73A345F8
:101CF40013D0F0BCBB46B246A946A046F8BD5B462D
:101D04005B005B44033BD3189C705119525D002A5D
:101D140000D05A705B460B707C7342464B46307D54
:101D240000F0CEFB051E06D05346002B03D1210044
:101D3400306800F0E7FD0E9B002BDAD01D70D8E769
:101D4400FFFFFF0FF0B5DE464E46574645460023DB
:101D5400E0B58DB00A936B4B8200D3580B90994633
:101D640000239B464B46079300F030FB079C06007C
:101D74000F006268EFF3108572B61368002BFCD075
:101D840022000794BFF35F8F2468637B9946002B7E
:101D940067D092685C4B90464B441B019844434681
:101DA4001A685B6810001900801BB94100295FDDC7
:101DB4000B9800F085FB00230026984600279A46DE
:101DC400079C6368BFF35F8F5A461A6085F31088D7
:101DD4005346002B08D10028C6D10DB0F0BCBB4639
:101DE400B246A946A046F0BD0A9B414618024B469E
:101DF4001843D047089009916268EFF3108572B6D2
:101E04001368002BFCD00794BFF35F8F0899099ADD
:101E1400002A48DB114303D0079B1B69002B5DD1CB
:101E2400079B1B68D97B002907D04A005218196800
:101E34008C4649466244033A51704A46DA734B462B
:101E4400079A013BD168CA5C0132CA545B46079ABF
:101E540013615368BFF35F8F5A461A6085F3108885
:101E640082E700230026984600279A460020A7E729
:101E7400002901D100289BD10021200000F0C4FCDE
:101E840043461E685F689B68079A9A464346DB6828
:101E94009846D3684B44013B1B780A931B020343C7
:101EA400136100208CE72369002BB9D033003C0078
:101EB4005B1A94411A002300A74219D89F421BD0F1
:101EC40059460491012103914946029141460191E9
:101ED400514607980091FFF7B5FEB7E700F076FA90
:101EE400089A099B06000F0092197B419942E5D993
:101EF40001225242D317E3E79642E1D9012252422A
:101F0400D317DDE7B8E60020FFFFFF0FF8B557460B
:101F14004E464546DE46E0B5404D81468A466A68EF
:101F2400EFF3108872B61368002BFCD0BFF35F8FF9
:101F34002E68B47B002C39D0670033683F19033F07
:101F4400DB195A78B273002A00D1F273A968344AB3
:101F54008C464946A21812016244116051465160F0
:101F6400304991600021D160997059701970737B68
:101F74009B46002B35D022001900B068736898473F
:101F84003268002820D05B4658465B005B44D71972
:101F9400033BB870D118D35C002B00D07B705B4638
:101FA4000C7073735C451DD0002626E06B68BFF38C
:101FB4005F8F1C6088F3108801204042F0BCBB4650
:101FC400B246A946A046F8BD5B465B005B44033BB2
:101FD400D3189C70D119D25D002A00D05A705B4688
:101FE4000B7074734A465346287D00F069FA061E46
:101FF400DAD02100286800F085FCEB681B19013B4E
:1020040019786B68BFF35F8F00221A6088F3108819
:102014000020002ED2D108022043CFE7949700205D
:10202400FFFFFF0FE119002010B5124C6368002B6D
:1020340004D00A211048FFF713FD10BD23000F4AF6
:102044001021206800F0FEFA032000F0B3F9032009
:1020540000F0A6FA03200A4900F0ECF9FFF716FD98
:10206400084B9C46032360442375074B8000606043
:10207400DC60DEE794970020C4290120AD1900201C
:10208400051B002040000034B8E6002000487047DB
:1020940094970020F0B557464E464546DE46E0B5D7
:1020A40085B0019310AB1B780600039300239A4676
:1020B400984600927268EFF3108972B61368002B89
:1020C400FCD0BFF35F8F3568AC7B002C49D0670030
:1020D4002B683F19033FDB195A78AA73002A00D1F1
:1020E400EA73B1684F4A8C4600980199A21812010C
:1020F4006244106051600E9991600F99D16042461C
:102104009A705A701A706B7B9B46002B45D0220044
:102114001900A8686B6898472A68002830D05B4685
:1021240058465B005B44D719033BB870D118D35CA5
:10213400002B00D07B705B460C706B735C452DD01C
:10214400F3681B19013B18787368BFF35F8F42462D
:102154001A6089F310885346002B2CD100022043C7
:1021640007E07368BFF35F8F1C6089F31088012058
:10217400404205B0F0BCBB46B246A946A046F0BDFD
:102184005B465B005B44033BD3189C70D119D25D62
:10219400002A00D05A705B460B706C73307D009A35
:1021A400019B00F08DF982460028C9D021003068D7
:1021B40000F0A8FBC4E7039B002B30D00E9B00204B
:1021C4000F999847030004000D000B4327D0002902
:1021D4000DDA0098019902000B00121BAB419942E1
:1021E40013D818D000920193039B9A4662E700F03B
:1021F400EDF802000B00A4185D4100940195A9427A
:1022040003D8F1D100998A42EED901235B42DC174D
:1022140000930194E8E700999142E3D9F5E700209F
:10222400A7E7C046FFFFFF0FF8B5CE46474680B587
:1022340006000C00FFF76AFE00280CDC2D4B002082
:10224400596A8C4203D89B6A0130B34245D3C0BC5F
:10225400B946B046F8BD20BF274D6A68EFF3108732
:1022640072B61368002BFCD0BFF35F8F2B68C1B22A
:102274009C465B7B8B4235D0FF2303405A0091463A
:1022840062461268994490464A464244033A927818
:10229400002A1DD0EA68000A90464344013B1B789B
:1022A400C0B2834221D06B68BFF35F8F00221A60F3
:1022B40087F310880F4A0020536A9C42C7D8926A59
:1022C4000130B242C3D2E01A421E9041C0B2BEE70E
:1022D4002B699842E7D12A61E5E7601A431E9841C9
:1022E400C0B2B4E7FF230340D4E7604600F00AFB22
:1022F400D9E7C0460040054094970020F0B5D64683
:102304004F464646C0B5EFF305833F2213401800FD
:102314001038EFF3108C72B6204D2A68002AFCD0D6
:10232400BFF35F8F0122110081401D4C8846616319
:102334001C4917000E788A463100C1400F400A42FA
:1023440009D1BFF35F8F2F608CF31088E0BCBA46CD
:10235400B146A846F0BD14498200646A51588C42C3
:102364000FD3124BD25843469E4353461E70BFF3BD
:102374005F8F00232B608CF31088002AE6D09047EF
:10238400E4E70B4A9B00904643441A681A60BFF383
:102394005F8F00232B608CF31088D7E7280100D0CF
:1023A400004005402E2B0320C829012014E1002001
:1023B400D03F054010B50100024A0348FFF798FBDF
:1023C40010BDC046E89400202C2B0320034B596A0F
:1023D4000A00986A596A8A42FAD170470040054057
:1023E40070B504000D00124A536A1900966A536AC4
:1023F4008B42FAD13000190024184D41AB4211D858
:102404000ED02B000A494A6A9A42FCD307D1084AE3
:1024140002E0516A994202D1916AA142F9D370BD96
:10242400A642EED9012301246442E5175B42E9E7A1
:102434000040054070B504000D00EFF3108672B63D
:102444001A4A1368002BFCD0BFF35F8F002D1BD0FA
:10245400200000F0D5FA164981420AD0200000F08D
:10246400D7FA0121200000F0B9FA0123A340114A50
:102474001360114BA400E550BFF35F8F00220B4B98
:102484001A6086F3108870BD0B4BA200D550012250
:10249400A2400A4920000B7893430B70044900F0D2
:1024A400E1FA0021200000F099FAE5E7280100D0C4
:1024B400BD2000203860054014E100202E2B0320AD
:1024C400F0B54F46D6464646C0B507002F4C616A64
:1024D4000D00A66A616AA942FAD18B4208D805D0D8
:1024E4000120E0BCBA46B146A846F0BDB242F7D9D5
:1024F400EFF3108A72B6264801680029FCD0BFF3B6
:102504005F8F0125BD402349204C884609788946C0
:102514002943C9B28C46414660460870391D1E489D
:10252400890065630A51B9000B50216A00202942D1
:1025340019D0616A0800A66A616A8142FAD18B42A5
:1025440019D801D1B24216D8CC451DD00F4B1F204B
:102554001D625D6301230740BB40104A1E381360AF
:1025640043464A461A70BFF35F8F0022084B1A6035
:102574008AF31088B5E70020BFF35F8F0022044B75
:102584001A608AF31088ACE70120ECE700400540AC
:10259400280100D02E2B0320C829012080E200E06E
:1025A400EFF3108C72B60A490B68002BFCD0BFF312
:1025B4005F8F01238340074A0748136202789A43D6
:1025C4000270BFF35F8F00230B608CF31088704799
:1025D400280100D0004005402E2B032070B50500D3
:1025E40014001600002915D00C00002A12D08068AF
:1025F4006B689847296800280ED073009B19620005
:10260400033B1219CB18033A9C7088188A5C002A81
:1026140015D10670200070BD63001B197200033BC6
:102624009219CB18033A9E7088188A5C002A02D14A
:1026340004703400EEE75A7004703400EAE75A700C
:102644000670E7E730B583600023CCB243730133EF
:10265400047342608373C4730D000068012C06D9AF
:10266400421C0133DBB2137003329C42F9D1FF21C7
:1026740029404B005918002340180338437030BDDB
:10268400F8B5CE46474606000C0080B5002907D0B1
:102694004D0003686D18033D5A195778002F04D173
:1026A4002000C0BCB946B046F8BD7900C919033949
:1026B400884643445978894600215970517073689B
:1026C4003A002100806898473368002814D04246B5
:1026D4009A18947059195B5D002B00D053700F70D9
:1026E400270049463000FFF7CBFF390002003000D5
:1026F400FFF774FF0400D3E7424641465D19AF700B
:102704009A185B5C002B00D06B701470E9E7C0462C
:10271400F0B557464546DE464E46E0B50D006B0023
:1027240001685B19DF1E0400C85D83B00192CA19F9
:1027340000284CD043001B18033BCB185E78B446EA
:10274400002E16D1019E002E3ED0E67B002E04D032
:1027540073009B19CB18033B5D70E57300282FD1E0
:102764000023537003B0F0BCBB46B246A946A04652
:10277400F0BD72006244033A89184A7890460022F8
:102784004A7091465A70010032002000FFF726FF7C
:1027940043468246002B07D05B0021684344033B39
:1027A400CB185A78002A16D1424651462000FFF72A
:1027B40015FF2168019BCA19002BC6D10028CFD070
:1027C40043001B18033BCB1800219970C8E7019BF9
:1027D400002BBAD1C4E75000801803380918487890
:1027E400834648464870587041462000FFF7F6FE7D
:1027F400594680462000FFF743FF4146020020006F
:10280400FFF7ECFE8046CFE7F0B557464546DE4677
:102814004E46E0B583B00191457B04006B0000682F
:102824005B19DF1EC15DC21900294ED04B005B1835
:10283400033BC3185E78B446002E18D1019E002EC7
:1028440040D0E67B002E04D073009B19C318033BD1
:102854005D70E573002931D1002328005370617342
:1028640003B0F0BCBB46B246A946A046F0BD720018
:102874006244033A8018427890460022427091469E
:102884005A7020003200FFF7A9FE43468246002B0F
:1028940007D05B0021684344033BCB185A78002AD5
:1028A40017D1424651462000FFF798FE019B0100D4
:1028B4002068C219002BC4D10029CDD04B005B186D
:1028C400033BC31800209870C6E7019B002BB8D1C6
:1028D400C2E75000801803380918487883464846F0
:1028E4004870587041462000FFF778FE59468046EC
:1028F4002000FFF7C5FE414602002000FFF76EFEF0
:102904008046CEE770B5040000292CD0437B8B426F
:102914002ED0056848004018033828188278002A09
:1029240021D053009B18033BEA5CEE188A4202D183
:102934001BE0002A08D053009B18033BEB185A787D
:102944008A42F6D142785A70002301228370437080
:102954002000FFF7DDFE617B02002000FFF73EFE52
:102964006073012000E0002070BD43783370EBE712
:1029740001221900FFF7CCFE60730120F4E7C04682
:1029840010B50400FFF782F801002000FFF768F893
:1029940001235B426360BFF35F8F10BD10B5040079
:1029A400FFF774F801002000FFF75AF801235B4297
:1029B400636000232372BFF35F8F10BD10B5040062
:1029C4000120FFF76FF8044B9C46604480002060B0
:1029D400BFF35F8F10BDC046400000340123834025
:1029E400002904D0034A1360034A13607047034A62
:1029F4001360FBE780E200E000E100E080E100E03A
:102A0400024B10309B688000C058704700ED00E016
:102A140070B50D00EFF3108672B60F4A1368002BE1
:102A2400FCD0BFF35F8F0D4B10309B6884001B59A3
:102A34000B4A934203D09D4201D000F003FB074BA5
:102A44009B681D51BFF35F8FBFF35F8F0022024B62
:102A54001A6086F3108870BD240100D000ED00E0F8
:102A6400CD010010F0B5DE4657464E464546E0B56A
:102A74000C0083B0EFF3108A72B65A4A1368002B25
:102A8400FCD0BFF35F8F1022914681444A46564BD7
:102A940096009B689D59554B98469D4205D0A5428A
:102AA40016D0534FEB1B2F2B14D94F4B9B689D51C2
:102AB400BFF35F8FBFF35F8F00224A4B1A608AF324
:102AC400108803B0F0BCBB46B246A946A046F0BD90
:102AD4001D00EAE7012383409B465A46454B1B6889
:102AE4001A4000925A46444B1A60BFF35F8F06F0B7
:102AF40067FB0190002803D0814501D000F0A2FAC1
:102B040001232A009A4393689C4208D15FE04B005A
:102B14005B189B00FB189968A14211D01A0006218A
:102B240051560029F3DA009B002B05D05A46334B4B
:102B34001A60304B1A60B8E75A462F4B1A60B4E754
:102B440006215956002921DB4A00501880003C1800
:102B54008046A0689860E079D87106202056987164
:102B6400002824DBA488F81A6405241544440019B9
:102B7400E0240005400D2402204398805218204B85
:102B84009200BF181A781970BA71CCE7019900291C
:102B940010D1FF3191711B49918019490A789A71BA
:102BA400194ADB1B5B415A43120D0A70BBE7BD2077
:102BB4000002E2E7154A1649D21A083A5002400DBB
:102BC40001439980134952080A43DA80ABE706218E
:102BD400515613000029B7DA019A002AEAD1454672
:102BE400DBE7C046240100D000ED00E0CD01001079
:102BF400BC97002000E100E080E100E080E200E01A
:102C04002D2B032000BDFFFFAAAA0000F697002089
:102C140000F0FFFF00F8FFFF032310B50400074A8C
:102C240018409446C0009C43FC33834064442268AB
:102C340081409A4313000B43236010BD00E400E07D
:102C4400F8B501250400054306F0BAFAEFF3108C39
:102C540072B6214A1368002BFCD0BFF35F8F1F4E5E
:102C64002100B7681E4A1F4B891A49414B431B0D6B
:102C740059B28300F858A8421CD00623D3568B427D
:102C84001CD01223D3568B4222D01E23D3568B4200
:102C940020D02A23D35603208B4210D0124B1A780B
:102CA4001970A271BFF35F8F00220B4B1A608CF373
:102CB4001088F8BDB2680D48D050EFE700204300FB
:102CC4001B189B00D218FF239371094B9380E5E7EF
:102CD4000120F4E70220F2E7240100D000ED00E037
:102CE400BC970020AAAA00002D2B0320CD010010C0
:102CF40000BDFFFF054B064A1360064A136053608C
:102D04009360D360136153619361704780808080C6
:102D140000E400E004E400E0094A83009446402211
:102D2400634410B51C68C0006240C0241440802273
:102D3400520113431C60034B9C466044416010BD28
:102D440004C0014000400140034BC0009C46604465
:102D540043681F2018407047004001400A4B800020
:102D64009C4604236044002901D00C230821002A36
:102D740000D10B00026853400C221A4080235B01EF
:102D8400184302607047C04604C00140074BC000AE
:102D94009C466044036809045940C0239B021940BF
:102DA40080235B01184301607047C0460440014022
:102DB400074BC0009C466044036809035940C02384
:102DC4009B01194080235B01184301607047C04692
:102DD400044001400123D022834012069362936190
:102DE400094A83009446402263441968C0004A405B
:102DF400C02111408022520113431960034B9C46A9
:102E0400052360444360704704C001400040014012
:102E1400F8B5040006200D0000F078FA002844D02C
:102E24002A4B2B49E21853425A418023DB039C4628
:102E34009205284B62441A60274B1A6010008B6875
:102E44009843FBD1214B8021E3185A425341234A32
:102E54005B0049009952062000F058FA2900C0008E
:102E640000F02EFBC30921D1402701212600802533
:102E74006162A36200232C36AD0135432B6006202A
:102E840000F044FA3900800000F01AFB6023E26A83
:102E940053406E221A4080235B0133431A60104B67
:102EA400236310232B600D3BA364F8BD0D4A9342AA
:102EB40003D900230C4F0D49D8E77F22104001307D
:102EC40040089F0119003F180300CFE70080FCBFB2
:102ED40000C0004000E0004000F00040242A01202F
:102EE40001030000FEFF0000C0FF3F00FFFF0000E1
:102EF400064B9C466044434258418023DB039C4676
:102F04008005034B604418607047C0460080FCBFD6
:102F140000E000402C4B2D4A70B51A602C4A2D4B12
:102F24002D491A6014008B689C43FBD12B4D2C4E09
:102F3400B54208D2013E761BB60808CD9847230057
:102F44000134B342F9D100F083F8264A214B1A60C8
:102F5400214A9368DB43DB01DD09002BF9D14022D0
:102F6400214B224C224E9A675A671A67DA66B4429A
:102F740008D223682000002B20D00C34FFF70EFD6C
:102F8400B442F6D31B4E1C4CC022A168300000F0A2
:102F9400A7FDA660FEF76CFDFFF7ACFEFFF744F853
:102FA400164C174EB44208D2013E361BB60808CC64
:102FB40098472B0001359E42F9D170BD0834FFF7C4
:102FC400DFFCB442D5D3DDE700E00040BFCDFBFE1B
:102FD400FE7F3C0000F0004000C0004088980020C4
:102FE40098980020FFFFFF0100F00140789800202E
:102FF400889800200000002000ED00E09898002050
:10300400A498002000BEFDE70FB400B5084883B0C3
:1030140000F09AFE049B002B07D005A9180001912B
:1030240000F0F6F9034800F08FFE00BEFDE7C0464D
:103034000C9500202C92002010B50148FFF7E4FF06
:103044001C95002010B50148FFF7DEFF2C950020E9
:1030540030B50C2083B000F0B7F9FEF7B9FD0028B5
:103064000ED0944B944A1A605A609A60DA601A61DE
:103074005A619A61DA611A62904A5A6203B030BDA9
:103084008F4CA06700F0A8F901228E4B1A60636C84
:10309400012BFCD103228C4B1A60894A936B012BC0
:1030A400FCD101330121894A89480093043300F09B
:1030B40033F90523874A00930121874800F02CF94E
:1030C400864B5A68FF2A02D8802252005A60802216
:1030D400784C7D4B21691201804D1A60002905D07E
:1030E400606900F0EDF901300138FDD1E0217B4B3E
:1030F40002201A681140802252012A431160196883
:10310400484003210140116004219A681142FCD017
:103114008022802192012A430901116080225200F9
:103124005A606F4B23616F4B5968FF2900D85A606E
:103134000321644A6B4B116002399A681142FCD036
:10314400E0201A681040802252011A431060186867
:103154004840032101400220116062498A681042FC
:10316400FCD0802292011343802212011A60802233
:103174005D4B52004A6063615C4B5968FF2900D87B
:103184005A6080225A4BE1691201584D1A60002995
:1031940005D0606900F094F901300138FDD1E022D6
:1031A40052490B681A4080235B012B431A60802329
:1031B40080229B012B4312011A6080223E4B520055
:1031C4004A60E3614B4B5968FF2900D85A6080225A
:1031D400494B216A1201474D1A60002905D06069E4
:1031E40000F06EF901300138FDD1E02241490B684D
:1031F4001A4080235B012B431A60802380229B01A9
:103204002B4312011A60802380225B004B602A4BFF
:10321400D2022362394B5968914200D25A6080220B
:10322400374B616A1201354D1A60002905D0606977
:1032340000F046F901300138FDD1E0222F490B6836
:103244001A4080235B012B431A60802380229B0158
:103254002B4312011A608023DB024B60174B63621D
:10326400284B5A68FF2A02D8802252005A608022D2
:10327400254BA1691201234D1A60002905D060690C
:1032840000F01EF901300138FDD1E0221D490B6820
:103294001A4080235B012B431A60802380229B0108
:1032A4002B4312011A6080235B004B600E4BA36119
:1032B400E4E6C0462CE20020006CDC021BB70000F0
:1032C400008000403CB0004030B00040002F6859FE
:1032D40000800240008C864700C0024030800040DD
:1032E400001BB7003C8000404059730754800040E5
:1032F40054B000406080004060B000406C800040EA
:103304006CB000404880004048B00040014B800051
:10331400C05870472CE20020F0B5C646040000B542
:103324000C2090461F000E0000F0CAF84101091A53
:103334008D01691AC90009188901404600F0C0F8D6
:10334400069B3F041A0323681743002B22DB1A4B06
:103354001A4DE21853425A4180235B019C461203E2
:10336400174B62441A60174B1A601100AB689943FB
:10337400FBD1C022231D92011A4321232660A060A1
:1033840013602368002BFCDA0823E760136080BC19
:10339400B846F0BD3F2322681340B342D7D1A36897
:1033A4001B051B0D8342D2D1EE22E368D2021340E7
:1033B400BB42CCD1EBE7C0460040FDBF00C000409B
:1033C40000E0004000F000408023024A9B000343D9
:1033D400D362704700800540AA23064A1B0113608C
:1033E4002F230549D360054B19605368002BFCDA81
:1033F4007047C0460040024000B0FA00006002403E
:1034040010B5002800D110BD00F04EFCFBE7C0460B
:1034140010B5094A0300146884B0002C08D00122B6
:1034240000910648524203A9A047012004B010BDF0
:1034340000F08AFC0020F9E7A8E60020C131002052
:1034440001480421014B1847109800203D32002008
:10345400014B1B681847000010980020142310B576
:103464000100188804331B88984710BD162310B533
:103474000100188802331B88984710BDF8B54746E9
:10348400CE4680B50F1E19D0142399460433040088
:103494000025012698464B461888434621681B8818
:1034A400984701C4431E9841013540420640AF424B
:1034B400F1D13000C0BCB946B046F8BD0126F8E7EA
:1034C400114A936F9B0813D210665166002905D0E8
:1034D400FFE7FFE7FFE7516F106F704704B500285F
:1034E40001D00020C04305F037FE002104BDC046D2
:1034F400F0B5146E556E576F166FFFF7E5FF14663F
:10350400556657671667F0BD000000D094464E4AD2
:10351400926F9208624601D230E0C046F0B54A4E3E
:10352400B56F6D08FCD3346E756E776F366F00F02F
:1035340025F89446444A14665566576716676246EA
:10354400F0BDC0469446404A926F9208624601D24A
:1035540058E0C046F0B53C4EB56F6D08FCD3346EF0
:10356400756E776F366F00F04DF89446364A1466E0
:103574005566576716676246F0BDC046002B24DBCC
:1035840011D000293EDA00B5C943404200D10131CF
:1035940000F038F8C943404200D10131DB435242C4
:1035A40000D1013300BD002AEBD1002801D100294C
:1035B40005D00020C90FC90701D1C043410800B597
:1035C40005F0CAFD0022002300BD00B500290ADB76
:1035D400DB43524200D1013300F014F8C9434042A6
:1035E40000D1013100BDC943404200D10131DB4368
:1035F400524200D1013300F005F8DB43524200D1BE
:10360400013300BD002923D1002B18D1002A0CD08E
:10361400BC460D4F38667A6600210023FFE7FFE7BA
:10362400FFE77A6F386F67467047002801D0074874
:10363400010000B505F090FD0022002300BD02004A
:103644000B00002000217047000000D0FFFFFFFFA7
:10365400002B00D0BFE0130C28D1002AE7D080B49F
:10366400114F39667A66FFE7FFE730B4040C7B6FCD
:10367400396F1B0423433B667A66FFE7FFE7FFE7E6
:10368400C04684B27B6F3D6F1B0423433B667A665E
:10369400FFE7FFE7C04600232C042D0C7A6F386F38
:1036A40000196941B0BC7047000000D0F0B59446E1
:1036B4000025140E01D112020835140F01D1120194
:1036C4000435940F01D192000235D40F01D1520078
:1036D4000135D40B0134254F7C66254C3C660E0C19
:1036E40093B2FFE7FFE7FFE73C6F6643360C7703CF
:1036F400BE467343DF0B5B04C01AB941130C73431A
:10370400DB18C91ACE086643360CB64493B2734329
:103714001F0F1B01C01AB941130C73431F0B1B0568
:10372400C01AB941860D8F023E436643360C092DFB
:1037340024DB520A7243801A7703460A6643360C26
:1037440016235B1BDE40DF40BF1964466643821BC1
:103754007046043506330100D940A840C01900D38F
:103764000131A24206D20023F0BD0000000000D0C7
:10377400FFFFFFFF121B0130F3D3F1E709277F1B83
:10378400FE406446A2B27243801A00D20139220C70
:103794007243130C1204821A99410B0070460435CB
:1037A40013370100F940A840801900D30131002BE0
:1037B40002D1A2420AD2F0BD013000D30131121B62
:1037C400FAD2013BF8D1A24200D2F0BD013000D3BD
:1037D4000131121BF7E7F0B51C0C00D080E00CB4EB
:1037E40000251C0A04D11B02160E334312020835AD
:1037F4001C0B04D11B01160F3343120104359C0B1F
:1038040004D19B00960F334392000235DC0B02D1A6
:1038140092185B4101351C00971864410134464FEE
:103824007C66464C3C660E0CFFE7FFE7FFE7C046AC
:103834003C6F6643360C7703BE4697B27743C01B92
:1038440000D20139C01B00D201399FB27743C91B92
:10385400C91B170C77437E04FF0B801BB941CE08AC
:103864006643360C0C2D33DBB644120B1F053A436A
:103874001B0B97B27743C01B00D201399FB2774329
:10388400C91B170C77433E043F0C801BB941860DBE
:103894008F023E43664329277F1BFE400C3D77463B
:1038A400AF40BF1930BCA2B2ABB272437343801AAB
:1038B4009941220C7243130C1204801A994102009C
:1038C4000B000137001BA941F9D2781E0021F0BD7D
:1038D4000C277F1BFE4077467F0BAF40FF19E0E7C4
:1038E40000245D1C07D0144F7D663966FFE7FFE7AF
:1038F400FFE7FFE73C6F95B29EB265436643401B0A
:10390400B141150C1E0C6543664336042F0C3E432F
:103914002D04401BB141994204D202000B00200047
:103924000021F0BD01D19042F7D3801A99410134AE
:103934009942F2D3F6E70000000000D0FFFFFFFF3A
:10394400132370B51D78012D15D010DD1C48FFF729
:103954008DFD1C4C01008022200000F0C1F8022DD6
:1039640006D01948FFF77AFD184B186070BD154C46
:10397400174BA364F5E7164B124C23606360A360F6
:10398400E36023616361A361E36123626362A36211
:10399400E36223636363A363E36323646364A364F1
:1039A400E36423656365A365E36523666366A366D1
:1039B400E36623676367A367E367A364D1E7C0464D
:1039C40053440000A89900204C330000C029012072
:1039D4009537002007B5604601880A0A0230DF2ABD
:1039E400FAD1C9B2820804D3028840880004104383
:1039F40000E00068014A5050039007BDA8990020D8
:103A040051434343C9188C46110C83B24B4310B441
:103A1400040C614392B280B2504362431C041B0CF9
:103A2400001910BC59411304120CC01851416144CF
:103A340070470000132310B512481C78FFF716FDD9
:103A44000100012C0AD003DD80220F4800F048F861
:103A54000E48FFF703FD0E4B186010BD0A4C5422AC
:103A6400200000F03DF80B4B6365A365E365236616
:103A74006366A366E36623676367A367E3672362FA
:103A8400E361E5E753460000A89A00204C330000A8
:103A9400C02901205938002007B5604601880A0A68
:103AA4000230DF2AFAD1C9B2820804D302884088DE
:103AB4000004104300E00068014A5050039007BD21
:103AC400A89A002001480421014B1847209800209F
:103AD4003D320020014B1B6818470000209800204D
:103AE400014B5B681847000020980020030010B5C4
:103AF400080011001B68984710BDC046F0B5464643
:103B04004F46D646C0B5437C80460E001700002BB6
:103B140046D0002A3FDD4B1E9946244B0125002444
:103B240000209A460DE04B461B5D0D3B5A42534123
:103B3400325DDBB20A2A0BD02B00013401359F42DF
:103B44001ADD002CEFD14346325D1B7C0A2AF3D1E7
:103B5400002BF1D1A04204DA4346211A1B68301825
:103B64009847434650461B68022198470134280071
:103B74002B0001359F42E4DC874204DD4346391AB9
:103B84001B6830189847F619013E33780D3B5A42AA
:103B9400534142461374E0BCBA46B146A846F0BD50
:103BA4000368110030009847F5E7C0469C95002053
:103BB400F0B5DE4657464E464546E0B583B00D00A7
:103BC40091461C00060003F0DDFA324B070001A900
:103BD40018009A4605F01AFB8046002807D1019B7D
:103BE4009F4204D0504605F0F3FA012398466B1C1B
:103BF40003D1300005F0B2FA0500002C27D1264F7E
:103C0400264B1C68002C18D04B46002B21D1244B8A
:103C1400994602E0E468002C0FD02368002BF9D009
:103C24004B461B68002B01D0A342F3D120002A008D
:103C34003100B847E468002CEFD14346002B25D16E
:103C440003B0F0BCBB46B246A946A046F0BD154F32
:103C5400D6E7134B99460A239B4602E0E468002CFE
:103C6400EBD02368002BF9D04B461B68002B01D006
:103C7400A342F3D12A0031002000B8475A466B46CC
:103C840020001A7101A90122B847E7E7504605F060
:103C940023FBD5E780980020BD38002098E200205F
:103CA4009CE20020AD380020F0B5CE46474680B5F2
:103CB40083B06B468046DE1C307003F063FA1F4B02
:103CC400040001A91800994605F0A0FA071E20D0A7
:103CD4001B4B1C68002C27D01A4D02E0E468002C12
:103CE4000FD02368002BF9D02B68002B01D0A342FE
:103CF400F4D1200001223100FFF700FFE468002C1A
:103D0400EFD1002F10D1404603B0C0BCB946B04635
:103D1400F0BD019B9C420BD0484605F059FA084B74
:103D240001271C68002CD7D1484605F0D5FAEAE7EC
:103D3400034B1C68002CCFD1E5E7C04680980020D7
:103D440098E200209CE2002070B5040005F006FA19
:103D540000230100050001222000FFF729FF084B82
:103D64001C68002C06D06368002B05D09847E468D3
:103D7400002CF8D1280070BDE468002CF3D1F9E7D9
:103D840098E200200A4A1368002B05D10CE01A00BF
:103D9400DB680C32002B07D09842F8D1002902D1FD
:103DA400C3681360C16070470029FCD01060FAE753
:103DB40098E20020F0B50D1E15DD0E4B0D271A6894
:103DC4000D4B4519D31859424B410C495B005E5EBB
:103DD40020210478A64207D093691942FCD101300E
:103DE4001460A842F5D1F0BD93691942FCD1176063
:103DF400F2E7C0462C2A01200080FCBF242A0120BF
:103E040030B504000D1E12DD00201021094B013CC9
:103E14001A689369194208D1013093691942FCD197
:103E2400136823548542F4D130BD0028FCD103200B
:103E34004042F9E72C2A012070B51C000A4B1500FA
:103E44001860FEF7E5FF002D03DB02212800FEF7D2
:103E540063FF002C03DB02212000FEF75DFF01213C
:103E64000248FFF78FFF70BD2C2A012030980020F4
:103E740010B5024800F00CF810BDC04678290120A6
:103E840010B508220149FFF72BFE10BD7829012047
:103E940030B5002589B004000922002101A800954D
:103EA400FFF718FE0922002105A80495FFF712FE6A
:103EB4004B236A466846137004A90D2205F058FA8C
:103EC4001521082220006944FFF70AFE09B030BD1D
:103ED400F0B5982357464546DE464E466F4AE0B550
:103EE400D75880253C006D02883B9A4683B02C400D
:103EF4002F420FD001222321694B00205A54DA703B
:103F0400684901F017FB8022674B92021A65674BE0
:103F14002C009A46FB0617D480235B011F4245D12F
:103F24008023DB011F4200D08EE080231B021F424E
:103F340000D097E0BC4200D0ABE003B0F0BCBB467D
:103F4400B246A946A046F0BD544B9B6D9846002B43
:103F540027D0554B00249B4601239946434601260E
:103F6400B8461F0004E001347600E4B2202C17D0D8
:103F74003742F8D05B469E654B466508A3436D0007
:103F8400ED18474B6D019C466544280000F090FBFA
:103F9400002872D10134B743E4B27600002FE5D192
:103FA400474680235B0154461F42B9D01C4300237B
:103FB4003C4A3A4D00212B609360D3603C4A3D4813
:103FC4009360D3603C4A9360D3603C4A9360D3606F
:103FD4003B4A9360D3603B4A9360D3603A4A936010
:103FE400D3603A4A9360D360394A9360D360394AC4
:103FF4009360D360384A9360D360384A9360D36047
:10400400374A9360D360374A9360D360364A9360EB
:10401400D360F0229200FFF75DFD344B344A002157
:104024001A600020012201F05BFA80221E4B120369
:104034001A65EB6CDB0300D472E702F0FDFD80230C
:10404400DB011F4200D170E70122042100201C4340
:1040540001F0B6F91022144B1A6580231B021F428B
:1040640000D167E70122052100201C4301F0A8F9D3
:1040740080220D4B12011A655CE74B46AA8AA97887
:1040840000200093002301F07DFA280000F04CFA90
:1040940080E7210017487940FEF7B6FF0000115071
:1040A400A4E2002000001050003011501000010064
:1040B40008001050E4E200201000105018001050C6
:1040C40020001050280010503000105038001050BC
:1040D400400010504800105050001050580010502C
:1040E400600010506800105070001050B0E60020BE
:1040F40080011050A095002010B501210520FEF785
:104104006DFC10BD10B500220021024800F034FA05
:1041140010BDC046C4E200208022024B5202DA6481
:104124007047C04600201150F0B5C64600B50600E1
:1041340000F0D4F90C23354D0520AB673449FEF764
:1041440067FC40239846334C402200212000FFF7AF
:10415400C1FC43460127A383212100232E4A677013
:10416400A260136063545F3161844146A1870239C0
:1041740063542A4A2A496360E260A1620B60E262E6
:10418400284A63629360D360274A20009360D36017
:10419400264A00219360D360254A40309360D3605F
:1041A400244A9360D360244A9360D360234A936083
:1041B400D360234A9360D360224A9360D360224A37
:1041C4009360D360214A9360D360214A9360D360A3
:1041D400204A9360D360204A9360D3601F4A93605F
:1041E400D360F0229200FFF775FC1D4B1D4A30008E
:1041F4001A6080239B052F64EB6490231A4AEA50CB
:10420400FFF78AFF80BCB846F0BDC04600001150DD
:10421400913C0020A4E200208400105000011050C2
:104224008000105000001050080010501000105072
:10423400180010502000105028001050300010506A
:1042440038001050400010504800105050001050DA
:10425400580010506000105068001050700010504A
:10426400B0E600208001105010D001000B785B06EE
:1042740002D14B78052B00D070478A78014B1A6025
:10428400FAE7C04600001150F0B5CE464746072372
:1042940080B548798E780A790340C8787F218007F1
:1042A40031401B02F40913434F00820F9446914698
:1042B4002A4D3A195201AA18967001266640567082
:1042C400604600269383D6709077CA00012C29D0CB
:1042D40023488446880162448446AC446046826034
:1042E4001660002929D01F4AC90090464144416004
:1042F4003F223F3393434A46022A00D15B001A49C6
:104304003F190A687F01D3180B60184BED1953400D
:10431400EA604A469006184380231B0618436B68DC
:10432400186010E012488446880162448446AC4414
:1043340060468262166000290AD1002364012D19A7
:104344006B600C4BEB600120C0BCB946B046F0BDBD
:10435400064AC900904641444162C9E7A4E20020EC
:104364008400105004001050B0E6002000001050EB
:10437400800010500001105000231C4A10B59360B7
:10438400D3601B4A00219360D3601A4A1A48936091
:10439400D3601A4A9360D360194A9360D360194A70
:1043A4009360D360184A9360D360184A9360D360D3
:1043B400174A9360D360174A9360D360164A936098
:1043C400D360164A9360D360154A9360D360154A4C
:1043D4009360D360144A9360D360F0229200FFF795
:1043E40079FB124B124A1A6010BDC04600001050EF
:1043F4000800105010001050E4E200201800105083
:104404002000105028001050300010503800105078
:1044140040001050480010505000105058001050E8
:10442400600010506800105070001050B0E600207A
:104434008001105010B57F200C0020404000E4099A
:10444400110000191A00034B4001C01800F094F841
:10445400012010BDA4E200207F22130010B50B4000
:104464000A420BD0C909802258004018064940016D
:1044740040181201002100F05DF810BD022203482B
:10448400C909521A8266EEE7A4E200200020115006
:104494007F22100010B508400A4200D110BD00234D
:1044A400C909400040180449400108180022034982
:1044B400C37000F03FF8F1E7A4E20020FFF7FFFF2C
:1044C4007F21C309034A9B00014010B59A58024852
:1044D400FEF79AFD44980020B495002080220D4BED
:1044E400520410B51A600C4B0C491A6010008B680A
:1044F4009843FBD10A4C9C2200212000FFF7EAFAE2
:104504008022002152010748FFF7E4FA0923636778
:1045140010BDC04600E0004000F0004000C0004074
:104524000000115000001050002303744382838262
:104534008361704710B58368002901D01C6821404D
:10454400002A11D08024E400114322420CD01A68BE
:1045540022420BD1074A0A401A60FFE7FFE7FFE750
:10456400FFE7FFE7FFE78368196010BD8078FFF776
:10457400A7FFC046FFFBFFFFF0B5C646002300B50A
:10458400838201330374436804001E68838B816152
:104594001F1C934200D9171C8025BFB2D21B93B2B3
:1045A400E278ED0063823D43002A02D09025AD01FC
:1045B4003D4301204240E2706278002A51D0002B32
:1045C4001DD1A023DB011D43354B1B6C354B334000
:1045D4008026B6051E436368A2681E6013685B05E7
:1045E4005AD4314B2B401360FFE7FFE7FFE7FFE7A7
:1045F400FFE7FFE7A3681D6080BCB846F0BD8022DA
:1046040052011543264A126C920703D4A278D209A8
:10461400012ADBD1A28B111C9A4200D9191C8027D4
:104624008AB2FF009B1A90461743E2789BB26382DA
:10463400002A03D090274146BF010F4301214A407D
:10464400E2706278002A19D0002B02D18023DB01AA
:104654001F43164B3F043340A026F6053D431E433B
:10466400B9E73A00E068FFF73BFAA3699C46802368
:1046740067441B021D43A761638AA0E7E0684246C2
:10468400A1694030FFF72CFAA3694344A361802356
:104694001B021F43638AD7E7A078FFF711FFC046C8
:1046A40000001150FFFFFFAFFFFBFFFFFFFFFFDF25
:1046B400F0B5C64600B5067C0400002E00D1D3E058
:1046C40083681A681D684378AD05AD0D002B51D180
:1046D400838AEB189BB28382A18B8D4207D200237D
:1046E400638263681B68300080BCB846F0BD6268B2
:1046F4001268520002D58D4200D175E0638A002B06
:10470400F1D062681F1C16688B4200D90F1C8025EB
:10471400BFB2DB1BE2789BB2ED0063823D43002A0B
:1047240002D09025AD013D4301214A40E2706278F8
:10473400002A68D0002B2AD1A023DB011D434F4B54
:104744001B6C4F4B33408026B6051E436368A2683A
:104754001E6013685B0500D58DE04A4B2B40136047
:10476400FFE7FFE7FFE7FFE7FFE7FFE7A3680026B0
:104774001D60B8E72A00C1688069FFF7B1F9A38A10
:10478400A269EB189BB25219A382A261A4E780220A
:1047940052011543394A126C920703D4A278D20904
:1047A400012ACED1A28B111C9A423FD880278AB20B
:1047B400FF009B1A90461743E2789BB26382002A5B
:1047C4002FD101214A40E2706278002A3ED0002BAA
:1047D40002D18023DB011F432B4B3F043340A0262F
:1047E400F6053D431E43B1E7A26815686278AD0142
:1047F400AD0D002A1CD1EB18A3828D4200D37DE7B6
:10480400002363826FE73A00A169E068FFF768F963
:10481400A3699C46802367441B021D43A761638AE6
:1048240088E790274146BF010F43CAE7191CBDE73B
:10483400E1682A004031A069FFF752F9A38AA18BED
:10484400EB18A382A3695B19A361D6E7E06842462B
:10485400A1694030FFF744F9A3694344A36180236D
:104864001B021F43638AB2E77F238178074A084803
:104874001940FEF7C9FBA078FFF722FE0000115093
:10488400FFFFFFAFFFFBFFFFFFFFFFDF44980020A8
:10489400D4950020024B5878431E9841C0B270470B
:1048A400249F0020024B18784007C00F7047C04671
:1048B400249F0020014B18787047C0462A2B032000
:1048C400F8B54746CE4680B5344F05003B78002BFB
:1048D40004D00120C0BCB946B046F8BD5322002123
:1048E4002F48FFF7F7F82F4C2000FEF749F82E4B1E
:1048F4001C602E4C20001C30FEF760F8200002F0F3
:1049040097F82B4B2B4E1C602B4B9846002B04D056
:10491400300000E000BF294B186042460024337881
:10492400002A26D0264A9046244A9146A34218D803
:10493400E31ADBB2022B2ED85A00D318DB0043440F
:104944001B68984733780134E4B29A1CA242EDDA2A
:104954002800FFF7E9FB2800FFF7CEFB01233B709B
:10496400B7E74A461268630094461B19DB006344A8
:10497400E6E7134B0024984601E0032C0BD0434692
:104984001B68984718239C46337801340233E0446B
:104994009C42F2DDDCE700231B68FFDE2A2B0320A8
:1049A400249F0020DC9E0020789F00204C9800204B
:1049B4007C9F0020292B032000000000A09C0020E5
:1049C40094960020F0B5DE4657464E464546E0B57F
:1049D4008DB001F0E9FD002800D173E1CE4BCF4D3D
:1049E4009B4609AC2E68F269EFF3108172B6136826
:1049F400002BFCD0BFF35F8F31623000210001F047
:104A04008BFEF269336ABFF35F8F0021116083F379
:104A14001088002800D155E16378082BE2D8C04AF9
:104A24009B00D3589F466368002BDBD0A06898474F
:104A3400D8E77F222179B84B0A405600C8099B1950
:104A44001B18180001273030C678BE43C670C678DC
:104A54000337BE43C670002A00D13AE1B14ADB7C79
:104A6400002A06D0B04A1278934200D221E19B1A60
:104A7400DBB2022B00D925E15A00D218AB4BD2008D
:104A84009B181E6962792078A368B047AAE75B4641
:104A940001221B78012113435A46137033235846CD
:104AA400D25C5E468A43C254C25C04208243F25400
:104AB4000133F25C27788A43F254F25C8243F25465
:104AC400002000F0F5FE602223791A40602A0DD000
:104AD400402A00D15FE1DB06DB0E012B00D19FE110
:104AE400022B00D173E1002B00D163E12078002177
:104AF400FFF7B2FC80212078FFF7AEFC72E75B463B
:104B04001B78DB0700D46DE7894B002B00D169E7E4
:104B140000E000BF66E7804B1A78D20700D461E753
:104B2400844A002A00D15DE718780007C00F00E02E
:104B340000BF57E77C4E7B4A00273378002A00D118
:104B44000CE17A4A90467C4A9146BB4217D8F91A3E
:104B5400C9B2022901D900F01BFC4A005218D20044
:104B640042445269002A14D02078904733780137A0
:104B7400FFB29A1CBA4200DA34E7BB42E7D949468D
:104B840009687A008C46D219D20062445269002A1C
:104B9400EAD10137FFB29A1CBA42D6DA22E7237867
:104BA400614E604A984600273378002A00D1ABE072
:104BB4005E4A9146604A9246320046469046BB425F
:104BC40067D8FB1ADBB2022B01D900F0E4FB5A00D0
:104BD400D318DB004B445B683000984743461B788E
:104BE4000137FFB29A1CBA42E9DA4B4E5322002134
:104BF4003000FEF76FFF1022FF21F01CFEF76AFF62
:104C040030002022FF211330FEF764FF00F046FE3F
:104C14004A4B002B00D1E5E600E000BFE2E6237832
:104C2400414E404A984600273378002A57D03F4ADD
:104C34009146414A9246320046469046BB4230D89D
:104C4400FB1ADBB2022B00D9A5E35A00D318DB0010
:104C54004B445B683000984743461B780137FFB2EA
:104C64009A1CBA42EADA2C4E532200213000FEF795
:104C740031FF1022FF21F01CFEF72CFF3000202210
:104C8400FF211330FEF726FF00F008FE2379B370EE
:104C9400A8E6524612687B009446DB19DB006344A5
:104CA40099E7524612687B009446DB19DB006344A3
:104CB400CFE75A00D218204BD2001B689B18002B58
:104CC40000D0DEE60DB0F0BCBB46B246A946A04615
:104CD400F0BD62792078A36800F0FEFD82E6134BF4
:104CE4000027994633004E46994602E0032F00D12F
:104CF40051E37368404698474B461B7801370233AB
:104D040018369F42F2DDAEE7084B00279946330080
:104D14004E46994617E0C046249F00207C9F002001
:104D24000896002000000000292B03209496002000
:104D34000000000000000000A09C00200000000013
:104D4400032F00D127E37368404698474B461B78EE
:104D54000137023318369F42F2DD46E7D24A002774
:104D640090463200464690460CE0207890474346F1
:104D74001B7801379A1C1836974200DD32E6032F60
:104D840000D105E37269002AEFD101379A1C183665
:104D94009742F4DD26E6C548002800D1A6E600F0D7
:104DA40087FD002138000AAAFBF792FB002800D0F7
:104DB40018E69BE6202A6CD0002A00D096E6637998
:104DC400092B00D992E6BA4A9B00D3589F46702318
:104DD400217A0B4200D089E6C80984460F330B4080
:104DE4005B00F018B34E6044C07C002E06D0B24E77
:104DF4003678B04200D286E0801BC0B2022861D867
:104E040046003018A84EC0003618002A5ED0F0685C
:104E140000F04EFD00213800F3680AAA9847C5E760
:104E2400237A0F2B00D961E6A24A5B44DB78002A7F
:104E340005D0A14A1278934271D39B1ADBB2022B9C
:104E440000D953E65E00F318974EDB00F618F068BD
:104E540000F02EFD00213800F3680AAA98470028C4
:104E640000D0BFE56022160023791E401A4200D00C
:104E74003CE663790A3B012B00D937E600F018FDC4
:104E840063790A2B00D11FE138000AA900F090FCD5
:104E9400A8E5237A0F2B00D928E6864A5B44DB7801
:104EA400002A06D0844A1278934200D2CCE09B1A9E
:104EB400DBB2022B00D919E65E00F3187A4EDB0050
:104EC400F618A4E70026002A00D00FE6627992467D
:104ED40002229046524640468243012A00D18FE086
:104EE4005246002A00D001E65B4463443033DB7849
:104EF40008AA9B07DB0F02321380380002230AA999
:104F040000F06EFC6EE5460030186C4EC00036684A
:104F14003618002ADAD0002E00D078E7E6E5674A92
:104F24005E00F3181668DB00F618002E00D1DDE5EC
:104F34008DE7A279039273789A4207D07378002B95
:104F440000D03EE1039B002B00D0C6E05B46039AF1
:104F540038000AA95A7000F02BFC43E5737808AABC
:104F640002321370380001230AA900F039FC39E534
:104F7400E088030AC0B20F2B00D9B7E550499A0064
:104F84008A5897460AA800F099FC3800A179FFF7DF
:104F9400B9F8022233781343337023E5E388012BF5
:104FA40000D0A3E50822337813435A4613706BE705
:104FB400E388012B00D099E5082233789343F4E782
:104FC4000220317808AB9A1C8B068908DB0F01405C
:104FD4000B4391E7022B00D1CBE13A4B002B00D1DC
:104FE40084E500E000BF0200002A00D17EE5D3780A
:104FF40091781B020B4338000AA900F0F1FBD5E6B7
:10500400E288002A0BD152465B446344012A34D01F
:105014003022904698444346DB789B071ED5002EE9
:1050240000D1DFE4F06800F043FCF3680AAA002131
:1050340038009847002000F03BFC34235A46D35CE8
:10504400DB0700D5CEE41FE71C4A5E00F3181668A0
:10505400DB00F618002E00D148E5D8E63800FFF74B
:10506400FBF943460222DB7813434246D370D378DC
:10507400012213434246D370D1E72F32914699441B
:105084004B46DB789B07CAD53800FFF701FA4B463D
:105094004246DB7893434A46D370D37852469343CF
:1050A4004A46D370BBE7C046949600209102002084
:1050B4002C96002000000000292B0320A09C002037
:1050C400549600200000000008AB9A1C380001230D
:1050D4000AA9167000F084FB84E4581EC0B2FBF7E2
:1050E4003BFA002800D101E543780693022B00D057
:1050F400FCE40121C279BA46931152110B400A40D3
:1051040012015B0113435A4612782F318A43134329
:105114005A4613700923984680444746C3788278D8
:105124001B021343C3180593059BBB4200D824E11B
:1051340001227B7802920B2B04D1FB7802933B78FB
:10514400FF187B78042B00D0D0E4059B934ADB1B2B
:105154009BB20493924B1B78002A00D1ADE000224D
:105164000026019222E0F31ADBB2022B00D90CE1F3
:105174005A00D3188B4ADB0090469844049B3900AC
:105184001A009946434650469B6898478446082827
:1051940003D94A46824200D3B1E0814B01361B78E1
:1051A400F6B29A1C0196B24200DA9FE4B342DAD90D
:1051B4007D4A730012689B199046DB00079298445D
:1051C400DCE73800FFF7D8F8B378744A744E984691
:1051D40000213378002A37D0734A914632000E00FA
:1051E4009246B34228D8F31ADAB2022A00D9D2E09E
:1051F40053009B186B4ADB00944663445B68380099
:10520400984753461B780136F6B29A1CB242E8DA44
:10521400532200215846FEF75DFC5B461022D81C41
:10522400FF21FEF757FC2022FF216048FEF752FCC5
:105234005B4642469A7085E64A4612687300944675
:105244009B19DB006344D9E7564B3200994600238F
:105254009A464B465646B94692461F0002E0032E34
:1052640000D198E07B684846984753461B7801363E
:1052740002331837B342F2DA4F46C9E7FBF764F951
:10528400122302000AA9380000F0AAFA8EE5484B5E
:10529400002B00D12AE400E000BF021E00D125E467
:1052A400380013780AA900F09BFA7FE52189FBF7FF
:1052B40057F9021EF4D1FFF719FC3A4B9946002323
:1052C4004E460193019AD3B29946032A5DD0390020
:1052D4005046049AB3689847B0468446082802D9D1
:1052E400049A82420AD22E4B019A1B78013202336D
:1052F400019218369342E5DAFFF7F8FB4E46029B1B
:10530400012B2ED0029B002B10D00023B97805E08E
:10531400D6700133029ADBB2934207D25A18D2B242
:105324005A44D078FF28F3D0FFF7E0FB33006646F9
:10533400624639001D4801F077F9B446184B019ACA
:105344001B7867440233934200DBEDE6FFF7CEFBA4
:10535400184B002B01D1FFF7C9FBFBF741F9020001
:1053640045E64246144B92689A42CED1069B02937C
:10537400CBE7FBF7F1F8020036E6104B5746002B5B
:1053840000D1E3E500E000BFE0E500239B68FFDE19
:1053940000235B69FFDE00235B68FFDE0000000082
:1053A400292B032094960020A09C0020379F0020E6
:1053B40000000000A10300201D5A0020000000008E
:1053C40030B587B005000C000C2200216846FEF7BA
:1053D40081FB6B461D705C70042C4FD009D8022CE5
:1053E40034D0032C19D13C4B1A78520758D407B047
:1053F40030BD052C11D1384B1A78D207F7D50421CA
:105404001A788A431A70354B1C68E269EFF31081ED
:1054140072B61368002B09D1FBE7304B1C68E269B4
:10542400EFF3108172B61368002BFCD0BFF35F8FCB
:1054340021626946200001F03DFAE269236ABFF364
:105444005F8F0021116083F31088D0E70121224B84
:105454001A788A431A701A780331A2431A70002208
:105464005A701A788A431A701C4B1C68E269EFF36D
:10547400108172B61368002BD8D1FBE7164B1A784B
:10548400D207B4D504211A780A431A70134B1C6846
:10549400E269EFF3108172B61368002BC6D1FBE703
:1054A40004211A7803A88A431A7000210C22FEF7FB
:1054B40011FB6B466A461D7305235373074B1C6827
:1054C400E269EFF3108172B61368002BFCD0BFF3CE
:1054D4005F8F216203A9ADE7249F00207C9F0020F9
:1054E40070B584B001AC06000D000C220021200030
:1054F400FEF7F0FA012363700D4B25711D682670C9
:10550400EA69EFF3108372B611680029FCD0BFF387
:105514005F8F2B622100280001F0CCF9EA692B6A25
:10552400BFF35F8F0021116083F3108804B070BD56
:105534007C9F0020002330B585B001AD6B802870BE
:105544000633082202A86B70FEF7CAFA0C4B1C68DB
:10555400E269EFF3108372B611680029FCD0BFF33F
:105564005F8F23622900200001F0A4F9E269236A15
:10557400BFF35F8F0021116083F3108805B030BD45
:105584007C9F0020F0B5C646804600B584B001ACCF
:105594000F0016000021082220001D00FEF79AFAD1
:1055A40043462370072363700F4B65711D68277191
:1055B400A660EA69EFF3108372B611680029FCD083
:1055C400BFF35F8F2B622100280001F073F9EA69B1
:1055D4002B6ABFF35F8F0021116083F3108804B03E
:1055E40080BCB846F0BDC0467C9F0020F0B546465E
:1055F400D6464F468046C0B50C0015001E00002A52
:105604002ED070239946184B00279A466378052BB1
:105614000FD1E1788907890FB1420AD14A46A378AC
:105624001A4206D153462000997800F0C1FF0028A1
:1056340005D10020E0BCBA46B146A846F0BD210021
:105644004046FEF721FE0028F3D0A378DA09012AA8
:1056540008D0089A137023780137E418AF42D5DBD9
:105664000120E7E7099AF5E7249F0020702270B52E
:105674008B7805000C001A4201D0002070BD064B47
:105684002000997800F094FF0028F6D0210028002B
:10569400FEF7FAFDF2E7C046249F002070B57F2490
:1056A4000C406300144CC909E41864183034E378DE
:1056B400DB07DD0F002B18D1E3785B0701D5280049
:1056C40070BD01210D4E4942306803F0C1FDE378FD
:1056D400DB07DD0F002B0AD1E3785B0708D4042233
:1056E400E37801251343E37002E00025E7E7002592
:1056F400306803F0F1FDE2E7249F0020789F00204A
:1057040070B50C0001210F4D4942286803F0A0FD3B
:105714007F2121404B000C49E409C9180919303193
:10572400CB780024DB0708D4CB785B07DC0F002B95
:1057340003DA0422CB789343CB70286803F0CCFDC2
:10574400200070BD789F0020249F002070B57F2525
:105754000F4C0D406D0064190600C809241830343C
:10576400E5780020ED0700D570BD0125E0782843D9
:10577400E0703000FEF75EFE0028F5D10122E378E8
:105784009343E370E37803329343E370ECE7C0465A
:10579400249F00207F22CB090A4004495200891823
:1057A400C9183031C878C007C00F7047249F002043
:1057B40070B50A4E0500300008220C00FEF790F97F
:1057C40000237F21F3602278B36091425B4128007B
:1057D400D90100220023FFF7B9FF70BDFC9D002012
:1057E400F8B5CE46474691462A4E80B508220700B2
:1057F40030000D009846FEF773F94B46B360002362
:10580400F381EC79A97924020C43231C444500D983
:1058140043469AB29046B381002C13D0002A1FD07D
:105824004B46002B34D0131C402A1FD89BB29846F9
:1058340033787F2B20D80021174A43463800FFF7DE
:1058440085FF09E07F222B7838009A4264410023C7
:105854000022E101FFF77AFFC0BCB946B046F8BDAB
:1058640033787F2B11D980210022E6E740239BB2B5
:10587400984633787F2BDED9074C424649462000B0
:10588400FEF72EF980212200D7E700210022D4E779
:105894000020E1E7FC9D0020E49E002010B51422C6
:1058A40000210248FEF716F910BDC046FC9D0020F9
:1058B400014B18617047C046FC9D002010B5054C93
:1058C400010008222000FEF70BF90023A360E36027
:1058D40010BDC046FC9D0020F8B53B4C1D0023784C
:1058E4000600DA09C9098A4213D00020002D00D02D
:1058F400F8BD364B002B03D021003000FEF7B6FC78
:105904002369002B44D02200022130009847012053
:10591400EEE77F2B06D8A068002837D02A002C4950
:10592400FEF7DEF8A368E28959195219E38892B2A6
:10593400E281A160934214D03F2D12D9A589A81AFF
:10594400071C80B240282FD82378BFB27F2B2DD8D4
:105954000021AA4235D01E4A3B003000FFF7F6FE74
:10596400C6E72369002B05D02200012130009847A7
:1059740000280FD07F220021237830009A42494129
:1059840000230022C901FFF7E1FEB1E70020AFE7E1
:105994000120ADE700213000FEF75EFD30008021DC
:1059A400FEF75AFD0120A3E74027CDE7AA4207D01E
:1059B400074C3A002000FEF793F880212200CBE741
:1059C40080210022C8E7C046FC9D00202D40002015
:1059D400E49E002010B50400FEF75CFF002801D10E
:1059E400002010BDFEF75EFF0028F9D15930FF30CA
:1059F400444303480019037901201840F1E7C046E5
:105A0400A49C0020AC235B00584310B5024B10301B
:105A1400C01800F05BFE10BDA49C0020F0B5AC25BE
:105A24006D0045432C00C646174F1034E41900B5E9
:105A3400200092B200F0BEFE0600200000F05EFEE0
:105A44003F2803D8300080BCB846F0BD7B19002045
:105A5400D9789846FFF722FE0028F3D0200000F002
:105A64004DFE3F2809D92A004346D832D978D219A5
:105A740040230020FFF76AFEE4E743460020D9787C
:105A8400FFF73EFEDEE7C046A49C0020F8B5AC2537
:105A94006D0045432C00134E1034A419200000F06F
:105AA400C7FF200000F02AFE3F2800D8F8BD771970
:105AB4000020F978FFF7F2FD0028F7D0200000F06D
:105AC4001DFE3F2808D92A00D8324023F9789219BC
