:020000041000EA
:1000000000B5324B212058609868022188439860DF
:10001000D860186158612E4B002199600221596106
:100020000121F02299502B49196001219960352056
:1000300000F044F80222904214D00621196600F024
:1000400034F8196E01211966002018661A6600F04E
:100050002CF8196E196E196E052000F02FF8012189
:100060000842F9D1002199601B49196000215960AB
:100070001A491B48016001219960EB211966A021F2
:10008000196600F012F800219960164914480160C1
:100090000121996001BC002800D000471248134993
:1000A000086003C880F30888084703B5996A0420EC
:1000B0000142FBD001200142F8D103BD02B5186610
:1000C0001866FFF7F2FF186E186E02BD00000240BE
:1000D000000000180000070000035F00212200005C
:1000E000F4000018222000A00001001008ED00E03C
:1000F00000000000000000000000000074B24E7A12
:1001000000200420F7010010C3010010C5010010F9
:10011000C1010010C1010010C1010010C101001097
:10012000C1010010C1010010C1010010C701001081
:10013000C1010010C1010010C9010010CB01001065
:10014000CD010010CD010010CD010010CD01001037
:10015000CD010010CD010010CD010010CD01001027
:10016000CD010010CD010010CD010010CD01001017
:10017000CD010010CD010010CD010010CD01001007
:10018000CD010010CD010010CD010010CD010010F7
:10019000CD010010CD010010CD010010CD010010E7
:1001A000CD010010CD010010CD010010CD010010D7
:1001B000CD010010CD010010CD010010CD010010C7
:1001C00000BE00BE00BE00BE00BE00BEEFF3058054
:1001D000103800BEF2EB8871E04900100C4A0010A4
:1001E0003402001090A31AE700201F49086006C8D7
:1001F00081F3088810471D48006800282FD10DA4FE
:100200000ECC002902D000F012F8F9E71849194A7B
:10021000002000E001C19142FCD1174988471749ED
:1002200088471749884700BEFDE701C901C29A42C5
:10023000FBD370470C4A0010C00000207815002046
:10024000C45E00100000042000000420C45E001002
:10025000001004200010042000000000704709482E
:1002600002F01EF80047000008ED00E0000000D09A
:1002700078150020082300200D210010B103001084
:10028000012200105756000006005250ABB36053D5
:100290002048001006005250861C0302304800100F
:1002A000060052505422A29D3C48001005005250B6
:1002B000DE65F468C45E0010F8B5C0460448054B1E
:1002C00010B5834203D0044B002B00D0984710BDDB
:1002D0007815002078150020000000000648074926
:1002E000091A8B10C90FC91810B5491003D0044B57
:1002F000002B00D0984710BD7815002078150020FD
:100300000000000010B5074C2378002B09D1FFF73F
:10031000D5FF054B002B02D0044800E000BF0123AD
:10032000237010BD7816002000000000A8460010C1
:10033000054B10B5002B03D00449054800E000BF71
:10034000FFF7CCFF10BDC046000000007C16002067
:10035000A8460010F8B54746CE460F4B80B59946E3
:100360000E4B002798460E4E02F03CFC4401241828
:10037000640033195F70325DA51C75194B46290066
:100380004046D2B200F09EF940220021280002F03F
:10039000BBF83755E8E7C046E81E002048140020A7
:1003A0001C1F0020481E411E8841C0B27047C04635
:1003B000F8B5012604F0C0F800F09AF803F022FE28
:1003C0001A4802F05FFC1A4D1A4C286843011818AD
:1003D0004000201801300378DFB2002BFBD1012050
:1003E0000021404202F0B2FE002003F079FC002818
:1003F000EBD02B6840225901C91849000231002076
:10040000611803F07DFC031E2868DFD0420112183A
:10041000DBB25200A354A2185670431C032803D029
:100420002B6002F0D5FBD0E72F60FAE755030010F0
:10043000101F00201C1F002070B5012002F0B0FB2F
:100440001122144B144C1860C30223401343134A67
:1004500000251360A022D20594468001104A604412
:100460000560426085600361012002F099FB0D4B3D
:100470001860C30223400C4C80011C430B4B1C60D2
:10048000A023DB059C460A4B604403604560856001
:10049000046170BD68140020FD7F00FFFC1E002079
:1004A00010002050CC1E002001000200C81E0020B9
:1004B0002000205070B5040005200D0001F0B0FDB3
:1004C000FA21890001F01AFF290001F017FF616885
:1004D0008208072800D802224B005B180349DB0082
:1004E0008C46120463441A6070BDC046C800205098
:1004F00070B54F4C200002F0F3FB2378180901007F
:100500001A01D2B230319F2B00D90731494B100963
:10051000197000212170010030319F2A00D9073164
:10052000597061780D0928000A01D2B230309F2934
:1005300000D9073000219870100961700100303136
:100540009F2A00D90731D970A1780D0928000A0126
:10055000D2B230309F2900D907300021187110091C
:10056000A170010030319F2A00D907315971E1781B
:100570000D0928000A01D2B230309F2900D9073076
:10058000002198711009E170010030319F2A00D9D3
:100590000731D97121790D0928000A01D2B2303012
:1005A0009F2900D90730002118721009217101001C
:1005B00030319F2A00D90731597261790D0928001D
:1005C0000A01D2B230309F2900D907300021987239
:1005D00010096171010030319F2A00D90731D972A9
:1005E000A1790D0928000A01D2B230309F2900D923
:1005F0000730002118731009A171010030319F2AC2
:1006000000D907315973E1790D0928000A01D2B2E6
:1006100030309F2900D90730002198731009E1710B
:10062000010037319F2A00D80739D97370BDC04601
:10063000001F00203020002000487047184700109D
:1006400000487047F846001070B5002825D00328F0
:1006500030D8194B8000C658300003F085FFC0B277
:10066000041C1F2814D8E4B2002820D00023134D06
:10067000AA1CF15C01331180D9B202328C42F8D845
:10068000C023013464009B001C4328002C8070BDF3
:100690001F24E4B20028E9D109E0C124074D064B2C
:1006A00002221968A81C01F035FFA400EDE7044CF4
:1006B000024DEAE70020EAE76C140020AC160020A7
:1006C00002030000F0B54E4657464546DE46E0B50B
:1006D0008E1881460C009A461D0085B0B14241D269
:1006E0000F239846334F2378002B2BD042461340DC
:1006F000092B37D89B00FB589F46192000F076F84D
:10070000D0231B061A009B4680239B0453620120C2
:10071000536100F015FF80235A469B04936101AB9F
:100720009C46254A03CA03C3127828001A70624601
:100730000023614653720A2201F0ECFE0A350134AF
:10074000B442D0D3AA450DD053465146EA1A0020F0
:1007500003F004FB002003F037FB14220021504675
:1007600001F0D2FE05B03CBC90469946A246AB468D
:10077000F0BDA17863780902194349BA02344846AA
:1007800089B20134FFF796FEB442ACD3DAE7290010
:10079000484603F021FF01342D18B442A3D3D1E71A
:1007A0002900484603F030FF01342D18B4429AD393
:1007B000C8E7C0462C47001054470010094A830080
:1007C00094464022634410B51C68C0006240C024B7
:1007D00014408022520113431C60034B9C4660442A
:1007E000416010BD04C00140004001400123D022FF
:1007F0008340120693629361094A83009446402223
:1008000063441968C0004A40C0211140802252014F
:1008100013431960034B9C460523604443607047B3
:1008200004C0014000400140024B18688007C00F1F
:100830007047C04600C00640EFF3108072B6034A0E
:100840001368002BFCD0BFF35F8F70472C0100D0E2
:10085000BFF35F8F0022024B1A6080F3108870474D
:100860002C0100D0F8B5EFF3108772B60E4E336846
:10087000002BFCD0BFF35F8FCB08C4180725A4461C
:10088000C45C01230D40AB4018002040234208D136
:10089000624623431370BFF35F8F306087F3108885
:1008A000F8BD100001F0B0FC2C0100D0F8B5CE4628
:1008B00047468C4680B5EFF3108872B6214D2C6800
:1008C000002CFCD0BFF35F8F9A422CD8D4080721AC
:1008D000055D0619012411408C402C421FD00721D0
:1008E0008946063909E0D408055D06194C460F0013
:1008F0001440A7403C002F4211D001329342F2D263
:1009000001204042BFF35F8F00220E4B1A6088F334
:10091000108800280FDB0CBC90469946F8BD2C438C
:1009200010003470EEE7BFF35F8F00232B6088F375
:100930001088012040426346002BECD0089801F05B
:1009400063FCC0462C0100D00021044B044ABFF3D5
:100950005F8F02C39342FAD17047C046000100D0B6
:10096000800100D0044A1078431CDBB2172B00D959
:10097000102313707047C0467C14002000B5054B4F
:1009800083B00100009318221F230348FFF78EFF56
:1009900003B000BD604700102C1A002001238340E3
:1009A000002904D0034A1360034A13607047034AC6
:1009B0001360FBE780E200E000E100E080E100E09E
:1009C00001228240034B1B681340581E8341D8B25A
:1009D0007047C04600E100E0024B10309B68800089
:1009E000C058704700ED00E070B50D00EFF31086C1
:1009F00072B60F4A1368002BFCD0BFF35F8F0D4B0C
:100A000010309B6884001B590B4A934203D09D42CF
:100A100001D001F011FC074B9B681D51BFF35F8FA4
:100A2000BFF35F8F0022024B1A6086F3108870BDFF
:100A3000240100D000ED00E0CD010010F0B55746D4
:100A40004E464546DE46E0B5894683B005001700B0
:100A5000EFF3108A72B65D4A1368002BFCD0BFF327
:100A60005F8F00205A4B18569B4600286CDB5A4675
:100A70004400584E2418A400331998469B79103529
:100A80001370554BAA009B6801929B589C469B1B78
:100A90002F2B28D8012261469143CB79BB4208D83D
:100AA0006AE053009B189B00F318DD79BD4251D9D1
:100AB000190006228A56002AF3DA0B1D9B46474E80
:100AC00043465C46043B1B1B1B05454C5B0D234307
:100AD0008B80887141468A714A46424B8E800B60FA
:100AE000CF718A601BE0404B9C4542D142463F4B50
:100AF000023413803E4B3619043B9E1B3605384B9F
:100B0000760D1E433B4B56809380FF23D771937124
:100B100043464A469A60012342461A439446614638
:100B20002D4B019A9B689950BFF35F8FBFF35F8F86
:100B30000022264B1A608AF3108803B03CBC904612
:100B40009946A246AB46F0BD01F076FB5B4600201D
:100B500018568CE70B1D9B468B8804345B051B15D0
:100B60005B4436199E1BE0233605760D1B021E439F
:100B7000A6E701F061FBB9E745460B001E489B1B49
:100B80005B415843000D194B2B80A31C9C46B44479
:100B90006546174B0434043B5B1B1B05104D5B0D76
:100BA000AC462B43454636196B800B1F9E1B634694
:100BB000A87148463605760D1E430A4BAE80EF718C
:100BC000A8600B60434613439C46A8E7240100D06D
:100BD0001A1F00208014002000ED00E001BD00007D
:100BE00000E0FFFF01488047CD01001000A1FFFF9A
:100BF000B014002001BDFFFFAAAA0000F0B5DE4638
:100C000057464E464546E0B50C0083B0EFF31089D9
:100C100072B6594A1368002BFCD0BFF35F8F574B55
:100C20009A68030010339F00D559554A9046954263
:100C300032D0A54243D0534EAA1B2F2A2CD80122D2
:100C4000824092465146504A1268114001915146E5
:100C50004E4A1160BFF35F8FEFF305829346002A7F
:100C600033D101232A009A4393689C4208D178E04B
:100C70004B005B189B00F3189968A1422AD01A0018
:100C8000062151560029F3DA019B002B19D0524658
:100C90003F4B1A603C4B1A60384B9B68DD51BFF3E9
:100CA0005F8FBFF35F8F0022334B1A6089F3108888
:100CB00003B03CBC90469946A246AB46F0BD150039
:100CC000EAE75246314B1A60E6E79342C9D001F099
:100CD000B3FAC6E706215956002922DB4A0050180C
:100CE000800034188046A0689860E079D8710620AA
:100CF00020569871A0797F2824D8A488F01A64051A
:100D0000241544440019E0240005400D240220432A
:100D1000988052181F4B9200B6181A781970B27149
:100D2000B2E7594600290FD1FF3191711A499180DC
:100D300018490A789A71194A9B1B5B415A43120D54
:100D40000A70A1E71648E3E7164A1749D21A083A8B
:100D50005002400D01439980144952080A43DA8039
:100D600092E70621515613000029B7DA5A46002AA5
:100D7000EAD14546DCE7C046240100D000ED00E0A2
:100D8000CD0100108014002000E100E080E100E0CF
:100D900080E200E01A1F002001BDFFFFAAAA0000A8
:100DA00001BD0000BA14002000F0FFFF00F8FFFFB3
:100DB000F0B5EFF3058101240443EFF3108672B61A
:100DC000214A1368002BFCD0BFF35F8F1F4B050037
:100DD0001F4AED1A6D416A43120D1E4D8900AF681E
:100DE00052B27F58A7421CD00621595691421CD0BE
:100DF00012215956914222D01E215956914220D09B
:100E00002A2159560324914210D0134B19781A7095
:100E10008171BFF35F8F00220B4B1A6086F310883D
:100E2000F0BDAB680D4C5C50EFE700246100091980
:100E300089005B18FF21997109499980E5E7012430
:100E4000F4E70224F2E7C046240100D08014002019
:100E5000AAAA000000ED00E01A1F0020CD0100103A
:100E600001BDFFFF054B064A1360064A136053603D
:100E70009360D36013615361936170478080808079
:100E800000E400E004E400E0024B9C466144890079
:100E9000016070474000003410B50400FFF762FDA8
:100EA00001002000FFF7F0FFFF232371BFF35F8FE6
:100EB00010BDC04610B50400FFF754FD010020002E
:100EC000FFF7E2FFFF23A380BFF35F8F10BDC04693
:100ED00010B504000120FFF751FD034BC3189B0020
:100EE0002360BFF35F8F10BD4000003483680B4860
:100EF00010B5844661446244090112019A185918D8
:100F000054684B6801209C4201D802D00020C0B236
:100F100010BD12680B689A42F9D8F7E7FFFFFF0F80
:100F20000A4B1968EFF3108072B60A68002AFCD0E9
:100F3000BFF35F8F1B68BFF35F8F00221A6080F3DF
:100F4000108840BF002000217047C046D41E0020FA
:100F5000F8B5574645464E46DE46E0B599460CABD9
:100F600019780DAB1B78050090469A460768002952
:100F700012D1BE7B002E45D074003B68A419033CFF
:100F80001B195A783100BA73002A00D1FA73002273
:100F90009A705A701A7003E00E004C006418033CFB
:100FA0002C4B00229C46AB6861449C464346090199
:100FB00061440B604B464B600A9B8B600B9BCB6084
:100FC0003B681B199A705A701A707B7B9B46002BEA
:100FD0002CD032005946B8687B6898473A68002898
:100FE00017D05B4658465B005B441419033BA07066
:100FF000D118D35C002B00D063705B460E707B73FE
:10100000B34514D030003CBC90469946A246AB464E
:10101000F8BD5B465B005B44033BD3189E7011191F
:10102000125D002A00D05A705B460B707E734246F8
:101030004B46287D00F098FB041E06D05346002B3B
:1010400003D13100286800F0DDFD0E9B002BD9D0C4
:101050001C70D7E7FFFFFF0FF0B5DE4657464E4640
:1010600045460023E0B58BB00893664B8200D45808
:1010700000239B46099000F017FB626806000F00F2
:10108000EFF3108572B61368002BFCD0BFF35F8FAF
:1010900023689C465B7B9946002B68D0A2685A4B1C
:1010A00090464B441B01984443461A685B68100005
:1010B0001900801BB941002963DD099800F054FB39
:1010C00000230022984600230692079300239A46A5
:1010D0006368BFF35F8F5A461A6085F310885346E2
:1010E000002B08D10028C6D10BB03CBC90469946D5
:1010F000A246AB46F0BD089B414618024B4618433A
:10110000D047626806000F00EFF3108572B61368CF
:10111000002BFCD0BFF35F8F002F4FDB33003B432E
:1011200002D02369002B60D12368DA7B002A07D024
:1011300051008A1819688C4649466244033A517036
:101140009A7B002A01D14A469A734A46DA734B4683
:10115000E168013BCA5C0132CA545B4623616368A3
:10116000BFF35F8F5A461A6085F3108883E7002328
:1011700000229846002306920793002300209A46F7
:10118000A6E7002901D1002897D10021604600F090
:1011900097FC43461A685B680692079343469B6830
:1011A0009A464346DB689846E3684B44013B1B780C
:1011B00008931B0203432361002089E72369002B66
:1011C000B2D0069A079B921BBB41002B15DB5946F8
:1011D00004910121039149460291414601915146F2
:1011E00020000091FFF7B4FEB7E700F05DFA32008F
:1011F0003B0012184B41002BE9DA0122034B52420B
:10120000E5E7C046B01E0020FFFFFF0FFFFFFF7F96
:1012100010B5144C6368002B04D00A211248FFF764
:1012200033FE10BD2300114A1021206800F062FB3C
:10123000032000F02DFA032000F008FB03200C49E6
:1012400000F04CFAFFF78EFB0A4B9C4603232375F4
:10125000D0231B061B6860446375074B80006060E9
:10126000DC60DAE7C8140020D41E0020ED0E001068
:101270005910001040000034B01E0020F0B5574651
:101280004546DE464E46E0B585B0019310AB1B786F
:1012900000270393002380469A46009243465A68EB
:1012A000EFF3108972B61368002BFCD0BFF35F8F89
:1012B00043461D68AC7B002C4FD066002B68361966
:1012C000033E9B195A78AA73002A00D1EA7342465A
:1012D0009F705F701F7092684A4B94460099019A04
:1012E000E3181B01634419605A600E9A9A600F9AC2
:1012F000DA602B689B199F705F701F706B7B9B4639
:10130000002B46D022001900A8686B6898472A680D
:10131000002831D05B4658465B005B449619033B7E
:10132000B070D118D35C002B00D073705B460C708A
:101330006B735C452ED04346DB681B19013B187864
:1013400043465B68BFF35F8F1F6089F31088534685
:10135000002B2ED10002204307E05B68BFF35F8FB4
:101360001C6089F310880120404205B03CBC9046C7
:101370009946A246AB46F0BD5B465B005B44033B2F
:10138000D3189C709119925D002A00D05A705B4668
:101390000B706C734346187D009A019B00F0E4F9D2
:1013A00082460028C7D043462100186800F02AFC76
:1013B000C1E7039B002B23D00E9B00200F99984779
:1013C000030004000D000B431AD000290ADA009A2A
:1013D000019B121BAB4100920193002B0ADB039B84
:1013E0009A465BE700F060F924184D41009401959E
:1013F000002DF4DA0123044C5B4200930194EEE7E4
:101400000020B2E7FFFFFF0FFFFFFF7F70B54268CC
:101410000400EFF3108572B61368002BFCD0BFF305
:101420005F8F2068CAB2437B93420AD0FF230B40F0
:101430005E00F3180668B4466344033B9B78002BB8
:1014400013D0E668FF23B4460B406344013B090A0E
:101450001E78C9B28E420DD000206368BFF35F8F43
:1014600000221A6085F3108870BD22698A42F3D188
:101470002361F1E7110000F0C5FBEEE7F0B50400D1
:101480000D0006267642F717C64636196F4100B59D
:1014900084B08F4214D811D000F006F932003B001E
:1014A000121A8B41002B15DC002B3ED020002900A6
:1014B00000F004F904B004BC9046F0BD8642EBD9BC
:1014C0000026002700F0F0F832003B00121A8B4192
:1014D000002BE9DD002302930193154B32000093AA
:1014E00014483B00FFF7CAFE0028DFDB00239846C4
:1014F000BC46114A114F7B6A9C4504D8B96A8E429A
:10150000D4D99C45D2D11168EFF3108072B60B6824
:10151000002BFCD0BFF35F8F1368BFF35F8F414692
:10152000196080F3108820BFE5E7002ABED0D1E71C
:10153000210F0010C8140020D41E002000400540D8
:1015400070B5060000F0B0F8FA2204000D00002388
:1015500030000021920000F06DFF00196941002960
:1015600002DBFFF78BFF70BD012001494042F8E725
:10157000FFFFFF7F70B5EFF3058305000C0084B01B
:10158000002B0FD0104B0020596A8C4203D89B6A65
:101590000130AB4201D304B070BD641A611E8C41AE
:1015A000E0B2F8E7094E02930193094B0200009361
:1015B00030000B00FFF762FE011EE3DD20BF3000AC
:1015C000FFF724FFDEE7C04600400540C8140020B6
:1015D000210F0010F0B5EFF30582D6464F46464680
:1015E0001000C0B51038EFF3108872B6214C236894
:1015F000002BFCD0BFF35F8F0123190081401E4DEB
:101600001F006963AA461D4D29601D4D2E78AC460A
:101610003500C5402F402B4215D05346194D5F6A07
:1016200083005D59AF4218D3174A8E439B586246D8
:101630001670BFF35F8F0022226088F31088002BA2
:1016400006D0984704E0BFF35F8F276088F31088C7
:101650001CBC90469946A246F0BD0C4B92009C469D
:10166000624413681360BFF35F8F0023236088F325
:101670001088EDE7280100D0004005403C7005408F
:101680001B1F0020D81E002014190020D03F054049
:1016900010B50100024A0348FFF7E4F810BDC04648
:1016A0007C470010191F0020034B596A0A00986AF2
:1016B000596A8A42FAD1704700400540064A536A87
:1016C0009942FCD807D1044B02E05A6A914202D1F8
:1016D0009A6A8242F9D370470040054070B5040011
:1016E0000D00EFF3108672B61A4A1368002BFCD077
:1016F000BFF35F8F002D1BD02000FFF76DF9164957
:1017000081420AD02000FFF76FF901212000FFF786
:1017100045F90123A340114A1360114BA400E55081
:10172000BFF35F8F00220B4B1A6086F3108870BDE9
:101730000B4BA200D5500122A2400A4920000B7891
:1017400093430B700449FFF759FA00212000FFF77B
:1017500025F9E5E7280100D0D515001038600540CF
:10176000141900201B1F0020F0B54F46D6464646F0
:10177000C0B50700304C616A0D00A66A616AA942D3
:10178000FAD18B4208D805D001201CBC904699465E
:10179000A246F0BDB242F7D9EFF3108972B62748DE
:1017A00001680029FCD0BFF35F8F01252449BD40AB
:1017B0008C460978204C0E002E438846F1B28A46AA
:1017C000614650460870391D1E48890065630A51FC
:1017D000B9000B50216A0020294219D0616A080023
:1017E000A66A616A8142FAD18B4219D801D1B2420C
:1017F00016D8C2451DD0104B1F201D625D6301230A
:101800000740BB40104A1E381360634642461A70B8
:10181000BFF35F8F0022094B1A6089F31088B4E789
:101820000020BFF35F8F0022044B1A6089F31088F9
:10183000ABE70120ECE7C04600400540280100D09E
:101840001B1F0020D81E002080E200E010B5EFF33F
:10185000108472B60A490B68002BFCD0BFF35F8F6F
:1018600001238340074A0848136202789A430270B2
:10187000BFF35F8F00230B6084F3108810BDC04658
:10188000280100D0004005401B1F002070B5050056
:101890000E001400002924D0002A24D080686B6830
:1018A0009847296800280ED063001B197200033B7B
:1018B0009219CB18033A9E7088188A5C002A14D1BA
:1018C000047030000EE073009B196200033B121994
:1018D000CB18033A9C7088188A5C002A00D05A7092
:1018E0000670200070BD0800FCE75A7004703000DC
:1018F000F8E7C04630B583600023CCB243730133B0
:10190000047342608373C4730D000068012C06D910
:10191000421C0133DBB2137003329C42F9D1FF2128
:1019200029404B005918002340180338437030BD3C
:10193000F8B5CE46474606000C0080B5002907D012
:101940004D0003686D18033D5A195778002F04D1D4
:1019500020000CBC90469946F8BD7900C91903399E
:1019600088464344597889460021597051707368FC
:101970003A002100806898473368002814D0424616
:101980009A18947059195B5D002B00D053700F703A
:10199000270049463000FFF7CBFF39000200300036
:1019A000FFF774FF0400D3E7424641465D19AF706C
:1019B0009A185B5C002B00D06B701470E9E7C0468E
:1019C000F0B557464546DE464E46E0B50D006B0085
:1019D00001685B19DF1E0400C85D83B00192CA195B
:1019E000002850D043001B18033BCB185E78B44648
:1019F000002E1AD1019E002E42D0E67B002E04D08C
:101A000073009B19CB18033B5D70A37B002B00D1A7
:101A1000A573E57300282FD10023537003B03CBC9D
:101A200090469946A246AB46F0BD72006244033A26
:101A300089184A78904600224A7091465A700100EF
:101A400032002000FFF722FF43468246002B07D0DA
:101A50005B0021684344033BCB185A78002A16D117
:101A6000424651462000FFF711FF2168019BCA1929
:101A7000002BC2D10028CFD043001B18033BCB184A
:101A800000219970C8E7019B002BB6D1C4E7500034
:101A900080180338091848788346484648705870BB
:101AA00041462000FFF7F2FE594680462000FFF72E
:101AB0003FFF414602002000FFF7E8FE8046CFE7E7
:101AC000F0B54E464546DE465746E0B5467B040037
:101AD00075000068AD19033D83B00191415D421965
:101AE000002952D04B005B18033BC3185F78BC46FB
:101AF000002F1CD1019D002D44D0E57B002D04D08A
:101B00006B005B19C318033B5E70A37B002B00D1F5
:101B1000A673E673002931D100233000537061733E
:101B200003B03CBC90469946A246AB46F0BD7A0055
:101B30006244033A801842789346002242709146EC
:101B40005A7020003A00FFF7A1FE5B468046002B4A
:101B500007D05B0021685B44033BCB185A78002A0E
:101B600017D15A4641462000FFF790FE019B010025
:101B700020684219002BC0D10029CDD04B005B1842
:101B8000033BC31800209870C6E7019B002BB4D11B
:101B9000C2E7500080180338091848788246484642
:101BA0004870587059462000FFF770FE5346834630
:101BB000002B07D05B0021685344033BCB185A78B5
:101BC000002A06D1594652462000FFF75FFE8346A1
:101BD000C7E7500080180338091848464F78487006
:101BE000587051462000FFF751FE39008146200011
:101BF000FFF79EFE494602002000FFF747FE82469F
:101C0000E0E7C04670B5040000292CD0437B8B422E
:101C10002ED0056848004018033828188278002A1A
:101C200021D053009B18033BEA5CEE188A4202D194
:101C30001BE0002A08D053009B18033BEB185A788E
:101C40008A42F6D142785A70002301228370437091
:101C50002000FFF7B5FE617B02002000FFF716FEB3
:101C60006073012000E0002070BD43783370EBE723
:101C700001221900FFF7A4FE60730120F4E7C046BB
:101C8000F8B5040006200D0000F0CAF9002845D080
:101C90002B4B2C49E3185A4253418022D2039446DD
:101CA0005B421340284A63441360284A13601800BB
:101CB0008A689043FBD1224B8021E3185A4253415A
:101CC000234A5B0049000620995200F0A9F9290037
:101CD000C00000F013FBC30921D1402701222600D8
:101CE00080256262A36200232C36AD0135432B6050
:101CF000062000F095F93900800000F0FFFA60231B
:101D0000E26A53406E221A4080235B0133431A601B
:101D1000104B236310232B600D3BA364F8BD0E4AC8
:101D2000934203D900230D4F0D4AD8E77F2210407C
:101D3000013040089F011A003F180300CFE7C0465A
:101D40000080FCBF00C0004000E0004000F0004008
:101D50004420002001030000FEFF0000C0FF3F0000
:101D6000FFFF000030B50C2083B000F0B3F9FEF7A0
:101D70005BFD00280ED0944B944A1A605A609A601A
:101D8000DA601A615A619A61DA611A62904A5A629B
:101D900003B030BD8F4CA06700F0A4F901228E4B38
:101DA0001A60636C012BFCD103228C4B1A60894AA8
:101DB000936B012BFCD101330121894A894800939F
:101DC000043300F033F90523874A00930121874843
:101DD00000F02CF9864B5A68FF2A02D88022520064
:101DE0005A608022784C7D4B21691201804D1A6027
:101DF000002905D0606900F081FA01300138FDD179
:101E0000E0217B4B02201A681140802252012A43B4
:101E100011601968484003210140116004219A684B
:101E20001142FCD08022802192012A4309011160D5
:101E3000802252005A606F4B23616F4B5968FF2913
:101E400000D85A6003226C48634B01211A600200DB
:101E500093681942FCD0E02513681D4080235B0184
:101E600003431D6012684A4003211140196002219A
:101E7000614A93681942FCD0802380219B0103436F
:101E80000901196080215D4B4900516063615C4B21
:101E90005A68FF2A00D8596080225A4BE169120122
:101EA000574D1A60002905D0606900F027FA01300B
:101EB0000138FDD1E02252490B681A4080235B01B2
:101EC0002B431A60802380229B012B4312011A604E
:101ED00080223E4B52004A60E3614B4B5968FF2918
:101EE00000D85A608022494B216A1201464D1A607F
:101EF000002905D0606900F001FA01300138FDD1F8
:101F0000E02241490B681A4080235B012B431A6091
:101F1000802380229B012B4312011A6080238022A0
:101F20005B004B60294BD2022362394B59689142C6
:101F300000D25A608022374B616A1201344D1A6018
:101F4000002905D0606900F0D9F901300138FDD1D0
:101F5000E0222F490B681A4080235B012B431A6053
:101F6000802380229B012B4312011A608023DB0215
:101F70004B60174B6362284B5A68FF2A02D88022B5
:101F800052005A608022254BA1691201224D1A602D
:101F9000002905D0606900F0B1F901300138FDD1A8
:101FA000E0221D490B681A4080235B012B431A6015
:101FB000802380229B012B4312011A6080235B0047
:101FC0004B600E4BA361E3E6301A0020006CDC028C
:101FD0001BB70000008000403CB0004030B0004023
:101FE000002F685900800240008C864700C00240E4
:101FF00030800040001BB7003C8000404059730710
:102000005480004054B000406080004060B0004008
:102010006C8000406CB000404880004048B00040F8
:10202000014B8000C0587047301A0020F8B50400FA
:102030000C2017001D000E0000F060F94101091A84
:102040008B01591AC90009188901380000F056F9A6
:10205000069A2B04120313432268002A21DB194A33
:10206000A21851424A41802149018C4652420A40FD
:10207000154962440A6015490A60154917008D68C0
:10208000AF43FBD1C021221D8901114321222660CB
:10209000A0600A602268002AFCDAE36008230B6073
:1020A000F8BD3F2221680A40B242D8D1A268120589
:1020B000120D8242D3D1EE21E268C9020A409A424F
:1020C000CDD1EDE70040FDBF00E0004000F0004052
:1020D00000C000408023024A9B000343D362704744
:1020E00000800540AA23064A1B0113602F230549DF
:1020F000D360054B19605368002BFCDA7047C0466B
:102100000040024000B0FA00006002402C4B2D4A13
:1021100070B51A602C4A2D4B2D491A6010008B683F
:102120009843FBD12B4C2C4B9C4209D2013B1D1BED
:10213000AD080135AD002D1908CC9847AC42FBD154
:10214000FFF710FE254A214B1A60214A9368DB01F4
:102150008033FBD14022224B224C234D9A675A6791
:102160001A67DA66AC4208D223682000002B21D01F
:102170000834FEF79FFEAC42F6D31C4C1C4DA16800
:10218000C022280000F0C6F9A560FEF7DDFBFEF7CF
:1021900069FEFFF73DF8174C174B9C4209D2013BF3
:1021A0001D1BAD080135AD002D1908CC9847A5427F
:1021B000FBD170BD0834FEF76FFEAC42D4D3DCE730
:1021C00000E00040BFCDFBFEFE7F3C0000F0004081
:1021D00000C000406015002070150020FFFFFF01C7
:1021E00000F00140501500206015002000ED00E0D7
:1021F00000000020701500207815002000BEFDE7CB
:1022000010B5FFF7FBFFC0460FB400B5084883B018
:1022100000F0A6FA049B002B07D005A91800019135
:1022200000F018F8034800F09BFA0120FFF7E6FFE2
:10223000A0470010B047001010B50148FFF7E4FFB9
:10224000B447001010B5002800D110BD00F03CFAD2
:10225000FBE7C04610B5094A0300146884B0002C9F
:1022600008D0012200910648524203A9A04701204C
:1022700004B010BD00F074FA0020F9E7A81E002099
:102280004522001001480421014B1847F01400209A
:10229000C1220010014B9B6818470000F014002079
:1022A000142310B50100188804331B88984710BD0B
:1022B000162310B50100188802331B88984710BDFB
:1022C000F0B5C64600B5002916D014230400012538
:1022D00098461827890046184346216818883B8885
:1022E000984701C4431E984140420540A642F3D19D
:1022F000280004BC9046F0BD0125F9E7114A936F10
:102300009B0813D210665166002905D0FFE7FFE74E
:10231000FFE7516F106F704704B5002801D000200F
:10232000C04302F081F9002104BDC046F0B5146E2F
:10233000556E576F166FFFF7E5FF146655665767C2
:102340001667F0BD000000D0132370B51D78012D75
:1023500015D010DD2748FFF7ABFF274C0100802286
:10236000200000F0D7F8022D06D02448FFF798FF90
:10237000234B186070BD204C224AA264F5E72E0062
:102380001D4C204AA3085B421E401D422FD0330043
:1023900022602020B1006118801B0A604A608A60B8
:1023A000CA600A614A618A61CA610A624A628A62D3
:1023B000CA620A634A638A63CA630A644A648A64B3
:1023C000CA640A654A658A65CA650A664A668A6693
:1023D000CA660A674A674008102803D18A67CA6735
:1023E000A264C2E71E339B00E250A264BDE7002353
:1023F000CFE7C04653440000482000204C33000083
:10240000D01E00200924001007B5604601880A0A82
:102410000230DF2AFAD1C9B2820804D30288408888
:102420000004104300E00068014A5050039007BDCB
:102430004820002051434343C9188C46110C83B2F5
:102440004B4310B4040C614392B280B250436243D8
:102450001C041B0C001910BC59411304120CC018A9
:102460005141614470470000132310B512481C7895
:10247000FFF71EFF0100012C0AD003DD80220F4868
:1024800000F048F80E48FFF70BFF0E4B186010BD28
:102490000A4C5422200000F03DF80B4B6365A36505
:1024A000E36523666366A366E36623676367A367E2
:1024B000E3672362E361E5E753460000482100201B
:1024C0004C330000D01E0020CD24001007B560461C
:1024D00001880A0A0230DF2AFAD1C9B2820804D37D
:1024E000028840880004104300E00068014A505010
:1024F000039007BD4821002001480421014B1847E3
:1025000000150020C1220010014B1B681847000075
:1025100000150020014B5B681847000000150020E3
:10252000030010B508001B681100984710BDC04695
:10253000F8B54746CE4680B5437D07000D0016002E
:10254000002B37D000240020002A1EDD4B1E9846A9
:102550001B4B9946002C2BD043461B5D0D3B5A422A
:102560005341DBB22A5D0A2A13D00134A642F1DCC2
:10257000864203DD311A3B6828189847AD19013DA2
:102580002B780D3B5A4253413B750CBC9046994603
:10259000F8BD002BE9D1A04203DA211A3B682818C4
:1025A0009847484602213B68013498472000DDE700
:1025B0003B7DD7E70368110028009847E5E7C04650
:1025C00084480010F0B5DE4657464E464546E0B515
:1025D00085B017001C0006000D00FFF765F800230A
:1025E000324A12184B41002B5BDB314908008A4606
:1025F00002F02AF801906B1C03D1300001F0B4FF07
:102600000500002C28D12B4B98462B4B1C68002C26
:1026100015D0002F23D1294F02E02469002C0ED0C1
:102620002368002BF9D03B68002B01D0A342F4D1E2
:1026300020002A003100C0472469002CF0D1019B02
:10264000002B2AD1681E8541E8B205B03CBC9046FB
:102650009946A246AB46F0BD194B9846D5E7174BB5
:10266000994602ABDF1D0A239B4602E02469002C39
:10267000E5D02368002BF9D04B461B68002B01D016
:10268000A342F3D12A0031002000C0475B4601225B
:10269000390020003B70C047E8E7504601F0ACFF2E
:1026A000D0E70122074B52429FE7C04640420F004D
:1026B0005815002031250010981A0020A01A00207B
:1026C00021250010FFFFFF7FF0B5CE46474680B5BD
:1026D00083B06B460500DE1D3070FEF7E5FF00237A
:1026E0001A4A12184B41002B2CDB19490800884666
:1026F00001F0AAFF174B07001C68002C16D0164BE0
:10270000994602E02469002C10D02368002BF9D0F0
:102710004B461B68002B01D0A342F3D120000122BD
:102720003100FFF705FF2469002CEED1002F05D101
:10273000280003B00CBC90469946F0BD404601F01D
:102740005BFFF5E70122054B5242CEE740420F0006
:1027500058150020981A0020A01A0020FFFFFF7FC4
:1027600070B5040001F000FF002301000500012204
:102770002000FFF727FF084B1C68002C06D0636879
:10278000002B05D098472469002CF8D1280070BD93
:102790002469002CF3D1F9E7981A00200A4A13683B
:1027A000002B05D10CE01A001B691032002B07D05A
:1027B0009842F8D1002902D1036913600161704782
:1027C0000029FCD01060FAE7981A0020F0B50D1E21
:1027D00015DD0E4B0D271A680D4B4519D3185942BC
:1027E0004B410C495B005E5E20210478A64207D075
:1027F00093691942FCD101301460A842F5D1F0BDB3
:1028000093691942FCD11760F2E7C0460C1F002003
:102810000080FCBF4420002030B50500002926DDE3
:10282000002010241B4B013D1A6893691C4219D1EA
:10283000013093691C42FCD113682B548142F4D1BE
:10284000154B1B68002B0CD050239363516B183B26
:1028500034320B401100802252010A4313600028D9
:1028600015D030BD0C4B1B68002BEDD1F7E70A4BA0
:102870001B68002B0BD050223821064B1B689A6333
:102880005A6B3433114080225201134319600320E4
:102890004042E6E70C1F0020241A0020064B10B52A
:1028A0001B68002B06D00021044A12689163044A79
:1028B0001068984710BDC046241A00200C1F002045
:1028C000281A00201D4BF0B51A68C64698461C4BC6
:1028D0000E00D31859424B411A4F14331C00050007
:1028E00000B53B68002807D0002B11D0164B3D6087
:1028F0001E6004BC9046F0BD002BF7D09063002111
:102900002000FEF74BF820001049FEF777F9EDE7BD
:1029100020000E49FEF768F801212000FEF73EF87E
:102920004346502238211B689A635A6B3433114056
:102930008022520113431960D8E7C0460C1F0020C3
:102940000080FCBF241A0020281A00209D280010B7
:1029500070B50C4E0D001C003060002A03DB022114
:102960001000FDF72BFF002C03DB02212000FDF7F8
:1029700025FF29003068FFF783F901210248FFF79E
:102980000DFF70BD0C1F002010150020F0B5DE46B5
:10299000454657464E46E0B5060083B00D00FDF7AC
:1029A0004BFF304B2F79F1184B4259412E4B0524E8
:1029B00098468B009B4643465A469B5820229C468D
:1029C0000123BB4001902C57013BD21B002C32DB72
:1029D000944243DCA34062461A423FD19946002FFD
:1029E00018D06B782A781B021A43AB781B04134368
:1029F000EA7812061A439246002351465A008D5A2D
:102A00006A0B00D12D191A19123292000133955117
:102A10009F42F2D863464A465946134342460198BC
:102A20005350FDF715FF200003B03CBC904699467B
:102A3000A246AB46F0BD002A10DB1900604691406B
:102A400014008946014207D1C9E718006146904049
:102A5000140081460842C2D0013AF6D20348FFF77B
:102A6000D3FBC0460000D0AF90170020884800106C
:102A7000F0B5DE4657464E4645468B46E0B51C004F
:102A800085B04B0003935B44DB00C5182E00DC3699
:102A900017003268844600922A00CC321268CC3388
:102AA0000192C02263449201134380229202029059
:102AB0001A60002C18D08023DB049A460123994623
:102AC000134BD83598462000FFF7E4FB52464301EC
:102AD000134333603B004A46C3401340424613430E
:102AE0002B60631E1C40EED1039B009A5B44D80010
:102AF000029B9C4660440300DC331A60019BCC308F
:102B0000036005B03CBC90469946A246AB46F0BD7A
:102B100080E00000F0B501258D400468AC434D0015
:102B200004606C18E40004192600C836002B28D075
:102B30001F68DC3437605F6877609F68DB68B76068
:102B400023606B18DB001D008024D035451964011B
:102B50002C4380252D062560256001250F4C2E0075
:102B60008C4084600C1DA640802408318D401F21BC
:102B7000A4010443C0180A40D830266025600260D2
:102B8000F0BD80277F023760F8277F027760C0277B
:102B9000DC343F03B7602360D3E7C0460101010185
:102BA00000B5054B83B00100009300220B230348BE
:102BB000FDF77CFE03B000BD9C480010141F0020F0
:102BC00003BDC04610B50400FEF74CF9A04710BD88
:102BD000D02202211206136D1942FCD0506540BF6D
:102BE0007047C046D0221206136DDB0704D40121C2
:102BF00020BF136D1942FBD0D0231B06986D704780
:102C0000F0B5040087B00F200D001700FDF7D8FEC7
:102C1000002106000F20FDF7C1FE002300220092D4
:102C2000019301230293D0230495059400250020ED
:102C30000121022403971B06002D14D01A6D1442A3
:102C4000FCD05D6540BF1A6D114203D120BF1A6DE3
:102C50001142FBD09A6DAA420AD000206D46820034
:102C6000AD58E9E79A6D1A6D1142FBD140BFE5E717
:102C700001300528F2D931000F20FDF78FFE07B093
:102C8000F0BDC0460B4B0C4A10B5934201D2012354
:102C90005B421900094A985004329B50084A094B7C
:102CA0000948CA50094B9A68044B9C466144FFF797
:102CB000A7FF10BD0008042000000420F407000056
:102CC000C52B0010FC070000C12B001000ED00E038
:102CD00010B5024800F00CF810BDC046C01E002020
:102CE00010B508220149FFF715FC10BDC01E0020D9
:102CF00030B5002589B004000922002101A8009503
:102D0000FFF702FC0922002105A80495FFF7FCFB50
:102D10004B236A466846137004A90D2201F064FC37
:102D20001521082220006944FFF7F4FB09B030BDEB
:102D300010B501210520FDF731FE10BD10B50022B0
:102D40000021024800F05CF910BDC046C81A0020FE
:102D50008022024B5202DA647047C04600201150B4
:102D6000F0B5C64600B5060000F024F90C231C4D52
:102D7000FF22AB6705201B49FDF760FE4023984604
:102D8000194C402200212000FFF7BEFB41460023E2
:102D90000127002221202183144967706380E27695
:102DA000A1600B6022545F30608440462087053864
:102DB0000F4922540F4A6360E160A26213606362AC
:102DC000E16201F029FC80239B052F64EB649023D2
:102DD000094A3000EA50FFF7BBFF04BC9046F0BD43
:102DE00000001150AD0A0020A81A002084001050E5
:102DF000000110508000105010D001000B785B06CD
:102E000002D14B78052B00D070478A78014B1A60AD
:102E1000FAE7C04600001150F0B5C64600B5CC78C0
:102E200088780A794B797F21A40701401B02C509E4
:102E300013434F00A20F1400324E7A195201B218F8
:102E4000907001206840507000205B055B0DD070D1
:102E50001383D4768046CA00012D33D02A48844695
:102E6000880162448446B4446046826040461060F3
:102E7000002933D0254AC90090466246414451603A
:102E80003F223F339343022C00D15B0020487A1944
:102E900001685201B218D1601E4ACB18036051403C
:102EA0005340802288465201934228D84346A406C4
:102EB0001C4380237F197F011B06F6191C4373688E
:102EC0001C6011E014488446880162448446B4447E
:102ED0006046826240461060002909D100236D01DE
:102EE000761973600D4BF360012004BC9046F0BD71
:102EF000084AC9009046624641445162C0E7FFF764
:102F00009BF9D3E7A81A0020840010500400105049
:102F1000AC1E002000001050800010500001105026
:102F200010B501F079FB10BD10B57F200C002040DA
:102F30004000E409110000191A00034B4001C018B9
:102F400000F05EF8012010BDA81A00207F231800B1
:102F500010B508400B420BD0C90980224000401830
:102F60000649400140181201002101F095FB10BDF7
:102F70000223034AC9095B1A9366EEE7A81A0020E8
:102F8000002011507F23180010B508400B4200D1DB
:102F900010BD00234000C9094118044849014018E8
:102FA00000220349C37001F077FBF1E7A81A002063
:102FB000FFF7FFFF80220D4B520410B51A600C4B37
:102FC0000C491A6010008B689843FBD10A4C9C2274
:102FD00000212000FFF798FA8022002152010748C3
:102FE000FFF792FA0923636710BDC04600E0004076
:102FF00000F0004000C000400000115000001050E0
:1030000070B5837E04000D001600002B19D100233B
:103010002100E3820133A682A3762561A01C1B3127
:1030200001F02AFB002804D080219023084A89025D
:10303000D150200001F018FB002805D00123237790
:1030400070BD01F021FBE2E7200001F005FBF7E78E
:1030500000201150034B1878FF38431E9841C0B22E
:103060007047C0464C150020F8B5CE46474680B59F
:103070002C4E050033780120FF2B03D00CBC90466A
:103080009946F8BD532200212748FFF73DFA274C07
:103090002000FDF701FF264B1C60264C2000143059
:1030A000FDF716FF200001F027FA234B234F1C6089
:1030B000234B9846002B04D0380000E000BF214B82
:1030C0001860424600243B78002A23D01E4A9046CE
:1030D0001C4A9146A34212D80FD143469847013467
:1030E0003B78E4B2A342F5D228003570FFF738FEF2
:1030F0002800FFF71DFE0120C0E70020BEE74A467A
:103100001268630094461B19DB006344002BF4D063
:103110001B68E3E700F082FE3B780020002BADD176
:10312000E2E7C0464C15002034170020EC160020C2
:1031300088170020301500208C170020161F002053
:1031400000000000941600201D3E0010F0B5DE4681
:1031500057464E464546E0B58DB000F059FF002871
:1031600000D10EE1CE4BCF4F9A46CF4D09AC3E6811
:103170007269EFF3108172B61368002BFCD0BFF3B5
:103180005F8FB1613000210001F000F87269B3690E
:10319000BFF35F8F0021116083F31088002800D1F6
:1031A000EFE06378082BE2D852469B00D3589F4645
:1031B0006368002BDBD0A0689847D8E77F2221798D
:1031C000B94E0A4050003618B046CB0998444046E4
:1031D00001263030C378B343C370C3780336B3439A
:1031E000C370002A00D1F1E04346B04ADB7C002ADC
:1031F00006D0AF4A1278934200D245E19B1ADBB267
:10320000002B00D0BDE0AB4E62792078A368B047B8
:10321000ADE701222B78012113432B7033230420C7
:10322000EA5C8A43EA54EA5C8243EA540133EA5C8A
:103230008A43EA54EA5C8243EA54237800209B469E
:1032400000F0BEFC602223791A40602A0DD0402A8B
:1032500000D1C1E0DB06DB0E012B00D13CE1022BEB
:1032600000D1D6E0002B00D1C5E020780021FFF787
:103270006DFE80212078FFF769FE78E78A4E33786B
:10328000DB0700D473E78C4B002B00D16FE700E025
:1032900000BF6CE7844E3378DB0700D467E7874BC9
:1032A000002B00D163E730780007C00F00E000BFBB
:1032B0005DE723787D4A98467D4B002699461B782A
:1032C000002A00D17AE07E4A9346B34260D819D1F1
:1032D0007C4B404698474B4601361B78F6B2B342CA
:1032E000F3D2714E532200213000FFF70DF9102266
:1032F000FF21F01CFFF708F930002022FF211330D6
:10330000FFF702F900F052FC6F4B002B00D12EE7C3
:1033100000E000BF2BE72378644A9846644B002600
:1033200099461B78002A1FD0654A93469E423AD39D
:1033300021D1644B404698474B4601361B78F6B284
:10334000B342F3D2584E532200213000FFF7DCF88D
:103350001022FF21F01CFFF7D7F830002022FF21B8
:103360001330FFF7D1F807E0404600F085FD4B46EB
:103370001B78002BE6D04C4E00F018FC2379B3707C
:10338000F5E60DB03CBC90469946A246AB46F0BD72
:103390005A461268730094469B19DB006344002B65
:1033A000B0D05B6895E75A461268730094469B1943
:1033B000DB006344002BDED05B68BBE7404600F0D7
:1033C0005BFD4B461B78002B9CD18AE76279207805
:1033D000A36800F009FCCAE63C48002800D144E795
:1033E00000F0EEFB012158460AAAFCF7DBFF00289B
:1033F00000D0BCE639E7202A00D1A2E0002A00D0A4
:1034000033E76379092B00D92FE7314A9B00D35862
:103410009F467023217A0B4200D026E70F330B40E2
:103420005B00E818CE090193204B8019C07C002B6B
:1034300006D01F4B1B78984200D2A5E0C01AC0B23C
:10344000002800D09AE0002A00D058E1214B98468D
:1034500063791A00994602239A43012A00D152E166
:103460004B46002B00D000E7019B08AAEB189E19E1
:103470003036F37802329B07DB0F13805846022365
:103480000AA900F037FB72E65A00D3180C4ADB0099
:103490001268D318002B00D173E71E69B4E6C0464A
:1034A000244900108C170020341700200000000071
:1034B000161F0020593F001000000000000000000F
:1034C00094160020793E001000000000A5030010B3
:1034D00048490010B0490010237A0F2B00D9C4E6E8
:1034E000B54AEB18DB78002A05D0B44A127893422B
:1034F00063D39B1ADBB2002B00D0B6E6B048B14EC6
:1035000000F05EFB01215846F3680AAA984700289C
:1035100000D02CE66022160023791E401A4200D00B
:10352000A3E663790A3B012B00D99EE600F048FB35
:1035300063790A2B00D135E158460AA900F0C2FA96
:1035400015E6237A0F2B00D98FE69B4AEB18DB7820
:10355000002A06D0994A1278934200D2F6E09B1ACC
:10356000DBB2002B00D080E69548964E00F028FB99
:1035700001215846F3680AAA984738E7002A00D084
:1035800073E60023984663E7430098468E4B404419
:103590001B68C00098468044002A00D158E7434683
:1035A000002B00D161E6D86800F00AFB43460121F8
:1035B0005846DB680AAA984719E7834A5E00F31861
:1035C0001668DB00F618002E00D14EE6F06897E78B
:1035D000A37901931A006B789A4207D06B78002B7D
:1035E00000D058E1019B002B00D0F9E0019B584628
:1035F0000AA96B7000F066FAB9E56B7808AA023286
:103600001370584601230AA900F074FAAFE5E08868
:10361000030AC0B20F2B00D927E66C499A008A58DA
:1036200097460AA800F0D2FA5846A179FFF786FB20
:1036300002222B7813432B7099E5E388012B00D0ED
:1036400013E608222B78584693430AA92B7000F002
:1036500039FA8CE50220297808AB9A1C8B06890878
:10366000DB0F01400B4308E7E388012B00D0FCE5AA
:1036700008222B78584613430AA92B7000F022FA2F
:1036800075E5534B002B00D1EFE500E000BF021EB3
:1036900000D1EAE5D37891781B020B4358460AA97A
:1036A00000F028FAA3E64B4B002B00D1DDE500E04B
:1036B00000BF021E00D1D8E5584613780AA900F0D1
:1036C00019FA94E62189FCF7BFFF021EF4D1CCE57C
:1036D000022B00D11DE1404B002B00D1C5E500E0DD
:1036E00000BF0200002A00D1BFE5D3E7FCF7A4FF2A
:1036F000122302000AA9584600F0FCF977E6314B84
:103700002F48984650E7E288002A09D14B46012B02
:1037100027D0019BEB189E193036F3789B0734D5E0
:103720004346002B00D122E5D86800F049FA434611
:103730000121DB680AAA58469847002000F040FAA9
:103740003423EB5CDB0700D511E5F5E61E4A5E008D
:10375000F3181668DB00F618002E00D185E5F06836
:1037600004E7019BEB189E193036F3789B07D7D5F9
:103770001A4B1878FFF706FC0222F37893434A4667
:10378000F370F3789343F370CAE7144B1878FFF79C
:10379000DDFB0222F37813430122F370F378134325
:1037A000F370BDE708AB9A1C584601230AA91670AE
:1037B00000F0A0F9DBE4C04600000000161F002066
:1037C000A5030010B04900109416002070490010A5
:1037D0000000000000000000000000004C15002068
:1037E000581EC0B2FCF72CFF002800D13DE54378FD
:1037F000022B00D039E501223026C1798B11491105
:103800001340114009015B010B432978B1430B437D
:103810002B700923994681444E46C37881781B0258
:103820000B43C31803930792039BB34200D8ADE048
:10383000079A737804920B2B03D1F37804933378AF
:10384000F6187378042B00D00FE50021039B554A2E
:103850009B1B9BB20293544B884605931B788A426C
:1038600068D032000E0090469E4256D300D0FCE451
:103870004E4B029A4146584691469847082803D92C
:103880004B46834200D388E0059B01361B78F6B295
:10389000B342E9D2E9E45846FFF742FBAB78414A2C
:1038A0000293414B002699461B78002A0ED0404ACD
:1038B00090469E4223D31FD13E4B584698474B46D5
:1038C00001361B78F6B2B342F3D206E0584600F058
:1038D000D3FA4B461B78002B0ED15322002128002F
:1038E000FEF712FE1022FF21E81CFEF70DFE20223B
:1038F000FF213148FEF708FE029BAB7072E642469C
:1039000018231268734394466344002BF4D05B6819
:10391000D3E7FCF795FE0200E4E6254B1B6806930F
:103920001823069A734394466344002B00D19CE409
:103930009B689EE731005846029A00F0ABFA814638
:10394000082800D891E4029B834200D28DE4002233
:1039500040460AE0B378D318DBB2EB18D978FF29D8
:1039600000D082E40132D870D2B2049B9A42F1D1E5
:103970008046030031004A460F4800F089FB059B52
:103980004E441B78434500D34EE76EE40B4B002BAF
:1039900000D12BE600E000BF28E643468146B04652
:1039A0001E00D4E700000000161F0020953E001006
:1039B00094160020793E00104717002000000000F8
:1039C000F8B557464E46DE4645460C00E0B51600B3
:1039D0001F00002A3CD0702398461E4B00259B46B2
:1039E0001D4B9A461AE05B461B78200099465346C9
:1039F000997800F011FB00281CD021004846FFF701
:103A00000BFA002816D0A378DA09012A19D00A9AED
:103A1000013513702378E418B54219DA6378052B61
:103A200008D1E3789B079B0FBB4203D14246A378A2
:103A30001A42D8D000203CBC90469946A246AB46DC
:103A4000F8BD0B9A013513702378E418B542E5DB15
:103A50000120F0E74C1500203417002070B57F24BA
:103A60000C4060000E4CCD09241864193034E57800
:103A70000020ED0700D570BD0126E57809483543E3
:103A80000078E570FFF750FA0028F4D10122E378BE
:103A90009343E370E37803329343E370EBE7C0466C
:103AA000341700204C1500207F22CB090A4004491E
:103AB00052008918C9183031C878C007C00F704744
:103AC0003417002070B50A4E0500082230000C00A3
:103AD000FEF720FD002161560023C943C90F2800CD
:103AE000F3600022C901B360FFF7B8FF70BDC046A4
:103AF00098160020F8B5CE4647469046294E80B528
:103B00008146082230000D001F00FEF703FD4346EA
:103B1000B3600023F381EC79AB7924021C43231CAE
:103B2000BC4200D93B1C9FB2B381002C12D0002FA5
:103B30001ED04346002B32D03B1C402F1ED89FB2D4
:103B400033787F2B1FD80021174A3B004846FFF7E8
:103B500085FF09E0002169560023C943C90F0022EF
:103B60004846C901FFF77AFF0CBC90469946F8BD5C
:103B700033787F2B10D980210022E6E740239FB2C3
:103B800033787F2BDFD9084C3A0041462000FEF7FE
:103B9000C1FC80212200D8E700210022D5E70020C7
:103BA000E2E7C04698160020F416002010B5142253
:103BB00000210248FEF7A8FC10BDC0469816002060
:103BC000014B18617047C0469816002010B5054C8F
:103BD000010008222000FEF79DFC0023A360E360A3
:103BE00010BDC04698160020F8B53A4C1D00237849
:103BF0000600DA09C9098A4213D00020002D00D03E
:103C0000F8BD354B002B03D021003000FFF7F6F84C
:103C10002369002B43D02200032130009847012064
:103C2000EEE77F2B06D8A068002836D02A002B4963
:103C3000FEF770FCA368E28959195219E38892B221
:103C4000E281A160934214D03F2D12D9A589A81A10
:103C5000071C80B240282ED82378BFB27F2B2CD8E7
:103C60000021AA4234D01D4A3B003000FFF7F6FE87
:103C7000C6E72369002B05D02200022130009847B7
:103C800000280ED0002161560023C943C90F00222D
:103C90003000C901FFF7E2FEB2E70020B0E70120E3
:103CA000AEE700213000FFF751F930008021FFF727
:103CB0004DF90120A4E74027CEE7AA4207D0074CE0
:103CC0003A002000FEF726FC80212200CCE780216C
:103CD0000022C9E798160020FD2D0010F4160020E0
:103CE00002004000801810B54001801A034B80008C
:103CF0000430C01800F01EFA10BDC046981700200E
:103D0000F0B5C646440024186401241A124FA400DA
:103D1000261DF61900B5300092B200F085FA3B1965
:103D20000500997800209846FFF7BEFE002803D0D2
:103D3000280004BC9046F0BD300000F011FA3F2886
:103D4000F6D922004346FC329978D219402300204C
:103D5000FFF784FEECE7C04698170020F0B544005A
:103D600024186401241AA4002600C646154F1836EC
:103D7000F61900B5300092B200F012FB05003000D9
:103D800000F0D8F93F2803D8280004BC9046F0BDC5
:103D90003B19002059789846FFF786FE0028F3D19A
:103DA0003D34FF34E41940222100300000F03CFA99
:103DB000031EE9D04246002051782200FFF74EFE54
:103DC000E2E7C04698170020F8B5440024186401C3
:103DD000241A114DA4002E1900207178FFF764FEFB
:103DE000002801D00020F8BD270020003D37FF3714
:103DF0007F19183040223900401900F015FA041ECE
:103E0000F0D003003A0000207178FFF727FE002869
:103E1000E8D02000E7E7C04698170020BE2270B522
:103E2000144C82B0002120005200FEF76DFB0025EB
:103E30002100012380222C31201D009500F042F941
:103E400026002100200001234022AC31EC360095F1
:103E5000183000F037F93000FDF71EF866612600D3
:103E6000F43630002561FDF717F86662A56202B0EE
:103E700070BDC0469817002010B5054C00232000E7
:103E800008C000F039FB2000183000F035FB10BDF1
:103E900098170020F0B5C64600B54B7980460F0054
:103EA00082B0FF2B04D0002002B004BC9046F0BDCD
:103EB000274E7378B5782B43F5D18B780C78337017
:103EC00008790C19002821D06378052B08D0A21896
:103ED00004E0217864186178052901D09442F8D370
:103EE0001C4D02006B1C00932100022340460195EB
:103EF000FFF766FD0028D6D03A796978D3009B1A7F
:103F0000E41800291BD17178002902D1E01B80B28E
:103F1000CAE70020FFF7C8FD0028F7D135003000C0
:103F20003D35FF3540222900183000F07DF9031E91
:103F3000ECD02A0071780020FFF790FDE6E72A0018
:103F400040234046FB32FFF789FD0028DBD1AAE77A
:103F5000981700209917002010B5264CA2788A42A5
:103F60001DD0627800208A4218D1234A002A05D049
:103F70001B04190C002000E000BF61780020FFF74F
:103F800093FD002809D11D4C402220002538210036
:103F9000FF3800F049F9031E21D1012010BD210096
:103FA0009AB2FC31201D00F0FBF9154B002B02D01A
:103FB000002000E000BF0020A178FFF775FD002879
:103FC000EBD1201D00F0CCF83F28E6D92200402399
:103FD0000020A178FC32FFF741FD0120DEE722003E
:103FE0003D3AFF3A517800202200FFF737FD0120CB
:103FF000D4E7C0469817002000000000D418002025
:104000000000000010B50020FFF72EF810BDC046DC
:1040100010B5FFF71FF810BD437902791B02134357
:104020005B055A0DC3789B079B0F022B05D0032B12
:1040300015D00020012B08D0704702291CD0002089
:10404000402393424041C0B2F6E702394B42594106
:104050000D4B9C46614491424041C0B2ECE70239AD
:104060004B425941F023002049429B001940403106
:1040700091424041C0B2DFE7044B9C46624450424B
:104080005041C0B2D8E7C046FF03000000FEFFFF6A
:104090008A1870B5914207D27F264C78052C04D03F
:1040A0000C7809198A42F8D870BD34008D782C40FC
:1040B00064000419ED0963550C7809198A42ECD89B
:1040C000F2E7C046F0B5C64600B5040006A805787C
:1040D0008020884617001E000002824227D8E06830
:1040E000002803D00121494200F0A6FA20690028E7
:1040F00003D00121494200F09FFA43462360730434
:104100005B0CED031D430023E0686381A780E5801D
:104110002381002801D000F06FFA206901240028D3
:1041200001D000F069FA200004BC9046F0BD0024E4
:10413000F9E7C04610B5048941898288A3B288B2E4
:104140008C4207D31B1A9BB2101C9A4200D9181C30
:1041500080B210BD5100091A5B189BB2F4E7C0464B
:1041600030B5048941898288A3B28DB28C4207D3CD
:104170005B1B9BB200209A4201D9D31A98B230BD82
:104180005000401B1B189BB2F4E7C04670B50400FA
:1041900000690D00002803D00121494200F04CFACB
:1041A00026896289A088B1B293B2964233D3CA1AE3
:1041B00092B2002A28D0904208D2814230D30B1A02
:1041C0009BB26381984203D81B1A9BB29842FBD9D9
:1041D000E28821685204520C53432800C918FEF7A4
:1041E00099F9618901254B1C9BB2A08899420ED98F
:1041F000002340001B1A9BB220696381002801D074
:1042000000F0FAF9280070BD002563899BB24000D8
:104210008342F1DBEEE74200D21A8A1892B2C8E775
:1042200009188BB26381CDE7F0B54F464646D646B6
:104230000400006989469046C0B5002803D00121DA
:10424000494200F0F9F921896389A7888AB29DB2B1
:10425000994249D3561BB6B2002E4BD0B74205D275
:10426000BA4255D2D21995B23E0065814346B04557
:104270004CD89EB2AF4203D8ED1BADB2AF42FBD9D2
:10428000E288781B5204530C19009846236869434E
:104290009C4680B26144864232D94346584383B239
:1042A0001A0048469A46FEF735F943464846F71B3A
:1042B000ED195D4321685044AAB2FEF72BF96189DC
:1042C000A7888B199BB27A00994215D99B1A9BB289
:1042D00020696381002801D000F08EF930001CBCF9
:1042E00090469946A246F0BD7E00761B9619B6B25E
:1042F000002EB3D163899BB27A009342E8DBE5E7F5
:10430000424648467243FEF705F9D8E7331CB0E74A
:10431000D51BADB2A8E7C046F8B50400C0680E00D2
:10432000002803D00121494200F086F9258920891F
:104330006189A288ADB283B28FB2884228D3DB1BD9
:104340009BB29A4209D8E779FF0906D1E0680028B4
:1043500001D000F051F93800F8BD2B00954203D38D
:104360009B1A9BB29342FBD2E28821685204520C02
:104370005343C8183100FEF7CDF8A2886B1C9BB2DE
:1043800052009D4209D99B1A9BB201272381DDE788
:104390005100C91B5B189BB2D3E79342F5DBF2E7F0
:1043A000F0B54546DE4657464E46E0B50400884621
:1043B000150083B0002A6AD0C068002803D001210C
:1043C000494200F039F92789E2796389A688BFB2AA
:1043D0009BB2D20943D19F4263D27200D31AFB1819
:1043E0009BB2002291469E4233D9F31A1A1C9BB20B
:1043F000AB4200D92A1C93B299464B46002B28D0D9
:10440000DB199BB29B463D00B74203D3AD1BADB257
:10441000B542FBD2E288711B5204530C18009A4635
:10442000236868439C4689B26044494545D3524657
:104430004B4641465A43FEF76DF8A3885B00BB45E7
:1044400001D39B4503DB5A46D31A9BB29B465B467E
:104450002381E06800281CD000F0CEF819E0B542B6
:1044600022D29F423ED3FA1A92B2710052198A4266
:1044700008DB9A1992B2571BBFB29346BB4236D99A
:104480007F1ABFB2EB199BB29B46A946BBE700233C
:104490009946484603B03CBC90469946A246AB4676
:1044A000F0BDFB1A9BB29CE7AA1BE5881F006D04B8
:1044B0006D0C5543B146A8449FE7534659438BB210
:1044C0001A0041460193FEF725F849468A1B5146DA
:1044D000AA184A43019B20684344190092B2FEF790
:1044E00019F8AAE77100CA1ABA1892B2BEE7A9462B
:1044F000B94200DD87E7C3E710B50400C0680028B3
:1045000003D00121494200F097F82069002803D028
:104510000121494200F090F80023E0686381238183
:10452000002801D000F068F82069002801D000F0D0
:1045300063F8012010BDC04610B51920FCF756F9EC
:10454000D0238022E1211B0692045A620448054BC5
:104550000022186049020123FEF7FAF910BDC04697
:1045600000400340081F002010B5830727D00378C0
:10457000002B26D00300032102E01A78002A1CD069
:1045800001330B42F9D119680F4A104C8A188A433B
:1045900022420FD1043319680B4A8A188A432242F7
:1045A00008D104331968084A8A188A432242F1D094
:1045B00000E001331A78002AFBD1181A10BD03005D
:1045C000E1E70020FAE7C046FFFEFEFE8080808023
:1045D000F8B5C0460000000001B40248844601BCA2
:1045E000604700BFDD01002001B40248844601BCE1
:1045F000604700BF7908002001B40248844601BC2E
:10460000604700BFD907002001B40248844601BCBE
:10461000604700BF3506002001B40248844601BC53
:10462000604700BF3D09002001B40248844601BC38
:10463000604700BF7513002001B40248844601BCE6
:10464000604700BF4907002001B40248844601BC0E
:10465000604700BF9906002001B40248844601BCAF
:10466000604700BF4911002001B40248844601BCE4
:10467000604700BFAD10002001B40248844601BC71
:10468000604700BF8510002001B40248844601BC89
:10469000604700BFE510002001B40248844601BC19
:0846A000604700BFF11000208B
:1046A8005245534554000000B846001007FF00006B
:1046B800A08027E00170015900F04210208000001E
:1046C800D046001006FF0000A0802060A080017086
:1046D800431800F0446576616E7368752047616A17
:1046E8006A6172004445564A544147000904000073
:1046F80009022000010100A0320904000002FF00A5
:104708000000070501024000000705820240000082
:1047180012011001000000400912CAC01001010274
:104728000301000064070010FA0600107207001069
:104738003E070010A00700103E0700103E070010BB
:104748008E0700103E0700103E0700104445564AE9
:104758005441470A000000004E6F207370696E6C68
:104768006F636B732061726520617661696C616249
:104778006C650000486172647761726520616C61E4
:10478800726D20256420616C726561647920636CA8
:1047980061696D65640000000A2A2A2A2050414E8A
:1047A8004943202A2A2A0A000A0000004861726444
:1047B800206173736572740052656C65617365007E
:1047C800626F6F74325F77323571303830000000B5
:1047D80068747470733A2F2F6769746875622E63F2
:1047E8006F6D2F72617370626572727970692F7064
:1047F80069636F2D6578616D706C65732F74726570
:10480800652F484541442F6A7461675F7465737406
:104818005F4F0000302E3100312E352E3000000061
:104828007069636F0000000070696F5F6A74616788
:1048380000000000466562203234203230323300F6
:1048480006005250BBFF3CB62848001006005250E4
:104858003ABCA9111C480010060052509A23561859
:10486800D847001006005250E182887FC8470010E0
:1048780006005250D3F07542C04700100D0A0000E0
:104888004E6F2070726F6772616D2073706163651F
:10489800000000004E6F20444D41206368616E6E39
:1048A800656C732061726520617661696C61626C08
:1048B80065000000556E68616E646C65642049523D
:1048C8005120307825780A006570202564202573EA
:1048D8002077617320616C7265616479206176610B
:1048E800696C61626C65000043616E277420636FB8
:1048F8006E74696E75652078666572206F6E2069C2
:104908006E6163746976652065702025642025735F
:10491800000000006F757400696E00006E310010B1
:1049280016330010B23200106E31001094320010AD
:104938007C32001012320010BC310010B03100106F
:10494800543600103A3600106A32001068360010EB
:104958006A320010223600100E3600106A3200103B
:10496800FA350010D03500106A320010EC3600100D
:10497800D0360010C43600106A3200106A320010B7
:10498800A6360010D03600106A3200106A320010C5
:104998006A3200106A3200106A3200106A3200105F
:1049A8006A320010823600101D3E0010793E001059
:1049B800953E0010A5030010593F001000000000AC
:1049C8004C4544000900525000000002C84900103C
:0849D80008005250120000001B
:1049E000AC020010A0020010940200104848001011
:1049F0008802001054480010604800106C480010F5
:0C4A000078480010CC490010D849001084
:104A0C00F0B545464E46DE465746E0B5073283B014
:104A1C00D51006009846019101F0AEF9042D2ED860
:104A2C00002D25D0746833680434A4001A199A46F2
:104A3C000023944699462A0001211034A244002DEB
:104A4C0044D074680F00200010308740BB46336898
:104A5C005F46586838424FD16446019B013D581C53
:104A6C001B782370002A4AD12B000190002BE6D131
:104A7C0003B03CBC90469946A246AB46F0BD202301
:104A8C00214AA0201168C0050B43136010231F4A54
:104A9C008446116801980B4313601D4B41461A68FC
:104AAC00A0239201DB05D31859600121D961194B60
:104ABC001B689B0163441860D961174B80219C468D
:104ACC004904624413680B42FCD1D1E7002ACFD0D1
:104ADC003368746858680B000834A3401842AED190
:104AEC0053464C464046DB78013A035501239B461E
:104AFC001300D9442B43B9E7002AA9D0EAE733685D
:104B0C0074680190E6E7C046C81E0020FC1E002019
:104B1C00CC1E002068140020100000502B4BF0B568
:104B2C001F68C6467B1DFA011B031343284A00B5B8
:104B3C0013408022D20584B013430193C0231B037E
:104B4C000293244B05680393A0235B030622060003
:104B5C000093280006230C00002101F0D5F81E4B11
:104B6C000220EB185A1E934106339846190001F0A7
:104B7C00E3F84146012001F0DFF86B463A002800CB
:104B8C00002101F099F8012280202B684002134388
:104B9C002B6033685A680242FCD1062280201A61CD
:104BAC0040025A680242FCD11F221A610B4B694623
:104BBC001A68200000926A461B791371052201F0D5
:104BCC00C3F8052004B004BC9046F0BD282000209A
:104BDC00FFFFFF9F420410440000E0AFA846001006
:104BEC00F0B5DE4657464E4645469846684BE0B50E
:104BFC001E689B46731D91461B03F2011343654AC5
:104C0C0085B013408022D20513430193C0231B03AC
:104C1C000293614B05680393A0235B0306220400F7
:104C2C000093280006230F00002101F06DF85B4B68
:104C3C000220EB185A1E934106339A46190001F0D4
:104C4C007BF85146012001F077F86B4632000021C9
:104C5C00280001F031F8012280212B68490213430E
:104C6C002B6023685A680A42FCD1032280211A6106
:104C7C0049025A680A42FCD1032200201A6101F051
:104C8C0033F8474B80211B68C9059A4652460633B8
:104C9C00D2011B0313433F4A266813400B43019375
:104CAC00404B12220393404B30000293A0235B0332
:104CBC00002100931A2301F027F8384835186B1E91
:104CCC009D4106352900042001F036F82900012009
:104CDC0001F032F829000125032001F02DF83000F5
:104CEC006B465246002100F0E7FF39005F463368FF
:104CFC0042462B43336020004B46FFF781FE802158
:104D0C003F68C9057B1DFA011B031343214A266822
:104D1C0013400B430193C0231B0302931E4B06222B
:104D2C000393A0235B03002130000093062300F0C3
:104D3C00EBFF1A4833185A1E934106339846190054
:104D4C00022000F0F9FF4146012000F0F5FF6B4610
:104D5C0000213A00300000F0AFFF80213368490297
:104D6C001D43236835605A680A42FCD10222802117
:104D7C001A6149025A680A42FCD1032200201A61C6
:104D8C0005B03CBC90469946A246AB46F0BDC04629
:104D9C0028200020FFFFFF9F420410440000E0AFDA
:104DAC002C2000208484114400000C10F0B5DE4649
:104DBC004E4645465746E0B59846674B87B01E6849
:104DCC009B46731D01921B03F2011343634A056852
:104DDC0013408022D20513430393C0231B03049377
:104DEC005F4B06220593A0235B030400029328006B
:104DFC0006238946002100F087FF5A4B0220EF184A
:104E0C007B1E9F410637390000F096FF39000120C8
:104E1C0000F092FF3200002102AB280000F04CFFA2
:104E2C00012280212B68490213432B6023685A68A6
:104E3C000A42FCD1022280211A6149025A680A42B4
:104E4C00FCD1012700201F6100F04EFF464B802152
:104E5C001B68C9059A4652460633D2011B031343FD
:104E6C003E4A266813400B430393404B1222059392
:104E7C003F4B30000493A0235B03002102931A23C1
:104E8C0000F042FF374835186B1E9D41063529004E
:104E9C00042000F051FF2900012000F04DFF2900F3
:104EAC00032000F049FF30005246002102AB00F015
:104EBC0003FF336842463B4333605E464B4620005B
:104ECC000199FFF79DFD80213668C905731DF2011C
:104EDC001B031343214A256813400B430393C02340
:104EEC001B0304931E4B06220593A0235B03002196
:104EFC0028000293062300F007FF1A482B185A1EAD
:104F0C009341063398461900022000F015FF4146E4
:104F1C00012000F011FF002102AB3200280000F04C
:104F2C00CBFE80212B6849021F4323682F605A68EF
:104F3C000A42FCD1022280211A6149025A680A42B3
:104F4C00FCD1032200201A6107B03CBC9046994664
:104F5C00A246AB46F0BDC04628200020FFFFFF9FB5
:104F6C00420410440000E0AF2C2000208484114443
:104F7C0000000C10072370B5124E82B001933368F9
:104F8C0004000D00002B0ED02A0001A920232000C4
:104F9C00FFF726FE20232A00200001A9FFF706FFB9
:104FAC00042002B070BD0849006800F0A5FE074B54
:104FBC0007491860206800F09FFE064B186001231B
:104FCC003360E1E7A41A0020B04600102C2000202A
:104FDC00C846001028200020F0B5C646150000B5C4
:104FEC0004001E000268EFF3108172B61368002BE8
:104FFC00FCD0BFF35F8F0423E356002B36DB226813
:10500C00BFF35F8F0020106081F31088D02200273F
:10501C001206D7579F4203D1002004BC9046F0BD26
:10502C00002398460CE02268BFF35F8F4146116065
:10503C0083F310882800310000F08EFE0028EBD19D
:10504C002268EFF3108372B611680029FCD0BFF30D
:10505C005F8F22797F2AE6D922682771BFF35F8F91
:10506C000021116083F310880120D6E7D0231B06A2
:10507C001B6823712368BFF35F8F00221A6081F3D2
:10508C0010880120C9E7C046F0B5C64600B50D0032
:10509C00040000F049FEFA2206000F00002328004D
:1050AC000021920000F010FE36184F41002F2CDB2F
:1050BC00D0231B061B68002598460BE02268BFF323
:1050CC005F8F156083F310883000390000F044FEC8
:1050DC00002818D12268EFF3108372B611680029EA
:1050EC00FCD0BFF35F8F22797F2AE7D94246227129
:1050FC002268BFF35F8F0021116083F310880120B9
:10510C0004BC9046F0BD0020FAE70126014F764220
:10511C00CEE7C046FFFFFF7F0268EFF3108172B647
:10512C001368002BFCD0BFF35F8FFF230371036860
:10513C00BFF35F8F00221A6081F3108840BF704765
:10514C00084810B50378002B0AD180230649074A7A
:10515C005B051C68CC5004339342FAD101230370D5
:10516C0010BDC046181F00202419001000010010AB
:10517C0010B5024B0133984710BDC04624190020CE
:10518C00054B1A6880239B005340C02292001340A9
:10519C00024A13607047C0460C8001400C900140DD
:1051AC00034B1A68C0239B009343024A1360704759
:1051BC000C8001400C9001401423F0B5D6464F46AC
:1051CC0046469A46814618880433C0B598460E0068
:1051DC001B882749140098475346070018884346F4
:1051EC0024491B8898475346050018884346224992
:1051FC001B8898478046FFF7A3FFB847A847FFF7DF
:10520C00BFFF002C1BD0C02122000827022049051B
:10521C003D008B6A1D4018420BD0002C09D0131B8B
:10522C000D2B1FD84B461B78013C0B6601239C466B
:10523C00E1442300002D0CD11343002BE8D1FFF7E0
:10524C00AFFFC047FFF794FF1CBC90469946A2469F
:10525C00F0BD002AF1D00B6E013A33701300013609
:10526C002343EAE7002DD3D0002AD1D0F3E7C04680
:10527C0049460000455800004643000000231C4AE4
:10528C0010B59360D3601B4A00219360D3601A4A17
:10529C001A489360D3601A4A9360D360194A93609A
:1052AC00D360194A9360D360184A9360D360184A4C
:1052BC009360D360174A9360D360174A9360D360AE
:1052CC00164A9360D360164A9360D360154A936074
:1052DC00D360154A9360D360144A9360D360F02274
:1052EC00920000F019FD124B124A1A6010BDC04614
:1052FC00000010500800105010001050E81A002048
:10530C001800105020001050280010503000105081
:10531C0038001050400010504800105050001050F1
:10532C005800105060001050680010507000105061
:10533C00AC1E002080011050F0B55746DE464E469C
:10534C004546E0B5264B87B09F6D002F24D0254BEA
:10535C000024994601239B46234B01269A4604E0E0
:10536C0001347600E4B2202C16D03E42F8D04B46E5
:10537C005A469E6563085B00A2439B185B0153442D
:10538C001800984600F0B6FB00280CD10134B74346
:10539C00E4B27600002FE6D107B03CBC90469946AB
:1053AC00A246AB46F0BD42464346D28A03AD9B783B
:1053BC000192002108222800009300F0ADFC072385
:1053CC006B70009B019A2B71002328000121AA60AD
:1053DC006B7100F0B7FB404600F024FBD6E7C046EB
:1053EC000000115000301150A81A00209823C94A0F
:1053FC0070B5D55880232C009B02102684B01C401D
:10540C001D4279D0C44BC54C9A6AC54B00261A6014
:10541C003B23E35C022B00D1F5E07B23E35C022B06
:10542C0000D101E1BB23E35C022B00D10EE1FB2395
:10543C00E35C022B00D11BE13C23FF33E35C022B2A
:10544C0000D127E17C23FF33E35C022B00D136E152
:10545C00BC23FF33E35C022B00D145E1FC23FF337B
:10546C00E35C022B00D179E1AE4BE35C022B00D163
:10547C0089E1AD4BE35C022B00D198E1AB4BE35CD3
:10548C00022B00D1A7E1AA4BE35C022B00D1CAE1AD
:10549C00A84BE35C022B00D1D9E1A74BE35C022BB8
:1054AC0000D1ACE1A54BE35C022B00D195E0A44B01
:1054BC00E35C022B00D1DEE1002E08D1A14B1B785E
:1054CC00002B04D18021A04A90338902D15001AE27
:1054DC00904B0C22002130009C6C00F01DFCC02372
:1054EC0064059B00640D74603000338001218024BE
:1054FC0000F028FB954EA402EB066AD480235B02D5
:10550C001D4217D0012223211C43844B5A54DA70BC
:10551C006A460023D380C023DB0093808C4A02AB05
:10552C0003CA03C3012101A800F00CFB8022864BA7
:10553C0092021A6580235B011D4231D18023DB016D
:10554C001D421BD180231B021D4204D1AC4200D052
:10555C00AFE104B070BD01AE0C22002130001C4341
:10556C0000F0DAFBA023DB0033800121300000F0D7
:10557C00E9FA8022744B12011A65E7E701AE0C229E
:10558C00002130001C4300F0C7FB8023DB0033807C
:10559C000121300000F0D6FA10226B4B1A65D1E7CE
:1055AC0000261C435B4B1E60FFF768FE0C2200219B
:1055BC0001A800F0B1FB80236A465B0093800121B7
:1055CC0001A8167200F0BEFA80225F4B12031A6516
:1055DC00B4E7FFF7B1FE340090E75E4BE35C002BC1
:1055EC0000D164E7EF239B00E25C002A00D054E179
:1055FC00534BE35C022B00D069E7574BE35C002B69
:10560C0000D03DE163E73833E65C002E00D104E7BF
:10561C000233E25C002A00D1FFE600222000E254B3
:10562C00203000F031FAF8E67833E35C002B00D13F
:10563C00F8E67C22A15C1E00002900D1F2E60023D2
:10564C002000A354603000F01FFAEBE6B833E35CA3
:10565C00002B00D1EBE6BC22A15C1E00002900D17E
:10566C00E5E600232000A354A03000F00DFADEE69E
:10567C00F833E35C002B00D1DEE6FC22A15C1E00BB
:10568C00002900D1D8E600232000A354E03000F01C
:10569C00FBF9D1E63933FF33E35C002B00D1D1E6C3
:1056AC009E225200A15C1E00002900D1CAE62000F7
:1056BC0000232130A354FF3000F0E6F9C2E6793321
:1056CC00FF33E35C002B00D1C2E6BE225200A15C8A
:1056DC001E00002900D1BBE6200000236130A3543A
:1056EC00FF3000F0D1F9B3E6B933FF33E35C002BA4
:1056FC0000D1B3E6DE225200A15C1E00002900D1CD
:10570C00ACE620000023A130A354FF3000F0BCF91C
:10571C00A4E6C0460000115000400540A81A002025
:10572C009C1A00203B0200007B020000BB02000020
:10573C00FB0200003B0300007B030000BB030000E6
:10574C00FB030000171F0020003011501000020056
:10575C0000001050BA030000FA030000F933FF33C5
:10576C00E35C002B00D17FE6FE225200A15C1E0000
:10577C00002900D178E620000023E130A354FF304B
:10578C0000F082F970E64D4BE35C002B00D170E623
:10579C008F229200A15C1E00002900D169E6002333
:1057AC00A35488239B00E01800F06EF961E6444B8B
:1057BC00E35C002B00D161E69F229200A15C1E00ED
:1057CC00002900D15AE60023A35498239B00E0182B
:1057DC0000F05AF952E63B4BE35C002B00D152E649
:1057EC00AF229200A15C1E00002900D14BE60023E1
:1057FC00A354A8239B00E01800F046F943E6324B73
:10580C00E35C002B00D14DE6DF229200A15C1E0070
:10581C00002900D146E60023A354D8239B00E018AE
:10582C0000F032F93EE6294BE35C002B00D12FE669
:10583C00BF229200A15C1E00002900D128E60023A3
:10584C00A354B8239B00E01800F01EF920E6204B6F
:10585C00E35C002B00D120E6CF229200A15C1E005D
:10586C00002900D119E60023A354C8239B00E0189B
:10587C0000F00AF911E6174BE35C002B00D11BE694
:10588C00FF239B00E25C002A00D120E60022E254B8
:10589C001C3BE01800F0F8F819E60022E2541C3B1F
:1058AC00E01800F0F1F80C4BE35C022B00D00EE694
:1058BC00A3E621000948694000F00EFA3A02000004
:1058CC007A020000BA0200007A030000FA0200001B
:1058DC003A030000FA030000FB030000BC48001070
:1058EC00F8B5028B838A04000F00161C9A4200D96B
:1058FC001E1C8025B6B29B1BE2789BB2ED00A382E6
:10590C003543002A02D09025AD01354301214A4090
:10591C00E2706278002A09D0002B02D18023DB01CF
:10592C001D43002F00D02D042800F8BDE368B801FA
:10593C009C4632006044216900F006FA23699C46BB
:10594C00802366441B021D432661A38AE4E7C046FC
:10595C00836870B504001D68002900D02D0C637895
:10596C00AD05AD0D002B09D1E38AEB18E382238B37
:10597C00AB4201D90023A382280070BDE3688901E2
:10598C009C462A002069614400F0DEF9E38AEB189A
:10599C00E38223695B192361E9E7C04610B5040073
:1059AC00836800211B68FFF7D3FF63681B685B00EB
:1059BC0002D5238B834200D010BD01212000FFF7BC
:1059CC00C7FFF9E7084A0300126C0020920703D4C2
:1059DC001B78DB09012B00D0704708780238434252
:1059EC005841C0B2F8E7C04600001150010010B594
:1059FC001B310230FFF7E6FF00280CD00649074B9D
:105A0C008C46074A9B6A126863449B1A0020C62284
:105A1C009A424041C0B210BDE0FCFFFF004005407F
:105A2C009C1A002000238376436103617047C046B3
:105A3C0010B58368002901D01C682140002A11D0C0
:105A4C008024E400114322420CD01A6822420BD16C
:105A5C000A4A0A401A60FFE7FFE7FFE7FFE7FFE7A4
:105A6C00FFE78368196010BD7F2281780448CB0959
:105A7C001140044A9B009A5800F02EF9FFFBFFFFDF
:105A8C00D048001028150020436870B500218025EF
:105A9C001E680400FFF724FF134B6D011B6C0543BC
:105AAC009B070FD5A3785B060FD0104B1E408023AD
:105ABC009B05334362680021136020002A00FFF726
:105ACC00B7FF70BDA378DB09EFD0A38A002BECD015
