:020000041000EA
:1000000000B5324B212058609868022188439860DF
:10001000D860186158612E4B002199600221596106
:100020000121F02299502B49196001219960352056
:1000300000F044F80222904214D00621196600F024
:1000400034F8196E01211966002018661A6600F04E
:100050002CF8196E196E196E052000F02FF8012189
:100060000842F9D1002199601B49196000215960AB
:100070001A491B48016001219960EB211966A021F2
:10008000196600F012F800219960164914480160C1
:100090000121996001BC002800D000471248134993
:1000A000086003C880F30888084703B5996A0420EC
:1000B0000142FBD001200142F8D103BD02B5186610
:1000C0001866FFF7F2FF186E186E02BD00000240BE
:1000D000000000180000070000035F00212200005C
:1000E000F4000018222000A00001001008ED00E03C
:1000F00000000000000000000000000074B24E7A12
:1001000000200420F7010010C3010010C5010010F9
:10011000C1010010C1010010C1010010C101001097
:10012000C1010010C1010010C1010010C701001081
:10013000C1010010C1010010C9010010CB01001065
:10014000CD010010CD010010CD010010CD01001037
:10015000CD010010CD010010CD010010CD01001027
:10016000CD010010CD010010CD010010CD01001017
:10017000CD010010CD010010CD010010CD01001007
:10018000CD010010CD010010CD010010CD010010F7
:10019000CD010010CD010010CD010010CD010010E7
:1001A000CD010010CD010010CD010010CD010010D7
:1001B000CD010010CD010010CD010010CD010010C7
:1001C00000BE00BE00BE00BE00BE00BE00F04BF888
:1001D000103800BEF2EB8871D84D0010044E0010AC
:1001E0003402001090A31AE700202149086006C8D5
:1001F00081F3088810471F48006800282FD10DA4FC
:100200000ECC002902D000F012F8F9E71A491B4A77
:10021000002000E001C19142FCD1194988471949E9
:1002200088471949884700BEFDE701C901C29A42C3
:10023000FBD37047044E0010C0000020C807002008
:100240000C55001000000420000004200C55001084
:1002500000100420001004200000000070470B482C
:1002600001F0DCFE0047EFF30580C0B270470000EC
:1002700008ED00E0000000D0C80700204015002075
:10028000E91A0010AD030010D91B001057560000EA
:1002900006005250ABB36053184C00100600525089
:1002A000861C0302284C0010060052505422A29DC6
:1002B000344C001005005250DE65F4680C550010F7
:1002C000F8B5C0460448054B10B5834203D0044B33
:1002D000002B00D0984710BDC8070020C807002099
:1002E0000000000006480749091A8B10C90FC918F9
:1002F00010B5491003D0044B002B00D0984710BD17
:10030000C8070020C80700200000000010B5074CF7
:100310002378002B09D1FFF7D5FF054B002B02D026
:10032000044800E000BF0123237010BDC80800206E
:1003300000000000A04A0010054B10B5002B03D0B0
:100340000449054800E000BFFFF7CCFF10BDC046E0
:1003500000000000CC080020A04A0010F0B5C646FE
:100360000E4B0027984600B50D4E86B002F06EFA8F
:1003700044012418640033195F70325DA51C75199F
:1003800029004046D2B201AB00F090F94022002192
:10039000280001F07DFF3755E8E7C04690060020B1
:1003A00054110020481E8141C8B27047F8B501269B
:1003B00004F0EEFA00F090F804F086F8194802F024
:1003C00095FA194D194C2868430118184000201857
:1003D00001300378DFB2002BFBD103F02DF80020B1
:1003E00003F01CFF0028EED02B6840225901C918E9
:1003F000490002310020611803F01EFF031E286827
:10040000E2D042011218DBB25200A354A218567077
:10041000431C032803D02B6002F00EFAD3E72F60B1
:10042000FAE7C0465D030010481100205411002077
:1004300070B5012002F0E8F91122124B124C18603D
:10044000C30223401343114A00251360A022D205A2
:10045000944680010E4A60440560426085600361F5
:10046000012002F0D1F9C30223400A4C80011C4351
:10047000A023DB059C46084B604403604560856013
:10048000046170BDB0060020FD7F00FF3411002024
:1004900010002050110002002000205070B5040010
:1004A00005200D0001F016FDFA21890001F0E4FDA0
:1004B000290001F0E1FD61688208072800D80222C6
:1004C0004B005B180349DB008C46120463441A603E
:1004D00070BDC046C800205070B54F4C200002F0DF
:1004E00033FA2378180901001A01D2B230319F2B58
:1004F00000D90731494B1009197000212170010002
:1005000030319F2A00D90731597061780D092800D0
:100510000A01D2B230309F2900D9073000219870EB
:1005200010096170010030319F2A00D90731D9705C
:10053000A1780D0928000A01D2B230309F2900D9D4
:100540000730002118711009A170010030319F2A75
:1005500000D907315971E1780D0928000A01D2B29A
:1005600030309F2900D90730002198711009E170BF
:10057000010030319F2A00D90731D97121790D0945
:1005800028000A01D2B230309F2900D9073000215B
:10059000187210092171010030319F2A00D90731EA
:1005A000597261790D0928000A01D2B230309F29B1
:1005B00000D90730002198721009617101003031B3
:1005C0009F2A00D90731D972A1790D0928000A01A3
:1005D000D2B230309F2900D907300021187310099A
:1005E000A171010030319F2A00D907315973E17997
:1005F0000D0928000A01D2B230309F2900D90730F6
:10060000002198731009E171010037319F2A00D849
:100610000739D97370BDC046381100206812002018
:1006200000487047144B001000487047F44A00100F
:1006300070B5002825D0032830D8194B8000C65843
:10064000300004F0BDF9C0B2041C1F2814D8E4B275
:10065000002820D00023134DAA1CF15C0133118027
:10066000D9B202328C42F8D8C023013464009B0016
:100670001C4328002C8070BD1F24E4B20028E9D15F
:1006800009E0C124074D064B02221968A81C01F09D
:10069000FFFDA400EDE7044C024DEAE70020EAE785
:1006A000B4060020FC08002002030000F0B54E460E
:1006B0004546DE465746E0B58D1887B081460C00AA
:1006C0001E000193A94239D20F2398462A4F23785E
:1006D000002B2CD042461340082B2FD89B00FB58F0
:1006E0009F46192000F064F8D0231B069A46802309
:1006F0009B049B4653465A4601205A625A6100F0B9
:1007000085FD53465A469A6103AB9C461B4A03CA71
:1007100003C3127830001A70624600236146537298
:100720000A2201F0B5FD0A360134AC42CFD301995B
:10073000B14203D00020721A03F0ACFD07B03CBCFC
:1007400090469946A246AB46F0BDA178637809026F
:10075000194349BA0234484689B20134FFF79EFE74
:10076000AC42B4D3E3E73100484604F071F90134F8
:100770003618AC42ABD3DAE7284B00104C4B0010D4
:10078000094A830094464022634410B51C68C000A7
:100790006240C02414408022520113431C60034B6A
:1007A0009C466044416010BD04C0014000400140CF
:1007B0000123D0228340120693629361094A830089
:1007C0009446402263441968C0004A40C021114049
:1007D0008022520113431960034B9C460523604459
:1007E0004360704704C0014000400140EFF31080B7
:1007F00072B6034A1368002BFCD0BFF35F8F7047BB
:100800002C0100D0BFF35F8F0022024B1A6080F3EF
:10081000108870472C0100D0F8B5EFF3108772B63E
:100820000E4E3368002BFCD0BFF35F8FCB08C4188B
:100830000725A446C45C01230D40AB4018002040AE
:10084000234208D1624623431370BFF35F8F3060A9
:1008500087F31088F8BD100001F0C0F92C0100D01A
:10086000F8B5CE4647468C4680B5EFF3108872B691
:10087000214D2C68002CFCD0BFF35F8F9A422CD8FE
:10088000D4080721055D0619012411408C402C4233
:100890001FD007218946063909E0D408055D0619ED
:1008A0004C460F001440A7403C002F4211D00132AB
:1008B0009342F2D201204042BFF35F8F00220E4BE1
:1008C0001A6088F3108800280FDB0CBC904699460C
:1008D000F8BD2C4310003470EEE7BFF35F8F0023A8
:1008E0002B6088F31088012040426346002BECD037
:1008F000089801F073F9C0462C0100D0024B18682B
:100900008007C00F7047C04600C006400021044B5E
:10091000044ABFF35F8F02C39342FAD17047C046C7
:10092000000100D0800100D0044A1078431CDBB2E3
:10093000172B00D9102313707047C046C40600203F
:1009400000B5054B83B00100009318221F23034814
:10095000FFF786FF03B000BD584B0010840C002049
:1009600001238340002904D0034A1360034A136023
:100970007047034A1360FBE780E200E000E100E01B
:1009800080E100E001228240034B1B681340581EA7
:100990008341D8B27047C04600E100E0024B1030FE
:1009A0009B688000C058704700ED00E070B50D00F6
:1009B000EFF3108672B60F4A1368002BFCD0BFF31A
:1009C0005F8F0D4B10309B6884001B590B4A93427C
:1009D00003D09D4201D001F019F9074B9B681D51CE
:1009E000BFF35F8FBFF35F8F0022024B1A6086F365
:1009F000108870BD240100D000ED00E0CD01001092
:100A0000F0B5DE4657464E464546E0B50C0083B08D
:100A1000EFF3108A72B65A4A1368002BFCD0BFF36A
:100A20005F8F1022914681444A46564B96009B6840
:100A30009D59554B98469D4205D0A54216D0534F1F
:100A4000EB1B2F2B14D94F4B9B689D51BFF35F8F2E
:100A5000BFF35F8F00224A4B1A608AF3108803B0FD
:100A60003CBC90469946A246AB46F0BD1D00EAE765
:100A7000012383409B465A46454B1B681A4000920F
:100A80005A46444B1A60BFF35F8FFFF7ECFB0190AF
:100A9000002803D0814501D001F0B8F801232A00D5
:100AA0009A4393689C4208D160E04B005B189B001E
:100AB000FB189968A14211D01A000621515600294D
:100AC000F3DA009B002B05D05A46334B1A60304BAB
:100AD0001A60B8E75A462F4B1A60B4E706215956F8
:100AE000002922DB4A00501880003C188046A0688C
:100AF0009860E079D871062020569871A0797F28F7
:100B000024D8A488F81A6405241544440019E02464
:100B10000005400D24022043988052181F4B92007C
:100B2000BF181A781970BA71CBE70199002910D152
:100B3000FF3191711A49918018490A789A71194ABE
:100B4000DB1B5B415A43120D0A70BAE7BD2000025D
:100B5000E2E7154A1549D21A083A5002400D0143FE
:100B60009980134952080A43DA80AAE706215156B0
:100B700013000029B6DA019A002AEAD14546DBE7DC
:100B8000240100D000ED00E0CD010010C8060020D7
:100B900000E100E080E100E080E200E0521100208E
:100BA00000BDFFFFAAAA00000207002000F0FFFF1F
:100BB00000F8FFFFF8B5012504000543FFF753FBDC
:100BC0000300EFF3108672B621490A68002AFCD0B0
:100BD000BFF35F8F1F4A20001F49801A40414143E5
:100BE000090D1E489B00876849B2FF58AF421CD0D0
:100BF0000623D3568B421CD01223D3568B4222D0CD
:100C00001E23D3568B4220D02A23D35603208B4257
:100C100010D0134B1A781970A271BFF35F8F0022A6
:100C20000B4B1A6086F31088F8BD82680D48D050CF
:100C3000EFE7002043001B189B00D218FF2393719D
:100C4000094B9380E5E70120F4E70220F2E7C04674
:100C5000240100D0C8060020AAAA000000ED00E090
:100C600052110020CD01001000BDFFFF054B064AC8
:100C70001360064A136053609360D360136153613D
:100C8000936170478080808000E400E004E400E02D
:100C9000024B9C466144890001607047400000346B
:100CA00083680B4810B5844661446244090112010F
:100CB0009A18591854684B6801209C4201D802D0F8
:100CC0000020C0B210BD12680B689A42F9D8F7E74D
:100CD000FFFFFF0F0A4B1968EFF3108072B60A6826
:100CE000002AFCD0BFF35F8F1B68BFF35F8F002229
:100CF0001A6080F3108840BF002000217047C04672
:100D000020110020F8B557464E464546DE46E0B570
:100D1000434D81468A466A68EFF3108872B61368BD
:100D2000002BFCD0BFF35F8F2E68B47B002C3ED02D
:100D3000670033683F19033FDA195378B373002B08
:100D400000D1F3730023937053701370A968354A70
:100D50008C464946A2181201624411605146516006
:100D60003149D36091603268D21993705370137017
:100D7000737B9B46002B35D022001900B068736846
:100D800098473268002820D05B4658465B005B4499
:100D9000D719033BB870D118D35C002B00D07B70FF
:100DA0005B460C7073735C451DD0002626E06B68B3
:100DB000BFF35F8F1C6088F31088012040423CBC69
:100DC00090469946A246AB46F8BD5B465B005B4445
:100DD000033BD3189C70D119D25D002A00D05A7001
:100DE0005B460B7074734A465346287D00F05CFBEB
:100DF000061EDAD02100286800F09CFDEB686A68C6
:100E00001B19013B1B78BFF35F8F0021116088F332
:100E100010880020002ED2D118022043CFE7C04610
:100E200010070020FFFFFF0FD50C0010F8B5574644
:100E300045464E46DE46E0B599460CAB19780DABFB
:100E40001B78050090469A460768002912D1BE7BA0
:100E5000002E45D074003B68A419033C1B195A7836
:100E60003100BA73002A00D1FA7300229A705A70C6
:100E70001A7003E00E004C006418033C2C4B002257
:100E80009C46AB6861449C464346090161440B6043
:100E90004B464B600A9B8B600B9BCB603B681B19DE
:100EA0009A705A701A707B7B9B46002B2CD03200B4
:100EB0005946B8687B6898473A68002817D05B465F
:100EC00058465B005B441419033BA070D118D35CF7
:100ED000002B00D063705B460E707B73B34514D05B
:100EE00030003CBC90469946A246AB46F8BD5B46F6
:100EF0005B005B44033BD3189E701119125D002AFE
:100F000000D05A705B460B707E7342464B46287D7C
:100F100000F0CAFA041E06D05346002B03D131005C
:100F2000286800F007FD0E9B002BD9D01C70D7E776
:100F3000FFFFFF0FF0B5DE464E46574645460023FD
:100F4000E0B58DB00A936B4B8200D3580B90994655
:100F500000239B464B46079300F046FA079C060089
:100F60000F006268EFF3108572B61368002BFCD097
:100F700022000794BFF35F8F2468637B9946002BA0
:100F800067D092685C4B90464B441B0198444346A3
:100F90001A685B6810001900801BB94100295FDDE9
:100FA0000B9800F081FA00230026984600279A4605
:100FB000079C6368BFF35F8F5A461A6085F31088F9
:100FC0005346002B08D10028C6D10DB03CBC90463A
:100FD0009946A246AB46F0BD0A9B414618024B46D5
:100FE0001843D047089009916268EFF3108572B6F4
:100FF0001368002BFCD00794BFF35F8F0899099A00
:10100000002A48DB114303D0079B1B69002B5DD1ED
:10101000079B1B68DA7B002A07D051008A181968E1
:101020008C4649466244033A51704A46DA734B464D
:10103000079A013BD168CA5C0132CA545B46079AE1
:1010400013615368BFF35F8F5A461A6085F31088A7
:1010500082E700230026984600279A460020A7E74B
:10106000002901D100289BD10021200000F0C4FB01
:1010700043461E685F689B68079A9A464346DB684A
:101080009846D3684B44013B1B780A931B020343E9
:10109000136100208CE72369002BB9D033003C009A
:1010A0005B1A94411A002300A74219D89F421BD013
:1010B000594604910121039149460291414601910B
:1010C000514607980091FFF7B1FEB7E700F08CF9A1
:1010D000089A099B06000F0092197B419942E5D9B5
:1010E00001225242D317E3E79642E1D9012252424C
:1010F000D317DDE704110020FFFFFF0F10B5124CDE
:101100006368002B04D00A211048FFF7C1FD10BD11
:1011100023000F4A1021206800F08CFA032000F011
:1011200057F9032000F032FA03200A4900F076F95B
:10113000FFF7FAFB084B9C46032360442375074BDB
:1011400080006060DC60DEE71007002020110020D6
:10115000A10C0010350F00104000003404110020D5
:10116000F0B504000D0006267642F717C64636197C
:101170006F4100B58F4213D810D000F035F932001E
:101180003B00121A8B41002B14DC002B37D02900B6
:10119000200000F033F904BC9046F0BD8642ECD943
:1011A0000026002700F020F932003B00121A8B4184
:1011B000002BEADD30003900FFF7A4FD0028E6DB54
:1011C00000239846BC460F4A0F4F7B6A9C4504D8C3
:1011D000B96A8E42DBD99C45D9D11168EFF31080F2
:1011E00072B60B68002BFCD0BFF35F8F1368BFF3A0
:1011F0005F8F4146196080F3108820BFE5E7002A21
:10120000C5D0D7E7201100200040054070B506008A
:1012100000F0EAF8FA2204000D000023300000215B
:10122000920000F0C5FF001969418D4205D802D037
:10123000FFF796FF70BD8442FAD901204042C117E2
:10124000F6E7C046F8B5CE46474680B506000C0026
:10125000FFF758FD00280CDC2D4B0020596A8C420A
:1012600003D89B6A0130B34245D30CBC90469946E3
:10127000F8BD20BF274D6A68EFF3108772B6136878
:10128000002BFCD0BFF35F8F2B68C1B29C465B7B09
:101290008B4235D0FF2303405A00914662461268C4
:1012A000994490464A464244033A9278002A1DD017
:1012B000EA68000A90464344013B1B78C0B283426F
:1012C00021D06B68BFF35F8F00221A6087F310880C
:1012D0000F4A0020536A9C42C7D8926A0130B2423A
:1012E000C3D2E41A601E8441E0B2BEE72B69984283
:1012F000E7D12A61E5E7641A601E8441E0B2B4E7F1
:10130000FF230340D4E7604600F014FBD9E7C04652
:101310000040054010070020F0B5D6464F4646462F
:10132000C0B5EFF305833F22134018001038EFF3E8
:10133000108C72B6204D2A68002AFCD0BFF35F8F54
:101340000122110081401D4C884661631C49170031
:101350000E788A463100C1400F400A4215D0194923
:101360008200646A51588C4219D3174BD2584346B5
:101370009E4353461E70BFF35F8F00232B608CF398
:101380001088002A06D0904704E0BFF35F8F2F60DB
:101390008CF310881CBC90469946A246F0BD0B4ABF
:1013A0009B00904643441A681A60BFF35F8F002386
:1013B0002B608CF31088EDE7280100D00040054039
:1013C0005311002024110020740B0020D03F054051
:1013D00010B50100024A0348FFF71EFA10BDC046CF
:1013E000744B001051110020034B596A0A00986A8F
:1013F000596A8A42FAD1704700400540064A536A4A
:101400009942FCD807D1044B02E05A6A914202D1BA
:101410009A6A8242F9D370470040054070B50400D3
:101420000D00EFF3108672B61A4A1368002BFCD039
:10143000BFF35F8F002D1BD02000FFF7AFFA1649D6
:1014400081420AD02000FFF7B1FA01212000FFF706
:1014500087FA0123A340114A1360114BA400E55001
:10146000BFF35F8F00220B4B1A6086F3108870BDAC
:101470000B4BA200D5500122A2400A4920000B7854
:1014800093430B700449FFF7BBFA00212000FFF7DC
:1014900067FAE5E7280100D019130010386005400D
:1014A000740B002053110020F0B54F46D646464637
:1014B000C0B50700304C616A0D00A66A616AA94296
:1014C000FAD18B4208D805D001201CBC9046994621
:1014D000A246F0BDB242F7D9EFF3108972B62748A1
:1014E00001680029FCD0BFF35F8F01252449BD406E
:1014F0008C460978204C0E002E438846F1B28A466D
:10150000614650460870391D1E48890065630A51BE
:10151000B9000B50216A0020294219D0616A0800E5
:10152000A66A616A8142FAD18B4219D801D1B242CE
:1015300016D8C2451DD0104B1F201D625D630123CC
:101540000740BB40104A1E381360634642461A707B
:10155000BFF35F8F0022094B1A6089F31088B4E74C
:101560000020BFF35F8F0022044B1A6089F31088BC
:10157000ABE70120ECE7C04600400540280100D061
:10158000531100202411002080E200E010B5EFF399
:10159000108472B60A490B68002BFCD0BFF35F8F32
:1015A00001238340074A0848136202789A43027075
:1015B000BFF35F8F00230B6084F3108810BDC0461B
:1015C000280100D0004005405311002070B50500EF
:1015D0000E001400002924D0002A24D080686B68F3
:1015E0009847296800280ED063001B197200033B3E
:1015F0009219CB18033A9E7088188A5C002A14D17D
:10160000047030000EE073009B196200033B121956
:10161000CB18033A9C7088188A5C002A00D05A7054
:101620000670200070BD0800FCE75A70047030009E
:10163000F8E7C04630B583600023CCB24373013372
:10164000047342608373C4730D000068012C06D9D3
:10165000421C0133DBB2137003329C42F9D1FF21EB
:1016600029404B005918002340180338437030BDFF
:10167000F8B5CE46474606000C0080B5002907D0D5
:101680004D0003686D18033D5A195778002F04D197
:1016900020000CBC90469946F8BD7900C919033961
:1016A00088464344597889460021597051707368BF
:1016B0003A002100806898473368002814D04246D9
:1016C0009A18947059195B5D002B00D053700F70FD
:1016D000270049463000FFF7CBFF390002003000F9
:1016E000FFF774FF0400D3E7424641465D19AF702F
:1016F0009A185B5C002B00D06B701470E9E7C04651
:10170000F0B557464546DE464E46E0B50D006B0047
:1017100001685B19DF1E0400C85D83B00192CA191D
:1017200000284CD043001B18033BCB185E78B4460E
:10173000002E16D1019E002E3ED0E67B002E04D056
:1017400073009B19CB18033B5D70E57300282FD104
:101750000023537003B03CBC90469946A246AB466A
:10176000F0BD72006244033A89184A78904600221C
:101770004A7091465A70010032002000FFF726FFA0
:1017800043468246002B07D05B0021684344033B5D
:10179000CB185A78002A16D1424651462000FFF74E
:1017A00015FF2168019BCA19002BC6D10028CFD094
:1017B00043001B18033BCB1800219970C8E7019B1D
:1017C000002BBAD1C4E750008018033809184878B4
:1017D000834648464870587041462000FFF7F6FEA1
:1017E000594680462000FFF743FF41460200200093
:1017F000FFF7ECFE8046CFE7F0B54E464546DE46A5
:101800005746E0B5467B040075000068AD19033DFE
:1018100083B00191415D421900294ED04B005B1805
:10182000033BC3185F78BC46002F18D1019D002DE3
:1018300040D0E57B002D04D06B005B19C318033B3F
:101840005E70E673002931D100233000537061735C
:1018500003B03CBC90469946A246AB46F0BD7A0028
:101860006244033A801842789346002242709146BF
:101870005A7020003A00FFF7A9FE5B468046002B15
:1018800007D05B0021685B44033BCB185A78002AE1
:1018900017D15A4641462000FFF798FE019B0100F0
:1018A00020684219002BC4D10029CDD04B005B1811
:1018B000033BC31800209870C6E7019B002BB8D1EA
:1018C000C2E7500080180338091848788246484615
:1018D0004870587059462000FFF778FE53468346FB
:1018E000002B07D05B0021685344033BCB185A7888
:1018F000002A06D1594652462000FFF767FE83466C
:10190000C7E7500080180338091848464F784870D8
:10191000587051462000FFF759FE390081462000DB
:10192000FFF7A6FE494602002000FFF74FFE824661
:10193000E0E7C04670B5040000292CD0437B8B4201
:101940002ED0056848004018033828188278002AED
:1019500021D053009B18033BEA5CEE188A4202D167
:101960001BE0002A08D053009B18033BEB185A7861
:101970008A42F6D142785A70002301228370437064
:101980002000FFF7BDFE617B02002000FFF71EFE76
:101990006073012000E0002070BD43783370EBE7F6
:1019A00001221900FFF7ACFE60730120F4E7C04686
:1019B00010B50400FEF7B8FF01002000FFF768F93A
:1019C000FF232371BFF35F8F10BDC04610B5040025
:1019D000FEF7AAFF01002000FFF75AF9FF23A380BA
:1019E000BFF35F8F10BDC04610B504000120FEF7A5
:1019F000A7FF034BC3189B002360BFF35F8F10BD8D
:101A000040000034F8B5040006200D0000F062FA32
:101A1000002845D02B4B2C49E3185A4253418022D1
:101A2000D20394465B421340284A63441360284A19
:101A3000136018008A689043FBD1224B8021E31881
:101A40005A425341234A5B0049000620995200F054
:101A500041FA2900C00000F00FFBC30921D1402743
:101A60000122260080256262A36200232C36AD018C
:101A700035432B60062000F02DFA3900800000F07D
:101A8000FBFA6023E26A53406E221A4080235B0116
:101A900033431A60104B236310232B600D3BA36468
:101AA000F8BD0E4A934203D900230D4F0D4AD8E7E3
:101AB0007F221040013040089F011A003F180300A8
:101AC000CFE7C0460080FCBF00C0004000E00040FF
:101AD00000F000407C12002001030000FEFF000027
:101AE000C0FF3F00FFFF00002C4B2D4A70B51A606D
:101AF0002C4A2D4B2D491A6010008B689843FBD15E
:101B00002B4C2C4B9C4209D2013B1D1BAD080135CF
:101B1000AD002D1908CC9847AC42FBD100F07CF801
:101B2000254A214B1A60214A9368DB018033FBD19F
:101B30004022224B224C234D9A675A671A67DA6675
:101B4000AC4208D223682000002B21D00834FFF7D4
:101B50003DFFAC42F6D31C4C1C4DA168C0222800AE
:101B600000F096FBA560FEF7D1FEFFF77FF8FFF7C8
:101B7000C5FA174C174B9C4209D2013B1D1BAD08FF
:101B80000135AD002D1908CC9847A542FBD170BD99
:101B90000834FFF70DFFAC42D4D3DCE700E000408F
:101BA000BFCDFBFEFE7F3C0000F0004000C00040C7
:101BB000B0070020C0070020FFFFFF0100F0014038
:101BC000A0070020B007002000ED00E0000000208A
:101BD000C0070020C807002000BEFDE70FB400B515
:101BE000084883B000F07EFC049B002B07D005A9B9
:101BF0001800019100F0ECF9034800F073FC00BEFE
:101C0000FDE7C046984B0010A84B001010B50148E6
:101C1000FFF7E4FFAC4B001030B50C2083B000F0B0
:101C2000B3F9FEF76BFE00280ED0944B944A1A606D
:101C30005A609A60DA601A615A619A61DA611A62CE
:101C4000904A5A6203B030BD8F4CA06700F0A4F9EF
:101C500001228E4B1A60636C012BFCD103228C4B4A
:101C60001A60894A936B012BFCD101330121894A07
:101C700089480093043300F033F90523874A009321
:101C80000121874800F02CF9864B5A68FF2A02D8B8
:101C9000802252005A608022784C7D4B21691201CB
:101CA000804D1A60002905D0606900F0E5F9013027
:101CB0000138FDD1E0217B4B02201A6811408022BF
:101CC00052012A4311601968484003210140116004
:101CD00004219A681142FCD08022802192012A437B
:101CE00009011160802252005A606F4B23616F4BD3
:101CF0005968FF2900D85A6003226C48634B0121C0
:101D00001A60020093681942FCD0E02513681D4058
:101D100080235B0103431D6012684A400321114088
:101D200019600221614A93681942FCD08023802106
:101D30009B0103430901196080215D4B49005160FB
:101D400063615C4B5A68FF2A00D8596080225A4B65
:101D5000E1691201574D1A60002905D0606900F051
:101D60008BF901300138FDD1E02252490B681A404D
:101D700080235B012B431A60802380229B012B432D
:101D800012011A6080223E4B52004A60E3614B4BC5
:101D90005968FF2900D85A608022494B216A1201F4
:101DA000464D1A60002905D0606900F065F90130E0
:101DB0000138FDD1E02241490B681A4080235B01C4
:101DC0002B431A60802380229B012B4312011A604F
:101DD000802380225B004B60294BD2022362394B67
:101DE0005968914200D25A608022374B616A1201D1
:101DF000344D1A60002905D0606900F03DF90130CA
:101E00000138FDD1E0222F490B681A4080235B0185
:101E10002B431A60802380229B012B4312011A60FE
:101E20008023DB024B60174B6362284B5A68FF2A02
:101E300002D8802252005A608022254BA1691201EB
:101E4000224D1A60002905D0606900F015F90130B3
:101E50000138FDD1E0221D490B681A4080235B0147
:101E60002B431A60802380229B012B4312011A60AE
:101E700080235B004B600E4BA361E3E6880C0020DF
:101E8000006CDC021BB70000008000403CB000404A
:101E900030B00040002F685900800240008C864717
:101EA00000C0024030800040001BB7003C80004072
:101EB000405973075480004054B000406080004097
:101EC00060B000406C8000406CB000404880004032
:101ED00048B00040014B8000C0587047880C00207B
:101EE000F8B504000C2017001D000E0000F0C4F827
:101EF0004101091A8B01591AC900091889013800D2
:101F000000F0BAF8069A2B04120313432268002A41
:101F100021DB194AA21851424A41802149018C46CD
:101F200052420A40154962440A6015490A6015493F
:101F300017008D68AF43FBD1C021221D89011143D9
:101F400021222660A0600A602268002AFCDAE36091
:101F500008230B60F8BD3F2221680A40B242D8D165
:101F6000A2681205120D8242D3D1EE21E268C902A5
:101F70000A409A42CDD1EDE70040FDBF00E00040AD
:101F800000F0004000C000408023024A9B00034351
:101F9000D362704700800540AA23064A1B011360E4
:101FA0002F230549D360054B19605368002BFCDAD9
:101FB0007047C0460040024000B0FA000060024096
:101FC00010B5002800D110BD00F03AFAFBE7C0467A
:101FD00010B5094A0300146884B0002C08D001220F
:101FE00000910648524203A9A047012004B010BD49
:101FF00000F078FA0020F9E7FC100020C11F001063
:1020000001480421014B1847400700203D200010E3
:10201000014B9B681847000040070020142310B5AF
:102020000100188804331B88984710BD162310B58B
:102030000100188802331B88984710BDF0B5C646CA
:1020400000B5002916D0142304000125984618274E
:10205000890046184346216818883B88984701C480
:10206000431E984140420540A642F3D1280004BCDB
:102070009046F0BD0125F9E7114A936F9B0813D2F2
:1020800010665166002905D0FFE7FFE7FFE7516FB3
:10209000106F704704B5002801D00020C04302F043
:1020A000DFFC002104BDC046F0B5146E556E576FBD
:1020B000166FFFF7E5FF1466556657671667F0BDA4
:1020C000000000D0132370B51D78012D15D010DD50
:1020D0002748FFF7ABFF274C01008022200000F0CB
:1020E000D7F8022D06D02448FFF798FF234B18603D
:1020F00070BD204C224AA264F5E72E001D4C204AF8
:10210000A3085B421E401D422FD0330022602020D6
:10211000B1006118801B0A604A608A60CA600A6167
:102120004A618A61CA610A624A628A62CA620A6351
:102130004A638A63CA630A644A648A64CA640A6531
:102140004A658A65CA650A664A668A66CA660A6711
:102150004A674008102803D18A67CA67A264C2E7A9
:102160001E339B00E250A264BDE70023CFE7C046C8
:1021700053440000801200204C3300001C1100204A
:102180008521001007B5604601880A0A0230DF2A5F
:10219000FAD1C9B2820804D30288408800041043EF
:1021A00000E00068014A5050039007BD80120020F3
:1021B00051434343C9188C46110C83B24B4310B4AE
:1021C000040C614392B280B2504362431C041B0C66
:1021D000001910BC59411304120CC018514161443C
:1021E00070470000132310B512481C78FFF71EFF3C
:1021F0000100012C0AD003DD80220F4800F048F8CE
:102200000E48FFF70BFF0E4B186010BD0A4C54220E
:10221000200000F03DF80B4B6365A365E365236682
:102220006366A366E36623676367A367E367236266
:10223000E361E5E753460000801300204C330000C3
:102240001C1100204922001007B5604601880A0AC7
:102250000230DF2AFAD1C9B2820804D3028840884A
:102260000004104300E00068014A5050039007BD8D
:102270008013002001480421014B1847500700201B
:102280003D200010014B1B6818470000500700203C
:10229000014B5B681847000050070020030010B591
:1022A00008001B681100984710BDC046F8B54746A6
:1022B000CE4680B5437C07000D001600002B37D0BA
:1022C00000240020002A1EDD4B1E98461B4B994619
:1022D000002C2BD043461B5D0D3B5A425341DBB2D1
:1022E0002A5D0A2A13D00134A642F1DC864203DDBE
:1022F000311A3B6828189847AD19013D2B780D3BE2
:102300005A4253413B740CBC90469946F8BD002B91
:10231000E9D1A04203DA211A3B68281898474846B9
:1023200002213B68013498472000DDE73B7CD7E77A
:102330000368110028009847E5E7C0467C4C001070
:10234000F0B557464E464546DE461C00D023E0B564
:102350001B061F68354B83B006000D00180001A94D
:1023600091469A4602F084FB8046002808D1019BE2
:102370007FB29F4204D0504602F08AFB0123984668
:102380006B1C03D1300002F01BFB0500002C2AD18E
:10239000274F284B1C68002C18D04B46002B24D10B
:1023A000254B994602E0E468002C0FD02368002BEF
:1023B000F9D04B461B68002B01D0A342F3D120007B
:1023C0002A003100B847E468002CEFD14346002BC7
:1023D00028D1681E8541E8B203B03CBC90469946BE
:1023E000A246AB46F0BD154FD3E7134B99460A23DF
:1023F0009B4602E0E468002CE8D02368002BF9D06B
:102400004B461B68002B01D0A342F3D12A003100B8
:102410002000B8475A466B4620001A7101A90122D4
:10242000B847E7E7504602F00BFBD2E7A8070020C9
:10243000AD220010F00C0020F40C00209D220010B2
:10244000F0B54746CE4680B583B06B46DF1CD0233F
:1024500038701B061C68204B060001A9180098461E
:1024600002F006FB051E22D01C4B1C68002C2AD053
:102470001B4B994602E0E468002C10D02368002B27
:10248000F9D04B461B68002B01D0A342F3D12000AA
:1024900001223900FFF70AFFE468002CEED1002D7D
:1024A00011D1300003B00CBC90469946F0BD019BA1
:1024B00064B29C420BD0404602F0EAFA074B012579
:1024C0001C68002CD4D1404602F0BAFAE9E7034B6D
:1024D0001C68002CCCD1E4E7A8070020F00C0020F9
:1024E000F40C002070B5040002F06AFA0023010029
:1024F000050001222000FFF723FF084B1C68002C79
:1025000006D06368002B05D09847E468002CF8D10A
:10251000280070BDE468002CF3D1F9E7F00C00202E
:102520000A4A1368002B05D10CE01A00DB680C3254
:10253000002B07D09842F8D1002902D1C36813605C
:10254000C16070470029FCD01060FAE7F00C002051
:10255000F0B50D1E15DD0E4B0D271A680D4B4519F4
:10256000D31859424B410C495B005E5E2021047830
:10257000A64207D093691942FCD101301460A842E9
:10258000F5D1F0BD93691942FCD11760F2E7C0465E
:10259000441100200080FCBF7C12002030B50500F3
:1025A000002912DD00201024094B013D1A689369AF
:1025B0001C4208D1013093691C42FCD113682B5492
:1025C0008142F4D130BD0028FCD103204042F9E71C
:1025D0004411002070B51C000A4B15001860FFF76D
:1025E00011FA002D03DB02212800FEF7C9F8002CA8
:1025F00003DB02212000FEF7C3F801210248FFF7A8
:102600008FFF70BD4411002060070020F0B5DE464A
:10261000454657464E46E0B5060083B00D00FEF72E
:10262000E5F8304B2F79F1184B4259412E4B0524D8
:1026300098468B009B4643465A469B5820229C4610
:102640000123BB4001902C57013BD21B002C32DBF5
:10265000944243DCA34062461A423FD19946002F80
:1026600018D06B782A781B021A43AB781B041343EB
:10267000EA7812061A439246002351465A008D5AB0
:102680006A0B00D12D191A1912329200013395519B
:102690009F42F2D863464A46594613434246019840
:1026A0005350FEF7AFF8200003B03CBC904699466B
:1026B000A246AB46F0BD002A10DB190060469140EF
:1026C00014008946014207D1C9E7180061469040CD
:1026D000140081460842C2D0013AF6D20348FFF7FF
:1026E0007DFAC0460000D0AFE0090020804C001009
:1026F000F0B5DE4657464E4645461C004B00E0B559
:102700008B461D0084465D44ED0065442E0085B077
:10271000DC3603933368170002900193002C18D025
:102720008023DB049A4601239946124BD8359846FC
:102730002000FFF76DFC52464301134333603B001A
:102740004A46C3401340424613432B60631E1C405D
:10275000EED1039B5B44D800029B9C46019B6044E6
:10276000DC30036005B03CBC90469946A246AB46BF
:10277000F0BDC04680E00000F0B501258D40046842
:10278000AC434D0004606C18E40004192600C83600
:10279000002B2AD01F68DC3437605F6877609F6841
:1027A000DB68B76023606B18DB001D008024D03528
:1027B000451964012C4380252D0625602560114CA8
:1027C0000D1D8C40846001242700AF403D0008317E
:1027D0008C401F2106680A403543056005682C437C
:1027E0000460C018D8300260F0BD80277F023760D7
:1027F000F8277F027760C027DC343F03B76023608F
:10280000D1E7C0460101010100B5054B83B00100CD
:10281000009300220B230348FEF722F803B000BD0B
:10282000944C00104C11002003BDC04610B50400AC
:10283000FEF71CFAA04710BDD02202211206136D2C
:102840001942FCD0506540BF7047C046D0221206E6
:10285000136DDB0704D4012120BF136D1942FBD097
:10286000D0231B06986D7047F0B5040087B00F2089
:102870000D001700FEF786F8002106000F20FEF776
:102880006FF8002300220092019301230293D023CA
:1028900004950594002500200121022403971B06BE
:1028A000002D14D01A6D1442FCD05D6540BF1A6D26
:1028B000114203D120BF1A6D1142FBD09A6DAA427A
:1028C0000AD000206D468200AD58E9E79A6D1A6D76
:1028D0001142FBD140BFE5E701300528F2D93100B4
:1028E0000F20FEF73DF807B0F0BDC0460B4B0C4A79
:1028F00010B5934201D201235B421900094A985056
:1029000004329B50084A094B0948CA50094B9A683F
:10291000044B9C466144FFF7A7FF10BD000804204C
:1029200000000420F40700002D280010FC07000020
:102930002928001000ED00E010B5024800F00CF866
:1029400010BDC0461411002010B508220149FFF740
:102950009FFC10BD1411002030B5002589B0040083
:102960000922002101A80095FFF78CFC0922002113
:1029700005A80495FFF786FC4B236A46684613704A
:1029800004A90D2202F054F8152108222000694400
:10299000FFF77EFC09B030BDF0B598235746454699
:1029A000DE464E466C4AE0B5D75880253C006D02A5
:1029B000883B9A4683B02C402F420FD0012223211E
:1029C000664B00205A54DA70654901F04BFA8022B8
:1029D000644B92021A65644B2C009A46FB0617D48E
:1029E00080235B011F4245D18023DB011F4200D0C1
:1029F00088E080231B021F4200D091E0BC4200D03F
:102A0000A5E003B03CBC90469946A246AB46F0BD5B
:102A1000514B9B6D9846002B27D0524B00259B466F
:102A20000123994643460126B8461F0004E00135BC
:102A30007600EDB2202D17D03742F8D05B469E6568
:102A40004B466C08AB436400E418444B64019C465D
:102A50006444200000F08CFB00286CD10135B743A2
:102A6000EDB27600002FE5D1474680235B01544646
:102A70001F42B9D01C430023374A00211360384A53
:102A80003A489360D3603A4A9360D360394A93607E
:102A9000D360394A9360D360384A9360D360384A30
:102AA0009360D360374A9360D360374A9360D360B2
:102AB000364A9360D360364A9360D360354A936058
:102AC000D360354A9360D360344A9360D360344A0C
:102AD0009360D360334A9360D360F0229200FFF793
:102AE000D1FB314B314A00211A600020012201F054
:102AF0008FF980221B4B12031A658023DB011F42D2
:102B000000D176E70122042100201C4301F0F0F8F7
:102B10001022144B1A6580231B021F4200D16DE75F
:102B20000122052100201C4301F0E2F880220D4B18
:102B300012011A6562E74B46A28AA1780020009331
:102B4000002301F0B7F9200000F050FA86E72100D9
:102B500017487940FFF742F800001150FC0C0020A4
:102B60000000105000301150100001003C0D0020FA
:102B70000800105010001050180010502000105085
:102B800028001050300010503800105040001050F5
:102B90004800105050001050580010506000105065
:102BA000680010507000105000110020800110507B
:102BB000B44C001010B501210520FDF7D1FE10BD69
:102BC00010B500220021024800F036FA10BDC046C0
:102BD0001C0D00208022024B5202DA647047C0466E
:102BE00000201150F0B5C64600B5060000F0D8F937
:102BF0000C23364D0520AB673549FDF7D7FE402342
:102C00009846344C402200212000FFF73BFB414610
:102C10000023012700222120A1832F4967706380B0
:102C2000A277A1600B6022545F3060844046A08789
:102C30000238225429492A4A6360E160A262136083
:102C4000284A6362E1629360D360274A2000936060
:102C5000D360264A00219360D360254A40309360B8
:102C6000D360244A9360D360234A9360D360234A9D
:102C70009360D360224A9360D360224A9360D3600A
:102C8000214A9360D360214A9360D360204A9360C5
:102C9000D360204A9360D3601F4A9360D3601F4A79
:102CA0009360D360F0229200FFF7ECFA1C4B1D4AB0
:102CB00030001A6080239B052F64EB6490231A4A2E
:102CC000EA50FFF787FF04BC9046F0BD00001150AA
:102CD00099290010FC0C00208400105000011050B5
:102CE00080001050000010500800105010001050CC
:102CF00018001050200010502800105030001050C4
:102D00003800105040001050480010505000105033
:102D100058001050600010506800105070001050A3
:102D2000001100208001105010D001000B785B06CC
:102D300002D14B78052B00D070478A78014B1A607E
:102D4000FAE7C04600001150F0B5CE4647460723CB
:102D500080B548798E780A790340C8787F2180074A
:102D600031401B02F40913434F00820F94469146F1
:102D70002A4D3A195201AA189670012666405670DB
:102D8000604600269383D6709077CA00012C29D024
:102D900023488446880162448446AC44604682608D
:102DA0001660002929D01F4AC9009046414441605D
:102DB0003F223F3393434A46022A00D15B001A491F
:102DC0003F190A687F01D3180B60184BED19534067
:102DD000EA604A469006184380231B0618436B6836
:102DE000186010E012488446880162448446AC446E
:102DF00060468262166000290AD1002364012D1901
:102E00006B600C4BEB6001200CBC90469946F0BD0A
:102E1000064AC900904641444162C9E7FC0C0020C3
:102E200084001050040010500011002000001050C9
:102E3000800010500001105000231C4A10B5936010
:102E4000D3601B4A00219360D3601A4A1A489360EA
:102E5000D3601A4A9360D360194A9360D360194AC9
:102E60009360D360184A9360D360184A9360D3602C
:102E7000174A9360D360174A9360D360164A9360F1
:102E8000D360164A9360D360154A9360D360154AA5
:102E90009360D360144A9360D360F0229200FFF7EE
:102EA000F1F9124B124A1A6010BDC04600001050D2
:102EB00008001050100010503C0D00201800105059
:102EC00020001050280010503000105038001050D2
:102ED0004000105048001050500010505800105042
:102EE0006000105068001050700010500011002059
:102EF0008001105010B57F200C0020404000E409F4
:102F0000110000191A00034B4001C01800F094F89A
:102F1000012010BDFC0C00207F23180010B50840D4
:102F20000B420BD0C90980224000401806494001DD
:102F300040181201002100F05FF810BD0223034A7F
:102F4000C9095B1A9366EEE7FC0C002000201150C3
:102F50007F23180010B508400B4200D110BD00239C
:102F60004000C9094118044849014018002203499A
:102F7000C37000F041F8F1E7FC0C0020FFF7FFFF01
:102F80007F2110B58078044AC3099B0001409A58FC
:102F90000248FEF723FEC04674070020C84C00100C
:102FA00080220D4B520410B51A600C4B0C491A606C
:102FB00010008B689843FBD10A4C9C220021200012
:102FC000FFF760F98022002152010748FFF75AF904
:102FD0000923636710BDC04600E0004000F00040D8
:102FE00000C0004000001150000010500023037486
:102FF000438283828361704710B58368002901D0C2
:103000001C682140002A11D08024E4001143224290
:103010000CD01A6822420BD1064A0A401A60FFE718
:10302000FFE7FFE7FFE7FFE7FFE78368196010BDF1
:10303000FFF7A6FFFFFBFFFFF0B5C646002300B574
:10304000838201330374436804001E68838B8161AB
:103050001F1C934200D9171C8025BFB2D21BE378F6
:1030600092B2ED0062823D43002B02D09025AD016B
:103070003D4301204340E3706378002B51D0002A88
:103080001DD1A023DB011D43354B1B6C354B334059
:103090008026B6051E436368A2681E6013685B0540
:1030A0005AD4314B2B401360FFE7FFE7FFE7FFE700
:1030B000FFE7FFE7A3681D6004BC9046F0BD8023D6
:1030C0005B011D43264B1B6C9B0703D4A378DB09D4
:1030D000012BDBD1A38B191C934200D9111C802733
:1030E0008BB2FF00D21A98461F43E37892B26282F5
:1030F000002B03D090274146BF010F4301214B40D5
:10310000E3706378002B19D0002A02D18023DB0101
:103110001F43164B3F043340A026F6053D431E4394
:10312000B9E73A00E068FFF7B3F8A369628A9C4602
:10313000802367441B02A7611D43A0E7E068424665
:10314000A1694030FFF7A4F8A369628A4344A361F0
:1031500080231B021F43D7E72000FFF711FFC04663
:1031600000001150FFFFFFAFFFFBFFFFFFFFFFDF7E
:10317000F0B5C64600B5067C0400002E00D1D3E0B1
:1031800083681A681D684378AD05AD0D002B51D1D9
:10319000838AEB189BB28382A18B8D4207D20023D6
:1031A000638263681B68300004BC9046F0BD6268AF
:1031B0001268520002D58D4200D175E0638A002B5F
:1031C000F1D062681F1C16688B4200D90F1C802545
:1031D000BFB2DB1BE2789BB2ED0063823D43002A65
:1031E00002D09025AD013D4301214A40E270627852
:1031F000002A68D0002B2AD1A023DB011D434F4BAE
:103200001B6C4F4B33408026B6051E436368A26893
:103210001E6013685B0500D58DE04A4B2B401360A0
:10322000FFE7FFE7FFE7FFE7FFE7FFE7A368002609
:103230001D60B8E72A00C1688069FFF729F8A38AF2
:10324000A269EB189BB25219A382A261A4E7802263
:1032500052011543394A126C920703D4A278D2095D
:10326000012ACED1A28B111C9A423FD880278AB264
:10327000FF009B1A90461743E2789BB26382002AB4
:103280002FD101214A40E2706278002A3ED0002B03
:1032900002D18023DB011F432B4B3F043340A02688
:1032A000F6053D431E43B1E7A26815686278AD019B
:1032B000AD0D002A1CD1EB18A3828D4200D37DE70F
:1032C000002363826FE73A00A169E068FEF7E0FF40
:1032D000A3699C46802367441B021D43A761638A40
:1032E00088E790274146BF010F43CAE7191CBDE795
:1032F000E1682A004031A069FEF7CAFFA38AA18BCA
:10330000EB18A382A3695B19A361D6E7E068424684
:10331000A1694030FEF7BCFFA3694344A361802349
:103320001B021F43638AB2E77F238178074A08485C
:103330001940FEF753FC2000FFF722FE0000115059
:10334000FFFFFFAFFFFBFFFFFFFFFFDF7407002062
:10335000E84C0010014B18787047C0464F11002010
:10336000F8B54746CE4680B5294F05003B78002B7F
:1033700004D001200CBC90469946F8BD5322002190
:103380002448FEF77FFF244C2000FEF711FB234B5F
:103390001C60234C20001C30FEF726FB200001F0AF
:1033A000D1FA204B204E1C60204B9846002B04D0B5
:1033B000300000E000BF1E4B186042460024337806
:1033C000002A1DD01B4A9046194A91469C4210D3B0
:1033D0001BD14346984701343378E4B2A342F5D277
:1033E0002800FFF7FFFB2800FFF7E4FB01233B70F9
:1033F000BFE74A46630012681B19DB009B58E9E7E8
:1034000000F078FF3378002BEAD000231B68FFDE42
:103410004F110020840900203C090020D809002019
:103420007C070020DC0900204E1100200000000075
:10343000E4080020F5420010F0B5DE4657464E463F
:103440004546E0B589B001F045F8002800D147E1D4
:10345000C44BC54D9B4605AC2E68F269EFF3108353
:1034600072B611680029FCD0BFF35F8F3362210070
:10347000300001F0DFF8F269336ABFF35F8F00219B
:10348000116083F31088002800D129E16378082BAC
:10349000E2D8B64A9B00D3589F466368002BDBD026
:1034A000A0689847D8E77F222179AE4B0A405600A2
:1034B000C8099B191B18180001273030C678BE4375
:1034C000C670C6780337BE43C670002A00D10EE12D
:1034D000A74ADB7C002A06D0A64A1278934200D283
:1034E00093E19B1ADBB2002B00D0F9E0A24E627987
:1034F0002078A368B047AFE75B4601221B78012123
:1035000013435A46137033235846D25C5E468A43AF
:10351000C254C25C04208243F2540133F25C277827
:103520008A43F254F25C8243F254002000F0E6FD3C
:10353000602223791A40602A0DD0402A00D1F3E09E
:10354000DB06DB0E012B00D16AE1022B00D123E167
:10355000002B00D1F7E020780021FFF7DDFC80216F
:103560002078FFF7D9FC77E77E4B1B78DB0700D488
:1035700072E7824B002B00D16EE700E000BF6BE7E3
:10358000784B1A78D20700D466E77D4A002A00D12A
:1035900062E718780007C00F00E000BF5CE7754ED7
:1035A000734A00273378002A00D1B7E0754A904665
:1035B000BB4209D8BB4200D0B3E00137FFB29F4203
:1035C00000D949E7BB42F5D9414609687A008C46E3
:1035D000D219D20062445269002AEED02078904776
:1035E00001373378FFB29F42E2D935E72378614E45
:1035F0005F4A984600273378002A00D186E0624A65
:103600009146604A9246320046469046BB425ED89A
:1036100000D078E04B4630009847434601371B788E
:10362000FFB2BB42F2D24F4E532200213000FEF7D0
:1036300029FE1022FF21F01CFEF724FE300020227C
:10364000FF211330FEF71EFE00F04EFD4F4B002B06
:1036500000D101E700E000BFFEE62378454E444A72
:10366000984600273378002A47D0474A9146454A72
:103670009246320046469046BB421FD843D14B4645
:1036800030009847434601371B78FFB2BB42F3D264
:10369000344E532200213000FEF7F4FD1022FF21AA
:1036A000F01CFEF7EFFD30002022FF211330FEF763
:1036B000E9FD00F019FD2379B370CDE6524612689A
:1036C0007B009446DB19DB0063445B68D8E7524615
:1036D00012687B009446DB19DB0063445B689AE761
:1036E00009B03CBC90469946A246AB46F0BD627913
:1036F0002078A36800F016FDAEE6404600F028FEF4
:103700003378002BC4D000235B68FFDE404600F016
:103710001FFE3378002B00D185E7F4E7002B00D1A2
:103720009AE600235B69FFDE1948002800D112E702
:1037300000F0E4FC0021380006AAFCF733FE002864
:1037400000D089E607E7202A00D19EE0002A00D0B9
:1037500001E76379092B00D9FDE60E4A9B00D35897
:103760009F46C04684090020DC0900201C4D001043
:10377000000000004E110020354400100000000041
:1037800000000000E4080020514300100000000089
:10379000A5030010404D00107023217A0B4200D089
:1037A000D9E6C80984460F330B405B00F018C84EB9
:1037B0006044C07C002E06D0C64E3678B04200D29F
:1037C00084E0801BC0B200287CD1002A70D1C24E98
:1037D0006279924602229046524640468243012A2E
:1037E00000D119E15246002A00D0B4E65B4463449C
:1037F0003033DB7804AA9B07DB0F023213803800DA
:10380000022306A900F014FC26E65A00D318B34A96
:10381000DB001268D318002B00D161E71E6966E651
:10382000237A0F2B00D996E6A94A5B44DB78002A5D
:1038300005D0A84A1278934256D39B1ADBB2002BCC
:1038400000D088E6A648A44E00F058FC00213800BD
:10385000F36806AA9847002800D0FDE5602216000C
:1038600023791E401A4200D075E663790A3B012B8A
:1038700000D970E600F042FC63790A2B00D11EE10A
:10388000380006A900F0BCFBE6E5237A0F2B00D92F
:1038900061E68F4A5B44DB78002A06D08D4A1278B5
:1038A000934200D2DCE09B1ADBB2002B00D052E640
:1038B0008B48894E00F022FC00213800F36806AAEC
:1038C00098473CE70026002A82D044E6460030189C
:1038D000824EC00036683618002A00D178E7002EE4
:1038E00000D138E6F068E5E77C4A5E00F318166818
:1038F000DB00F618002E00D12DE6F068A4E7A279CF
:10390000019273789A4207D07378002B00D053E16C
:10391000019B002B00D0EDE05B46019A380006A920
:103920005A7000F06DFB97E5E388012B00D012E69A
:103930000822337893435A461370A1E70220317866
:1039400004AB9A1C8B068908DB0F01400B4355E73B
:10395000737804AA023213703800012306A900F01C
:1039600067FB79E5E088030AC0B20F2B00D9F2E5C6
:103970005C499A008A58974606A800F0C5FB3800B3
:10398000A179FFF71DF9022233781343337063E501
:10399000E388012B00D0DEE5082233781343CAE721
:1039A000514B002B00D1D6E500E000BF021E00D134
:1039B000D1E53800137806A900F03AFBBFE621896B
:1039C000FCF736FE021EF4D1C5E5022B00D17DE1E5
:1039D000464B002B00D1BEE500E000BF0200002AEC
:1039E00000D1B8E5D37891781B020B43380006A9C3
:1039F00000F01EFBA3E6FCF713FE1223020006A94B
:103A0000380000F015FB9AE6394B002B00D1A2E5F7
:103A100000E000BF0200E5E7E288002A0BD1524631
:103A20005B446344012A25D03022904698444346A3
:103A3000DB789B0734D5002E00D10DE5F06800F04F
:103A40005DFBF36806AA002138009847002000F0CB
:103A500055FB34235A46D35CDB0700D5FCE40FE763
:103A60001E4A5E00F3181668DB00F618002E00D11F
:103A700071E537E72F32914699444B46DB789B0737
:103A8000D9D53800FFF764FA4B464246DB789343BA
:103A90004A46D370D378524693434A46D370CAE716
:103AA0003800FFF739FA43460222DB7813434246D7
:103AB000D370D378012213434246D370BBE704ABE3
:103AC0009A1C3800012306A9167000F0B1FAC3E46D
:103AD000000000004E110020A84D0010E408002056
:103AE000A5030010684D0010000000000000000059
:103AF00000000000581EC0B2FCF796FD002800D15F
:103B000029E54378022B00D025E50121C279BA4688
:103B1000931152110B400A4012015B0113435A46A4
:103B200012782F318A4313435A461370092398465B
:103B300080444746C37882781B021343C31802931C
:103B4000029BBB4200D8B9E001227B7800920B2B8C
:103B500004D1FB7800933B78FF187B78042B00D0CE
:103B6000F9E4029B5B4ADB1B9BB298465A4B00264A
:103B70001B78002A13D160E0B3426FD1574B424605
:103B8000390050469847082802D94346834268D2F4
:103B9000514B01361B78F6B2B34200D2DBE4B3429C
:103BA000EAD94F4B1B680393039A730094469B1901
:103BB000DB0063449B68E2E73800FFF73DF9B37828
:103BC000444A454E9A4600213378002A2ED0444A72
:103BD000904632000E009146B3421ED800D092E5C6
:103BE000404B380098474B4601361B78F6B2B3423B
:103BF000F2D2532200215846FEF744FB5B461022C6
:103C0000D81CFF21FEF73EFB2022FF213648FEF79D
:103C100039FB5B4652469A707AE642461268730058
:103C200094469B19DB0063445B68DAE7380000F0D8
:103C30008FFB3378002BDCD065E5424639005046D7
:103C400000F094FB464681468046082801D9B042E0
:103C500028D9214B1B78002B00D17CE400239B68E2
:103C6000FFDE009B8146002B0FD0BB78009A9A188C
:103C7000D2B204E00133DBB2CE709A4205D059468D
:103C8000C918C878FF28F5D065E4330039004A46E2
:103C9000154800F05FFC104B4F441B78B34200D333
:103CA0004EE758E4009B0B4E002BDED13900424614
:103CB000084B0D4800F04EFC474441E70B4B57467C
:103CC000002B00D128E600E000BF25E6FCF7ACFCA5
:103CD000020084E6000000004E1100206D43001039
:103CE000E408002051430010970900200000000064
:103CF00030B587B005000C000C2200216846FEF7A5
:103D0000C1FA6B461D705C70042C4FD009D8022C90
:103D100034D0032C28D13C4B1A78520758D407B022
:103D200030BD052C20D1384B1A78D207F7D50421A5
:103D30001A788A431A70354B1C68E269EFF31081D8
:103D400072B61368002BFCD0BFF35F8F2162694607
:103D5000200000F03DFDE269236ABFF35F8F002180
:103D6000116083F31088DAE7284B1C68E269EFF3EF
:103D7000108172B61368002BE6D1FBE70121224BBC
:103D80001A788A431A701A780331A2431A700022F3
:103D90005A701A788A431A701C4B1C68E269EFF358
:103DA000108172B61368002BCED1FBE7164B1A7840
:103DB000D207B4D504211A780A431A70134B1C6831
:103DC000E269EFF3108172B61368002BBCD1FBE7F8
:103DD00004211A7803A88A431A7000210C22FEF7E6
:103DE00051FA6B466A461D7305235373074B1C68D3
:103DF000E269EFF3108172B61368002BFCD0BFF3B9
:103E00005F8F216203A9A3E784090020DC09002059
:103E100070B584B001AC06000D000C22002120001A
:103E2000FEF730FA012363700D4B25711D68267073
:103E3000EA69EFF3108372B611680029FCD0BFF372
:103E40005F8F2B622100280000F0C2FCEA692B6A18
:103E5000BFF35F8F0021116083F3108804B070BD41
:103E6000DC090020002330B585B001AD6B802870DF
:103E70000633082202A86B70FEF70AFA0C4B1C6886
:103E8000E269EFF3108372B611680029FCD0BFF32A
:103E90005F8F23622900200000F09AFCE269236A08
:103EA000BFF35F8F0021116083F3108805B030BD30
:103EB000DC090020F0B5C646804600B584B001ACF0
:103EC0000F0016000021082220001D00FEF7DAF97D
:103ED00043462370072363700F4B65711D6827717C
:103EE000A660EA69EFF3108372B611680029FCD06E
:103EF000BFF35F8F2B622100280000F069FCEA69A4
:103F00002B6ABFF35F8F0021116083F3108804B028
:103F100004BC9046F0BDC046DC090020F0B5464622
:103F2000D6464F468046C0B50C0015001E00002A3C
:103F30002ED070239946184B00279A466378052B9C
:103F40000FD1E1788907890FB1420AD14A46A37897
:103F50001A4206D153462000997800F0BFFA002893
:103F600005D100201CBC90469946A246F0BD210018
:103F70004046FEF7E9FE0028F3D0A378DA09012ACB
:103F800008D0089A137023780137E418AF42D5DBC4
:103F90000120E7E7099AF5E78409002070B57F243E
:103FA0000C4065000E4C06006419C8092418303412
:103FB000E5780020ED0700D570BD0125E0782843A5
:103FC000E0703000FEF796FF0028F5D10122E3787B
:103FD0009343E370E37803329343E370ECE7C04626
:103FE000840900207F22CB090A4004495200891825
:103FF000C9183031C878C007C00F70478409002045
:1040000070B50A4E0500082230000C00FEF740F99A
:10401000002161560023C943C90F2800F360002224
:10402000C901B360FFF7BAFF70BDC046E8080020C1
:10403000F8B5CE4647469046294E80B581460822BF
:1040400030000D001F00FEF723F94346B360002344
:10405000F381EC79AB7924021C43231CBC4200D9C8
:104060003B1C9FB2B381002C12D0002F1ED04346C0
:10407000002B32D03B1C402F1ED89FB233787F2BB1
:104080001FD80021174A3B004846FFF787FF09E089
:10409000002169560023C943C90F00224846C901BF
:1040A000FFF77CFF0CBC90469946F8BD33787F2B18
:1040B00010D980210022E6E740239FB233787F2B7E
:1040C000DFD9084C3A0041462000FEF7E1F8802194
:1040D0002200D8E700210022D5E70020E2E7C04611
:1040E000E80800204409002010B5142200210248ED
:1040F000FEF7C8F810BDC046E8080020014B186163
:104100007047C046E808002010B5054C01000822A1
:104110002000FEF7BDF80023A360E36010BDC04699
:10412000E8080020F8B53A4C1D0023780600DA09AB
:10413000C9098A4213D00020002D00D0F8BD354BAC
:10414000002B03D021003000FEF7F0FD2369002B87
:1041500043D022000221300098470120EEE77F2B58
:1041600006D8A068002836D02A002B49FEF790F820
:10417000A368E28959195219E38892B2E281A160D9
:10418000934214D03F2D12D9A589A81A071C80B2DA
:1041900040282ED82378BFB27F2B2CD80021AA42EA
:1041A00034D01D4A3B003000FFF7F8FEC6E7236914
:1041B000002B05D0220001213000984700280ED0A6
:1041C000002161560023C943C90F00223000C901F4
:1041D000FFF7E4FEB2E70020B0E70120AEE70021E0
:1041E0003000FEF799FE30008021FEF795FE012099
:1041F000A4E74027CEE7AA4207D0074C3A002000A8
:10420000FEF746F880212200CCE780210022C9E792
:10421000E80800202D2D0010440900204300181844
:1042200010B54301C0188000024B0430C01800F0E4
:10423000E3F910BDE8090020F0B5C6464400201897
:1042400044010419124FA400261DF61900B53000D0
:1042500092B200F03DFA3B1905009978002098468B
:10426000FFF7C0FE002803D0280004BC9046F0BD34
:10427000300000F0D1F93F28F6D9220043460D3234
:10428000FF329978D21940230020FFF787FEEBE731
:10429000E8090020F0B54400201844010419A400E6
:1042A0002500C646124F2035ED1900B5280092B200
:1042B00000F0CCFA3B190600597800209846FFF729
:1042C00091FE002803D0300004BC9046F0BD4D3470
:1042D000FF34E41940222100280000F0F9F9031E00
:1042E000F1D04246002051782200FFF757FEEAE75E
:1042F000E8090020C62270B5144C82B000212000CD
:104300005200FDF7BFFF00252100012380223C3130
:10431000201D009500F034F9260021002000012323
:104320004022BC31FC360095203000F029F93000E5
:10433000FDF73EFBE661661DFF363000A561FDF727
:1043400037FB6663A56302B070BDC046E809002074
:1043500010B5054C0023200008C000F0F3FA20003F
:10436000203000F0EFFA10BDE8090020F0B5C64695
:1043700000B54B7980460F0082B0FF2B04D000209F
:1043800002B004BC9046F0BD284E7378B5782B433C
:10439000F5D18B780C78337008790C19002821D06E
:1043A0006378052B08D0A21804E02178641861789E
:1043B000052901D09442F8D31D4D02006B1C0093D7
:1043C0002100022340460195FFF7A8FD0028D6D022
:1043D0003A796978D3009B1AE41800291BD17178C7
:1043E000002902D1E01B80B2CAE70020FFF7FAFDE6
:1043F0000028F7D1350030004D35FF354022290027
:10440000203000F065F9031EECD02A0071780020FE
:10441000FFF7C4FDE6E72A000C3240234046FF3296
:10442000FFF7BCFD0028DAD1A9E7C046E809002063
:10443000E909002070B5224C0800A2788A420BD00E
:104440006178814206D10020FFF7CCFD002825D0FD
:10445000012070BD0020FCE721000D319AB2FF3130
:10446000201D00F0F3F9174B002B02D0002000E0D4
:1044700000BF0020A178FFF7B5FD0028E8D1201D7E
:1044800000F0CAF83F28E3D922000D324023002073
:10449000A178FF32FFF782FD0120DAE72500200036
:1044A0004D35FF3540222900203000F011F9031E60
:1044B000CED02A0061780020FFF770FDC8E7C04623
:1044C000E80900200000000010B50020FEF748FFBA
:1044D00010BDC04610B5FEF73DFF10BD072210B558
:1044E00044790379224012021A43C3789B079B0F39
:1044F000022B05D0032B15D00020012B08D010BDB6
:1045000002291CD00020402393424041C0B2F6E76C
:1045100002394B4259410D4B9C4661449142404106
:10452000C0B2ECE702394B425941F0230020494226
:104530009B001940403191424041C0B2DFE7044B3B
:104540009C46624450425041C0B2D8E7FF0300008D
:1045500000FEFFFFF0B5002A11D000247F274D7820
:10456000052D06D13D008E7835406D00F6094519C0
:10457000AB550D786419A4B24919A242EFD8F0BD29
:10458000F0B5C64600B5150006AA1E0013788022B5
:1045900004000F009846120295422AD8406900286C
:1045A00003D00121494200F06BFAA069002803D032
:1045B0000121494200F064FA4346A5806D00ADB286
:1045C00023726B1EA381002360696D42E381276023
:1045D000E68065812382002801D000F031FAA069CD
:1045E0000124002801D000F02BFA200004BC9046E2
:1045F000F0BD0024F9E7C046C189028A8B1A9BB23C
:10460000914202D242899B1A9BB28288101C9A4224
:1046100000D9181C80B2704710B5C489018A8388FC
:10462000621A92B28C4202D24089121A92B2981A3D
:1046300080B210BD70B5040080690D00002803D061
:104640000121494200F01CFAE089218A86B2421A0F
:104650008BB292B2884202D26189521A92B2A08879
:10466000904207D286422CD262898218B21A92B244
:1046700022820200002A02D11CE01B1A9BB298423F
:10468000FBD9E288216853432800C918FDF700FED2
:10469000228A0125531C9BB29A420ED900236289BB
:1046A0009B189BB2A0692382002801D000F0C8F9B2
:1046B000280070BD0025238A9BB2A2899A42F1D2BC
:1046C000EDE7321AA18992B29142D1D2CCE7C0462D
:1046D000F0B54F464646D646040080698846914666
:1046E000C0B5002803D00121494200F0C9F9E28990
:1046F000238A91B2D61A9DB2B6B29A4202D2638987
:10470000F61AB6B2A788B74209D2B94254D2638921
:10471000FB18CB1A9BB23E002382258AADB2002E35
:1047200050D04B46B14545D89EB2AF4203D8ED1BA1
:10473000ADB2AF42FBD9E388781B190099462368D4
:1047400069439C4680B26144864225D94B46584312
:1047500083B21A0040469A46FDF79AFD4B46404602
:10476000F71BED195D432168AAB25044FDF790FD97
:10477000228A93199BB29A4218D962899B189BB2DC
:10478000A0692382002801D000F05AF930001CBC37
:1047900090469946A246F0BD4A4640467243FDF710
:1047A00077FD228A93199BB29A42E6D8A2899A424F
:1047B000E6D2E2E7331CB7E7CB1BA2899BB29A4251
:1047C000A9D2A4E7238AA2899BB29A42D8D2D4E77D
:1047D000F8B5040040690E00002803D001214942C9
:1047E00000F04EF9E289218A95B2531A9BB29142A8
:1047F00002D962899B1A9BB2A2889A4221D02B00CF
:10480000954203D39B1A9BB29A42FBD9E288216856
:104810005343C8183100FDF73BFD6B1C9BB29D4212
:104820000BD962899B189BB260690127E38100283C
:1048300001D000F005F93800F8BDA2899A42F3D200
:10484000EFE7277A002FDAD1F5E7C046F8B54546FD
:10485000DE4657464E460400E0B58846151E5AD03F
:104860004069002803D00121494200F009F9E78995
:10487000237A228ABFB292B2002B3BD1B91AA38805
:1048800089B2974202D26289891A89B2591A0A1CDE
:1048900089B2A94253D895B2E288EE1A9246B2B2D2
:1048A00091463E009F4203D3F61AB6B29E42FBD217
:1048B00050462268704394469B1B9BB2524660440C
:1048C0009D422AD841466A43FDF7E2FCEB199BB2B0
:1048D0009F421CD8A2899A4219D36069E3810028BB
:1048E00001D000F0ADF828003CBC90469946A246A5
:1048F000AB46F8BDA3889D42CED317000022E188C5
:10490000ED1A4D438A46A84491461D00C9E76289C5
:104910009B189BB2E1E70025E5E753439BB21A00E1
:1049200041469B46FDF7B4FC3200534641464A449B
:104930005A43206892B25944FDF7AAFCC6E72A1CE4
:1049400095B2A9E710B504004069002803D0012101
:10495000494200F095F8A069002803D0012149429E
:1049600000F08EF80023E3812382A38860695B0056
:104970009BB25A1E5B42A2816381002801D000F0E5
:104980005FF8A069002801D000F05AF8012010BD9E
:1049900010B51920FBF70CFFD0238022E1211B0664
:1049A00092045A620448054B002218604902012310
:1049B000FDF710FE10BDC04600400340401100202E
:1049C00010B5830727D00378002B26D003000321DE
:1049D00002E01A78002A1CD001330B42F9D1196881
:1049E0000F4A104C8A188A4322420FD104331968A7
:1049F0000B4A8A188A43224208D104331968084AAC
:104A00008A188A432242F1D000E001331A78002A42
:104A1000FBD1181A10BD0300E1E70020FAE7C046F9
:104A2000FFFEFEFE80808080F8B5C04600000000DA
:104A300001B40248844601BC604700BF190500204C
:104A400001B40248844601BC604700BF79040020DD
:104A500001B40248844601BC604700BFC100002089
:104A600001B40248844601BC604700BFDD05002058
:104A700001B40248844601BC604700BF990300208E
:104A800001B40248844601BC604700BFE103002036
:104A900001B40248844601BC604700BF51030020B6
:104AA00049444A544147310A00000000B44A00100A
:104AB00007FF0000A08027E00179015000F04200CC
:104AC00020800000CC4A001006FF0000A08020607B
:104AD000A080017800F04300446576616E736875CC
:104AE0002047616A6A6172004445564A5441470052
:104AF0000904000009022000010100A0320904009D
:104B00000002FF00000007050102400000070582C7
:104B10000240000012011001000000400912CAC04A
:104B200010010102030100003C070010E206001022
:104B30004A07001028070010660700102807001019
:104B40002807001028070010280700104445564A7F
:104B50005441470A000000004E6F207370696E6C6C
:104B60006F636B732061726520617661696C61624D
:104B70006C650000486172647761726520616C61E8
:104B8000726D20256420616C726561647920636CAC
:104B900061696D65640000000A2A2A2A2050414E8E
:104BA0004943202A2A2A0A000A0000004861726448
:104BB000206173736572740052656C656173650082
:104BC000626F6F74325F77323571303830000000B9
:104BD00068747470733A2F2F6769746875622E63F6
:104BE0006F6D2F72617370626572727970692F7068
:104BF00069636F2D6578616D706C65732F74726574
:104C0000652F484541442F6A7461675F746573740A
:104C100000000000302E3100312E342E3000000014
:104C20007069636F0000000070696F5F6A7461678C
:104C300000000000466562203230203230323300FE
:104C400006005250BBFF3CB6204C001006005250EC
:104C50003ABCA911144C0010060052509A23561861
:104C6000D04B001006005250E182887FC04B0010EC
:104C700006005250D3F07542B84B00100D0A0000E8
:104C80004E6F2070726F6772616D20737061636523
:104C9000000000004E6F20444D41206368616E6E3D
:104CA000656C732061726520617661696C61626C0C
:104CB00065000000556E68616E646C656420495241
:104CC0005120307825780A006570202564202573EE
:104CD0002077617320616C7265616479206176610F
:104CE000696C61626C65000043616E277420636FBC
:104CF0006E74696E75652078666572206F6E2069C6
:104D00006E61637469766520657020256420257363
:104D1000000000006F757400696E000058340010C8
:104D20005A360010EC3500109E350010803500100A
:104D300068350010F8340010A63400109A340010C2
:104D40003C390010283900105635001090390010F9
:104D500056350010783900106439001056350010AF
:104D600050390010FE38001056350010F63900108A
:104D7000CA390010BE3900105635001056350010E3
:104D8000A0390010CA3900105635001056350010F1
:104D900056350010563500105635001056350010A7
:104DA00056350010083A0010F5420010514300102B
:104DB0006D430010A50300103544001000000000F2
:104DC0004C4544000900525000000002C04D001044
:084DD00008005250120000001F
:104DD800B4020010A80200109C020010404C001001
:104DE800900200104C4C0010584C0010644C0010FD
:0C4DF800704C0010C44D0010D04D001095
:104E0400F0B5DE4657464E464546D024E0B58027E9
:104E1400FF23240687B0BF040600192001938B46A4
:104E240000F0AEFA67620A20676100F091FAA761A8
:104E3400894C2368002B00D1FDE0884B884D9846AF
:104E4400884F2900306800F0BBFA03000533C20123
:104E54001B031343844A356813408022D20513434D
:104E64000393C0231B030493804B06220593A023C2
:104E74005B0381460021386002932800062300F07A
:104E840077FA7B4B0220EC18631E9C410634210008
:104E940000F086FA2100012002AC00F081FA230020
:104EA4004A460021280000F05BFA012280212B6889
:104EB400490213432B6033685A680A42FCD1032227
:104EC40080211A6149025A680A42FCD10322002057
:104ED4001A6100F03DFA43461B6835689A4652460B
:104EE4000633D2011B0313435F4A0021134080227F
:104EF400D205134303935F4B322205935E4B280084
:104F04000493A0235B030293322300F031FA584B3D
:104F14000420EB185A1E934106339846190000F0FA
:104F24003FFA4146012000F03BFA4146032000F0DD
:104F340037FA4146052000F033FA00212300524697
:104F4400280000F00DFA01222B68904613432B60D1
:104F540000F0E6F91023494A11680B431360484BEB
:104F640001A91A68A0239201DB05D31819604146F0
:104F7400D961444B80219C464904624413680B4226
:104F8400FCD1012000F0E4F93F6835687B1DFA018B
:104F94001B031343344A002113408022D2051343D8
:104FA4000393C0231B030493304B06220593A023D1
:104FB4005B0328000293062300F0DAF92C4B02204D
:104FC400EB185A1E934106339946190000F0E8F98C
:104FD4004946012000F0E4F923003A0000212800AA
:104FE40000F0BEF9012280212B6849021343326884
:104FF4002B6053680B42FCD10223802013614002D2
:105004005368190001400342FAD1032313612200BB
:105014001D4B21CB21C21B785846137061720A22A2
:10502400210000F0B5F90A2007B03CBC904699462F
:10503400A246AB46F0BD1549306800F0C1F9074BF4
:10504400074D186029003068984600F0B9F901232B
:10505400044F23603860F4E6F80C0020641200204A
:10506400C44A001060120020FFFFFF9F4204104456
:105074000000E0AF8484214400000C1034110020AF
:10508400B006002010000050A04A0010AC4A0010E6
:10509400D02330B500251B0600245D5706E00368C5
:1050A400BFF35F8F1C6081F3108820BF0268EFF3A9
:1050B400108172B61368002BFCD0BFF35F8F0379A5
:1050C4007F2BECD905710368BFF35F8F00221A6050
:1050D40081F3108830BDC046030010B50068EFF3BB
:1050E400108472B60268002AFCD0BFF35F8F0422DA
:1050F4009A56002A0BDB00290FD000200A601B6897
:10510400BFF35F8F00221A6084F3108810BDD02291
:105114001206126801201A71F1E70020EFE7C04679
:10512400F0B5C64600B50C00804600F041F9FA22FD
:1051340006000F00200000230021920000F0F8F880
:105144008019794104000D008F422FD82CD0D02330
:105154001B0600261F680CE042461268BFF35F8FEF
:10516400166083F310882000290000F0E9F8002875
:1051740020D143461A68EFF3108372B611680029F0
:10518400FCD0BFF35F8F424612797F2AE4D94246AE
:1051940017711268BFF35F8F0021116083F31088C9
:1051A400012004BC9046F0BD8642D0D9012464425B
:1051B400E517CCE70020F4E70268EFF3108172B63C
:1051C4001368002BFCD0BFF35F8FFF2303710368C8
:1051D400BFF35F8F00221A6081F3108840BF7047CD
:1051E400084810B50378002B0AD180230649074AE2
:1051F4005B051C68CC5004339342FAD1012303703D
:1052040010BDC04650110020840B00100001001096
:1052140010B5024B0133984710BDC046840B0020E3
:10522400054B1A6880239B005340C0229200134010
:10523400024A13607047C0460C8001400C90014044
:10524400034B1A68C0239B009343024A13607047C0
:105254000C8001400C9001401423F0B5D6464F4613
:1052640046469A46814618880433C0B598460E00CF
:105274001B8827491400984753460700188843465B
:1052840024491B88984753460500188843462249F9
:105294001B8898478046FFF7A3FFB847A847FFF746
:1052A400BFFF002C1BD0C021220008270220490583
:1052B4003D008B6A1D4018420BD0002C09D0131BF3
:1052C4000D2B1FD84B461B78013C0B6601239C46D3
:1052D400E1442300002D0CD11343002BE8D1FFF748
:1052E400AFFFC047FFF794FF1CBC90469946A24607
:1052F400F0BD002AF1D00B6E013A33701300013671
:105304002343EAE7002DD3D0002AD1D0F3E7C046E7
:105314004946000045580000464300007047C04617
:1053240001B40248844601BC604700BF3104001048
:1053340001B40248844601BC604700BFB12100109B
:1053440001B40248844601BC604700BF4512001006
:1053540001B40248844601BC604700BF0D1200102E
:1053640001B40248844601BC604700BF792700109D
:1053740001B40248844601BC604700BFF126001016
:1053840001B40248844601BC604700BFB107001065
:1053940001B40248844601BC604700BF912200105A
:1053A40001B40248844601BC604700BF8107001075
:1053B40001B40248844601BC604700BFE9130010F1
:1053C40001B40248844601BC604700BF0D260010AA
:1053D4000000205000000000000000000000000059
:1053E40000000000000000000000000000000000B9
:1053F400FFFFFFFFF04A0010D84A0010E84A0010EF
:1054040068120020100000000000000000000100ED
:105414000000000000000000000002000000000086
:105424000000000000000300000000000000000075
:105434000000FF000000000000B5486801318E46FE
:105444000047704609380149884700BDB50B001074
:105454002807002000000000C8070020B00C00202E
:105464000000000000000000C00C0020000000004C
:105474000000000010000000000000000000000018
:10548400503300004C33000054330000523300000A
:105494004D5300004D4300005334000043340000DA
:1054A40051250010000000009D25001000000000A0
:1054B40000010000144D0010184D0010801400204D
:1054C40010000C000000E0FF1F00000000000000BE
:1054D40000000000000000000000000000000000C8
:1054E40000000000000000000000000000000000B8
:1054F4007522001001200010C5200010E5210010C5
:085504003903001039290010E1
:04000005100001E9FD
:00000001FF
